{
	"contractName": "MyMultiSigFactoryWithChugSplash",
	"address": "0xEa168E3097b9D2ac4C8eB077B706d8bE35304aA4",
	"abi": [
		{
			"anonymous": false,
			"inputs": [
				{
					"indexed": true,
					"internalType": "address",
					"name": "creator",
					"type": "address"
				},
				{
					"indexed": true,
					"internalType": "address",
					"name": "contractAddress",
					"type": "address"
				},
				{
					"indexed": true,
					"internalType": "uint256",
					"name": "contractIndex",
					"type": "uint256"
				},
				{
					"indexed": false,
					"internalType": "string",
					"name": "contractName",
					"type": "string"
				},
				{
					"indexed": false,
					"internalType": "address[]",
					"name": "originalOwners",
					"type": "address[]"
				}
			],
			"name": "MyMultiSigCreated",
			"type": "event"
		},
		{
			"inputs": [
				{
					"internalType": "string",
					"name": "contractName",
					"type": "string"
				},
				{
					"internalType": "address[]",
					"name": "owners",
					"type": "address[]"
				},
				{
					"internalType": "uint16",
					"name": "threshold",
					"type": "uint16"
				}
			],
			"name": "createMultiSig",
			"outputs": [
				{
					"internalType": "address",
					"name": "contractAddress",
					"type": "address"
				}
			],
			"stateMutability": "payable",
			"type": "function"
		},
		{
			"inputs": [
				{
					"internalType": "string",
					"name": "contractName",
					"type": "string"
				},
				{
					"internalType": "address[]",
					"name": "owners",
					"type": "address[]"
				},
				{
					"internalType": "uint16",
					"name": "threshold",
					"type": "uint16"
				},
				{
					"internalType": "bool",
					"name": "isOnlyOwnerRequest",
					"type": "bool"
				}
			],
			"name": "createMyMultiSigExtended",
			"outputs": [
				{
					"internalType": "address",
					"name": "contractAddress",
					"type": "address"
				}
			],
			"stateMutability": "payable",
			"type": "function"
		},
		{
			"inputs": [
				{
					"internalType": "uint256",
					"name": "index",
					"type": "uint256"
				}
			],
			"name": "creationType",
			"outputs": [
				{
					"internalType": "enum MyMultiSigFactorableModels.CreationType",
					"name": "",
					"type": "uint8"
				}
			],
			"stateMutability": "view",
			"type": "function"
		},
		{
			"inputs": [
				{
					"internalType": "uint256",
					"name": "index",
					"type": "uint256"
				}
			],
			"name": "multiSig",
			"outputs": [
				{
					"internalType": "address",
					"name": "",
					"type": "address"
				}
			],
			"stateMutability": "view",
			"type": "function"
		},
		{
			"inputs": [
				{
					"internalType": "address",
					"name": "creator",
					"type": "address"
				},
				{
					"internalType": "uint256",
					"name": "index",
					"type": "uint256"
				}
			],
			"name": "multiSigByCreator",
			"outputs": [
				{
					"internalType": "address",
					"name": "",
					"type": "address"
				}
			],
			"stateMutability": "view",
			"type": "function"
		},
		{
			"inputs": [],
			"name": "multiSigCount",
			"outputs": [
				{
					"internalType": "uint256",
					"name": "",
					"type": "uint256"
				}
			],
			"stateMutability": "view",
			"type": "function"
		},
		{
			"inputs": [
				{
					"internalType": "address",
					"name": "creator",
					"type": "address"
				}
			],
			"name": "multiSigCreatorCount",
			"outputs": [
				{
					"internalType": "uint256",
					"name": "",
					"type": "uint256"
				}
			],
			"stateMutability": "view",
			"type": "function"
		},
		{
			"inputs": [],
			"name": "name",
			"outputs": [
				{
					"internalType": "string",
					"name": "",
					"type": "string"
				}
			],
			"stateMutability": "pure",
			"type": "function"
		},
		{
			"inputs": [],
			"name": "version",
			"outputs": [
				{
					"internalType": "string",
					"name": "",
					"type": "string"
				}
			],
			"stateMutability": "pure",
			"type": "function"
		}
	],
	"transactionHash": "0xc99094e73b18e63e09b5fd1d890ed88b5319145d5948357df83a99443d2a52cc",
	"solcInputHash": "6b49d89e9948b42b2947ec44ab0ad675",
	"numDeployments": 1,
	"args": [],
	"bytecode": "0x608060405234801561001057600080fd5b50614755806100206000396000f3fe608060405260043610620000915760003560e01c806364d1fe74116200006057806364d1fe7414620001765780636ffb90e614620001a657806374d4929514620001bd578063837186cd14620001f7578063957dd3ef146200024857600080fd5b806306fdde0314620000965780633c2b934714620000e557806341e69367146200012e57806354fd4d501462000145575b600080fd5b348015620000a357600080fd5b506040805180820190915260118152704d794d756c7469536967466163746f727960781b60208201525b604051620000dc9190620004c5565b60405180910390f35b348015620000f257600080fd5b506200011f62000104366004620004fe565b6001600160a01b031660009081526003602052604090205490565b604051908152602001620000dc565b3480156200013b57600080fd5b506000546200011f565b3480156200015257600080fd5b506040805180820190915260068152650302e302e31360d41b6020820152620000cd565b6200018d6200018736600462000682565b6200028b565b6040516001600160a01b039091168152602001620000dc565b6200018d620001b736600462000718565b620002e9565b348015620001ca57600080fd5b506200018d620001dc36600462000795565b6000908152600160205260409020546001600160a01b031690565b3480156200020457600080fd5b506200018d62000216366004620007af565b6001600160a01b0391821660009081526004602090815260408083209383529281528282205482526001905220541690565b3480156200025557600080fd5b506200027c6200026736600462000795565b60009081526005602052604090205460ff1690565b604051620000dc9190620007f2565b60008085858585604051620002a09062000461565b620002af949392919062000861565b604051809103906000f080158015620002cc573d6000803e3d6000fd5b509050620002df60018288888862000344565b9695505050505050565b600080848484604051620002fd906200046f565b6200030b93929190620008a7565b604051809103906000f08015801562000328573d6000803e3d6000fd5b5090506200033b60008287878762000344565b95945050505050565b60008054815260016020908152604080832080546001600160a01b0319166001600160a01b0389169081179091558354908452600283528184208190553380855260048452828520600380865284872080548852918652938620929092558452915280548692909190620003b883620008e5565b9091555050600080548152600560205260409020805487919060ff191660018381811115620003eb57620003eb620007dc565b02179055506000805490806200040183620008e5565b9190505550600054816001600160a01b0316336001600160a01b03167f7743f89779aaa5e9101e8b91559905e9729070407384c5b3ee9a9159f4b502638787604051620004509291906200090d565b60405180910390a495945050505050565b611f6c806200093783390190565b611e7d80620028a383390190565b6000815180845260005b81811015620004a55760208185018101518683018201520162000487565b506000602082860101526020601f19601f83011685010191505092915050565b602081526000620004da60208301846200047d565b9392505050565b80356001600160a01b0381168114620004f957600080fd5b919050565b6000602082840312156200051157600080fd5b620004da82620004e1565b634e487b7160e01b600052604160045260246000fd5b604051601f8201601f1916810167ffffffffffffffff811182821017156200055e576200055e6200051c565b604052919050565b600082601f8301126200057857600080fd5b813567ffffffffffffffff8111156200059557620005956200051c565b620005aa601f8201601f191660200162000532565b818152846020838601011115620005c057600080fd5b816020850160208301376000918101602001919091529392505050565b600082601f830112620005ef57600080fd5b8135602067ffffffffffffffff8211156200060e576200060e6200051c565b8160051b6200061f82820162000532565b92835284810182019282810190878511156200063a57600080fd5b83870192505b8483101562000664576200065483620004e1565b8252918301919083019062000640565b979650505050505050565b803561ffff81168114620004f957600080fd5b600080600080608085870312156200069957600080fd5b843567ffffffffffffffff80821115620006b257600080fd5b620006c08883890162000566565b95506020870135915080821115620006d757600080fd5b50620006e687828801620005dd565b935050620006f7604086016200066f565b9150606085013580151581146200070d57600080fd5b939692955090935050565b6000806000606084860312156200072e57600080fd5b833567ffffffffffffffff808211156200074757600080fd5b620007558783880162000566565b945060208601359150808211156200076c57600080fd5b506200077b86828701620005dd565b9250506200078c604085016200066f565b90509250925092565b600060208284031215620007a857600080fd5b5035919050565b60008060408385031215620007c357600080fd5b620007ce83620004e1565b946020939093013593505050565b634e487b7160e01b600052602160045260246000fd5b60208101600283106200081557634e487b7160e01b600052602160045260246000fd5b91905290565b600081518084526020808501945080840160005b83811015620008565781516001600160a01b0316875295820195908201906001016200082f565b509495945050505050565b6080815260006200087660808301876200047d565b82810360208401526200088a81876200081b565b61ffff959095166040840152505090151560609091015292915050565b606081526000620008bc60608301866200047d565b8281036020840152620008d081866200081b565b91505061ffff83166040830152949350505050565b6000600182016200090657634e487b7160e01b600052601160045260246000fd5b5060010190565b6040815260006200092260408301856200047d565b82810360208401526200033b81856200081b56fe6101406040523480156200001257600080fd5b5060405162001f6c38038062001f6c8339810160408190526200003591620004bd565b838383826200005d6040805180820190915260068152650302e302e31360d41b602082015290565b60016000819055825160209384012082519284019290922060e08390526101008190524660a0818152604080517f8b73c3c69bb8fe3d512ecc4cf759cc79239f7b179b0ffacaa9a75d522b39400f818901819052818301979097526060810194909452608080850193909352308483018190528151808603909301835260c09485019091528151919096012090529290925261012052620000ff84826200064d565b50815161ffff8111156200016e5760405162461bcd60e51b815260206004820152602b60248201527f4d794d756c74695369673a2063616e6e6f7420616464206f776e65722061626f60448201526a766520325e3136202d203160a81b60648201526084015b60405180910390fd5b60005b81811015620001b057620001a784828151811062000193576200019362000719565b6020026020010151620001fe60201b60201c565b60010162000171565b5082516002805461ffff909216600160701b0261ffff60701b19909216919091179055620001de826200028d565b50506005805460ff191693151593909317909255506200072f9350505050565b6001600160a01b03811660009081526003602052604090205460ff1615620002695760405162461bcd60e51b815260206004820181905260248201527f4d794d756c74695369673a206f776e657220616c726561647920657869737473604482015260640162000165565b6001600160a01b03166000908152600360205260409020805460ff19166001179055565b60008161ffff1611620002f85760405162461bcd60e51b815260206004820152602c60248201527f4d794d756c74695369673a207468726573686f6c64206d75737420626520677260448201526b06561746572207468616e20360a41b606482015260840162000165565b60025461ffff600160701b90910481169082161115620003815760405162461bcd60e51b815260206004820152603f60248201527f4d794d756c74695369673a207468726573686f6c64206d757374206265206c6560448201527f7373207468616e206f7220657175616c20746f206f776e657220636f756e7400606482015260840162000165565b6002805461ffff9092166c010000000000000000000000000261ffff60601b19909216919091179055565b634e487b7160e01b600052604160045260246000fd5b604051601f8201601f191681016001600160401b0381118282101715620003ed57620003ed620003ac565b604052919050565b600082601f8301126200040757600080fd5b815160206001600160401b03821115620004255762000425620003ac565b8160051b62000436828201620003c2565b92835284810182019282810190878511156200045157600080fd5b83870192505b84831015620004895782516001600160a01b0381168114620004795760008081fd5b8252918301919083019062000457565b979650505050505050565b805161ffff81168114620004a757600080fd5b919050565b80518015158114620004a757600080fd5b60008060008060808587031215620004d457600080fd5b84516001600160401b0380821115620004ec57600080fd5b818701915087601f8301126200050157600080fd5b815181811115620005165762000516620003ac565b60206200052c601f8301601f19168201620003c2565b8281528a828487010111156200054157600080fd5b60005b838110156200056157858101830151828201840152820162000544565b5060009281018201929092528801519096509150808211156200058357600080fd5b506200059287828801620003f5565b935050620005a36040860162000494565b9150620005b360608601620004ac565b905092959194509250565b600181811c90821680620005d357607f821691505b602082108103620005f457634e487b7160e01b600052602260045260246000fd5b50919050565b601f8211156200064857600081815260208120601f850160051c81016020861015620006235750805b601f850160051c820191505b8181101562000644578281556001016200062f565b5050505b505050565b81516001600160401b03811115620006695762000669620003ac565b62000681816200067a8454620005be565b84620005fa565b602080601f831160018114620006b95760008415620006a05750858301515b600019600386901b1c1916600185901b17855562000644565b600085815260208120601f198616915b82811015620006ea57888601518255948401946001909101908401620006c9565b5085821015620007095787850151600019600388901b60f8161c191681555b5050505050600190811b01905550565b634e487b7160e01b600052603260045260246000fd5b60805160a05160c05160e05161010051610120516117ed6200077f60003960006110e2015260006111310152600061110c015260006110650152600061108f015260006110b901526117ed6000f3fe6080604052600436106100ec5760003560e01c8063802ddaec1161008a578063b849925011610059578063b8499250146102ac578063b9a70800146102cc578063e20056e6146102df578063f0daceac146102ff57600080fd5b8063802ddaec1461022c578063ac0dfcec1461024c578063affed0e014610264578063b574ba861461028c57600080fd5b80632f54bf6e116100c65780632f54bf6e1461017457806342cde4e8146101bd57806354fd4d50146101dd5780637065cb481461020c57600080fd5b806306fdde03146100f85780630db0262214610123578063173825d91461015257600080fd5b366100f357005b600080fd5b34801561010457600080fd5b5061010d610312565b60405161011a91906111c5565b60405180910390f35b34801561012f57600080fd5b50600254600160701b900461ffff165b60405161ffff909116815260200161011a565b34801561015e57600080fd5b5061017261016d3660046111fb565b6103a4565b005b34801561018057600080fd5b506101ad61018f3660046111fb565b6001600160a01b031660009081526003602052604090205460ff1690565b604051901515815260200161011a565b3480156101c957600080fd5b50600254600160601b900461ffff1661013f565b3480156101e957600080fd5b506040805180820190915260068152650302e302e31360d41b602082015261010d565b34801561021857600080fd5b506101726102273660046111fb565b6104a2565b34801561023857600080fd5b50610172610247366004611216565b61053e565b34801561025857600080fd5b5060055460ff166101ad565b34801561027057600080fd5b506002546040516001600160601b03909116815260200161011a565b34801561029857600080fd5b506101726102a7366004611238565b610570565b3480156102b857600080fd5b506101ad6102c7366004611313565b610598565b6101ad6102da366004611313565b6106df565b3480156102eb57600080fd5b506101726102fa36600461139b565b610934565b6101ad61030d3660046114dd565b610af2565b606060018054610321906115e6565b80601f016020809104026020016040519081016040528092919081815260200182805461034d906115e6565b801561039a5780601f1061036f5761010080835404028352916020019161039a565b820191906000526020600020905b81548152906001019060200180831161037d57829003601f168201915b5050505050905090565b3330146103cc5760405162461bcd60e51b81526004016103c390611620565b60405180910390fd5b60025461ffff600160601b82048116600160701b90920416116104495760405162461bcd60e51b815260206004820152602f60248201527f4d794d756c74695369673a2063616e6e6f742072656d6f7665206f776e65722060448201526e18995b1bddc81d1a1c995cda1bdb19608a1b60648201526084016103c3565b6001600160a01b0381166000908152600360205260409020805460ff1916905560028054600160701b900461ffff1690600e6104848361168b565b91906101000a81548161ffff021916908361ffff1602179055505050565b3330146104c15760405162461bcd60e51b81526004016103c390611620565b60025461ffff600160701b9091048116106105325760405162461bcd60e51b815260206004820152602b60248201527f4d794d756c74695369673a2063616e6e6f7420616464206f776e65722061626f60448201526a766520325e3136202d203160a81b60648201526084016103c3565b61053b81610bc0565b50565b33301461055d5760405162461bcd60e51b81526004016103c390611620565b6005805460ff1916911515919091179055565b33301461058f5760405162461bcd60e51b81526004016103c390611620565b61053b81610c4d565b600254600090600160601b900461ffff166105b48160416116a9565b61ffff16835110156105ca5760009150506106d6565b6000805b8261ffff168161ffff1610156106ce5761065d6106567f42b6a910722fe0bb1f5f1c9e9bb93ac603940a0d8b64406bbf37307e7a4f6c4c8b8b8b805190602001208b600260009054906101000a90046001600160601b031660405160200161063b969594939291906116cf565b60405160208183030381529060405280519060200120610d5f565b8683610db3565b6001600160a01b03811660009081526003602052604090205490925060ff1615806106b557506002546001600160601b031667ffffffffffffffff60601b606084901b160160009081526004602052604090205460ff165b156106c657600093505050506106d6565b6001016105ce565b506001925050505b95945050505050565b60006106e9610e35565b6106f68686868686610e8e565b6107425760405162461bcd60e51b815260206004820152601e60248201527f4d794d756c74695369673a20696e76616c6964207369676e617475726573000060448201526064016103c3565b600280546001600160601b031690600061075b83611709565b91906101000a8154816001600160601b0302191690836001600160601b031602179055505060005a9050600080865160208801898b89f19150835a6107a0908361172f565b106107ed5760405162461bcd60e51b815260206004820152601a60248201527f4d794d756c74695369673a206e6f7420656e6f7567682067617300000000000060448201526064016103c3565b811561084e5760025460405187916001600160a01b038a169133917fa3892e576025a09c244bf3831f1061b0fc657032178d85f48f1bc20c16c8effc91610841918b918b916001600160601b031690611742565b60405180910390a46108a5565b60025460405187916001600160a01b038a169133917f5a7ba054cf1cd70a4c0b73f114e33cf02e0ed0d5588caaa764cda47b728966a19161089c918b918b916001600160601b031690611742565b60405180910390a45b6002546bfffffffffffffffffffffc186001600160601b039091161115610929576002546001906108e3906001600160601b0316600160601b611774565b6108ed9190611774565b6cffffffffffffffffffffffffff167f4f464fb2cead651d13579db94eddf92d1842f753f89c47c704292d2b7d17591760405160405180910390a25b506106d66001600055565b3330146109535760405162461bcd60e51b81526004016103c390611620565b6001600160a01b03821660009081526003602052604090205460ff166109ca5760405162461bcd60e51b815260206004820152602660248201527f4d794d756c74695369673a206f6c64206f776e6572206d75737420626520616e6044820152651037bbb732b960d11b60648201526084016103c3565b6001600160a01b03811660009081526003602052604090205460ff1615610a465760405162461bcd60e51b815260206004820152602a60248201527f4d794d756c74695369673a206e6577206f776e6572206d757374206e6f742062604482015269329030b71037bbb732b960b11b60648201526084016103c3565b6001600160a01b038116610ab75760405162461bcd60e51b815260206004820152603260248201527f4d794d756c74695369673a206e6577206f776e6572206d757374206e6f7420626044820152716520746865207a65726f206164647265737360701b60648201526084016103c3565b6001600160a01b03918216600090815260036020526040808220805460ff199081169091559290931681529190912080549091166001179055565b6000333014610b135760405162461bcd60e51b81526004016103c390611620565b845160005b81811015610bb6576000878281518110610b3457610b346117a1565b602002602001015190506000878381518110610b5257610b526117a1565b602002602001015190506000878481518110610b7057610b706117a1565b602002602001015190506000878581518110610b8e57610b8e6117a1565b60200260200101519050600080835160208501868886f1965084600101945050505050610b18565b5050949350505050565b6001600160a01b03811660009081526003602052604090205460ff1615610c295760405162461bcd60e51b815260206004820181905260248201527f4d794d756c74695369673a206f776e657220616c72656164792065786973747360448201526064016103c3565b6001600160a01b03166000908152600360205260409020805460ff19166001179055565b60008161ffff1611610cb65760405162461bcd60e51b815260206004820152602c60248201527f4d794d756c74695369673a207468726573686f6c64206d75737420626520677260448201526b06561746572207468616e20360a41b60648201526084016103c3565b60025461ffff600160701b90910481169082161115610d3d5760405162461bcd60e51b815260206004820152603f60248201527f4d794d756c74695369673a207468726573686f6c64206d757374206265206c6560448201527f7373207468616e206f7220657175616c20746f206f776e657220636f756e740060648201526084016103c3565b6002805461ffff909216600160601b0261ffff60601b19909216919091179055565b6000610dad610d6c611058565b8360405161190160f01b6020820152602281018390526042810182905260009060620160405160208183030381529060405280519060200120905092915050565b92915050565b6020604182810284018281015160408083015192909301518351600080825295810180865289905260ff909116938101849052606081018290526080810183905290919060019060a0016020604051602081039080840390855afa158015610e1f573d6000803e3d6000fd5b5050604051601f19015198975050505050505050565b600260005403610e875760405162461bcd60e51b815260206004820152601f60248201527f5265656e7472616e637947756172643a207265656e7472616e742063616c6c0060448201526064016103c3565b6002600055565b600254600090600160601b900461ffff16610eaa8160416116a9565b61ffff1683511015610ec05760009150506106d6565b8451602080870191909120600254604051600093610f179361063b937f42b6a910722fe0bb1f5f1c9e9bb93ac603940a0d8b64406bbf37307e7a4f6c4c938e938e93928d926001600160601b0390911691016116cf565b905060008060005b8461ffff168161ffff16101561104757610f3a848883610db3565b6002546001600160a01b0382166000908152600360205260409020549194506001600160601b031667ffffffffffffffff60601b606086901b1601925060ff16610fc65760405162461bcd60e51b815260206004820152601960248201527f4d794d756c74695369673a20696e76616c6964206f776e65720000000000000060448201526064016103c3565b60008281526004602052604090205460ff16156110255760405162461bcd60e51b815260206004820181905260248201527f4d794d756c74695369673a206f776e657220616c7265616479207369676e656460448201526064016103c3565b6000828152600460205260409020805460ff1916600190811790915501610f1f565b5060019a9950505050505050505050565b6000306001600160a01b037f0000000000000000000000000000000000000000000000000000000000000000161480156110b157507f000000000000000000000000000000000000000000000000000000000000000046145b156110db57507f000000000000000000000000000000000000000000000000000000000000000090565b50604080517f00000000000000000000000000000000000000000000000000000000000000006020808301919091527f0000000000000000000000000000000000000000000000000000000000000000828401527f000000000000000000000000000000000000000000000000000000000000000060608301524660808301523060a0808401919091528351808403909101815260c0909201909252805191012090565b6000815180845260005b818110156111a557602081850181015186830182015201611189565b506000602082860101526020601f19601f83011685010191505092915050565b6020815260006111d8602083018461117f565b9392505050565b80356001600160a01b03811681146111f657600080fd5b919050565b60006020828403121561120d57600080fd5b6111d8826111df565b60006020828403121561122857600080fd5b813580151581146111d857600080fd5b60006020828403121561124a57600080fd5b813561ffff811681146111d857600080fd5b634e487b7160e01b600052604160045260246000fd5b604051601f8201601f1916810167ffffffffffffffff8111828210171561129b5761129b61125c565b604052919050565b600082601f8301126112b457600080fd5b813567ffffffffffffffff8111156112ce576112ce61125c565b6112e1601f8201601f1916602001611272565b8181528460208386010111156112f657600080fd5b816020850160208301376000918101602001919091529392505050565b600080600080600060a0868803121561132b57600080fd5b611334866111df565b945060208601359350604086013567ffffffffffffffff8082111561135857600080fd5b61136489838a016112a3565b945060608801359350608088013591508082111561138157600080fd5b5061138e888289016112a3565b9150509295509295909350565b600080604083850312156113ae57600080fd5b6113b7836111df565b91506113c5602084016111df565b90509250929050565b600067ffffffffffffffff8211156113e8576113e861125c565b5060051b60200190565b600082601f83011261140357600080fd5b81356020611418611413836113ce565b611272565b82815260059290921b8401810191818101908684111561143757600080fd5b8286015b84811015611452578035835291830191830161143b565b509695505050505050565b600082601f83011261146e57600080fd5b8135602061147e611413836113ce565b82815260059290921b8401810191818101908684111561149d57600080fd5b8286015b8481101561145257803567ffffffffffffffff8111156114c15760008081fd5b6114cf8986838b01016112a3565b8452509183019183016114a1565b600080600080608085870312156114f357600080fd5b843567ffffffffffffffff8082111561150b57600080fd5b818701915087601f83011261151f57600080fd5b8135602061152f611413836113ce565b82815260059290921b8401810191818101908b84111561154e57600080fd5b948201945b8386101561157357611564866111df565b82529482019490820190611553565b9850508801359250508082111561158957600080fd5b611595888389016113f2565b945060408701359150808211156115ab57600080fd5b6115b78883890161145d565b935060608701359150808211156115cd57600080fd5b506115da878288016113f2565b91505092959194509250565b600181811c908216806115fa57607f821691505b60208210810361161a57634e487b7160e01b600052602260045260246000fd5b50919050565b60208082526035908201527f4d794d756c74695369673a206f6e6c79207468697320636f6e7472616374206360408201527430b71031b0b636103a3434b990333ab731ba34b7b760591b606082015260800190565b634e487b7160e01b600052601160045260246000fd5b600061ffff82168061169f5761169f611675565b6000190192915050565b61ffff8181168382160280821691908281146116c7576116c7611675565b505092915050565b9586526001600160a01b039490941660208601526040850192909252606084015260808301526001600160601b031660a082015260c00190565b60006001600160601b0380831681810361172557611725611675565b6001019392505050565b81810381811115610dad57610dad611675565b606081526000611755606083018661117f565b90508360208301526001600160601b0383166040830152949350505050565b6cffffffffffffffffffffffffff82811682821603908082111561179a5761179a611675565b5092915050565b634e487b7160e01b600052603260045260246000fdfea264697066735822122014d5bdc5d1bf56c5d9ccc5ffd3d6d46b00c9884c2f8307cc912bf2f5dcd0dde364736f6c634300081200336101406040523480156200001257600080fd5b5060405162001e7d38038062001e7d833981016040819052620000359162000493565b826200005a6040805180820190915260068152650302e302e31360d41b602082015290565b60016000819055825160209384012082519284019290922060e08390526101008190524660a0818152604080517f8b73c3c69bb8fe3d512ecc4cf759cc79239f7b179b0ffacaa9a75d522b39400f818901819052818301979097526060810194909452608080850193909352308483018190528151808603909301835260c09485019091528151919096012090529290925261012052620000fc848262000610565b50815161ffff8111156200016b5760405162461bcd60e51b815260206004820152602b60248201527f4d794d756c74695369673a2063616e6e6f7420616464206f776e65722061626f60448201526a766520325e3136202d203160a81b60648201526084015b60405180910390fd5b60005b81811015620001ad57620001a4848281518110620001905762000190620006dc565b6020026020010151620001e560201b60201c565b6001016200016e565b5082516002805461ffff909216600160701b0261ffff60701b19909216919091179055620001db8262000274565b50505050620006f2565b6001600160a01b03811660009081526003602052604090205460ff1615620002505760405162461bcd60e51b815260206004820181905260248201527f4d794d756c74695369673a206f776e657220616c726561647920657869737473604482015260640162000162565b6001600160a01b03166000908152600360205260409020805460ff19166001179055565b60008161ffff1611620002df5760405162461bcd60e51b815260206004820152602c60248201527f4d794d756c74695369673a207468726573686f6c64206d75737420626520677260448201526b06561746572207468616e20360a41b606482015260840162000162565b60025461ffff600160701b90910481169082161115620003685760405162461bcd60e51b815260206004820152603f60248201527f4d794d756c74695369673a207468726573686f6c64206d757374206265206c6560448201527f7373207468616e206f7220657175616c20746f206f776e657220636f756e7400606482015260840162000162565b6002805461ffff9092166c010000000000000000000000000261ffff60601b19909216919091179055565b634e487b7160e01b600052604160045260246000fd5b604051601f8201601f191681016001600160401b0381118282101715620003d457620003d462000393565b604052919050565b600082601f830112620003ee57600080fd5b815160206001600160401b038211156200040c576200040c62000393565b8160051b6200041d828201620003a9565b92835284810182019282810190878511156200043857600080fd5b83870192505b84831015620004705782516001600160a01b0381168114620004605760008081fd5b825291830191908301906200043e565b979650505050505050565b805161ffff811681146200048e57600080fd5b919050565b600080600060608486031215620004a957600080fd5b83516001600160401b0380821115620004c157600080fd5b818601915086601f830112620004d657600080fd5b815181811115620004eb57620004eb62000393565b602062000501601f8301601f19168201620003a9565b82815289828487010111156200051657600080fd5b60005b838110156200053657858101830151828201840152820162000519565b5060009281018201929092528701519095509150808211156200055857600080fd5b506200056786828701620003dc565b92505062000578604085016200047b565b90509250925092565b600181811c908216806200059657607f821691505b602082108103620005b757634e487b7160e01b600052602260045260246000fd5b50919050565b601f8211156200060b57600081815260208120601f850160051c81016020861015620005e65750805b601f850160051c820191505b818110156200060757828155600101620005f2565b5050505b505050565b81516001600160401b038111156200062c576200062c62000393565b62000644816200063d845462000581565b84620005bd565b602080601f8311600181146200067c5760008415620006635750858301515b600019600386901b1c1916600185901b17855562000607565b600085815260208120601f198616915b82811015620006ad578886015182559484019460019091019084016200068c565b5085821015620006cc5787850151600019600388901b60f8161c191681555b5050505050600190811b01905550565b634e487b7160e01b600052603260045260246000fd5b60805160a05160c05160e051610100516101205161173b620007426000396000611052015260006110a10152600061107c01526000610fd501526000610fff01526000611029015261173b6000f3fe6080604052600436106100c65760003560e01c80637065cb481161007f578063b849925011610059578063b84992501461024e578063b9a708001461026e578063e20056e614610281578063f0daceac146102a157600080fd5b80637065cb48146101e6578063affed0e014610206578063b574ba861461022e57600080fd5b806306fdde03146100d25780630db02622146100fd578063173825d91461012c5780632f54bf6e1461014e57806342cde4e81461019757806354fd4d50146101b757600080fd5b366100cd57005b600080fd5b3480156100de57600080fd5b506100e76102b4565b6040516100f49190611135565b60405180910390f35b34801561010957600080fd5b50600254600160701b900461ffff165b60405161ffff90911681526020016100f4565b34801561013857600080fd5b5061014c61014736600461116b565b610346565b005b34801561015a57600080fd5b5061018761016936600461116b565b6001600160a01b031660009081526003602052604090205460ff1690565b60405190151581526020016100f4565b3480156101a357600080fd5b50600254600160601b900461ffff16610119565b3480156101c357600080fd5b506040805180820190915260068152650302e302e31360d41b60208201526100e7565b3480156101f257600080fd5b5061014c61020136600461116b565b610444565b34801561021257600080fd5b506002546040516001600160601b0390911681526020016100f4565b34801561023a57600080fd5b5061014c610249366004611186565b6104e0565b34801561025a57600080fd5b50610187610269366004611261565b610508565b61018761027c366004611261565b61064f565b34801561028d57600080fd5b5061014c61029c3660046112e9565b6108a4565b6101876102af36600461142b565b610a62565b6060600180546102c390611534565b80601f01602080910402602001604051908101604052809291908181526020018280546102ef90611534565b801561033c5780601f106103115761010080835404028352916020019161033c565b820191906000526020600020905b81548152906001019060200180831161031f57829003601f168201915b5050505050905090565b33301461036e5760405162461bcd60e51b81526004016103659061156e565b60405180910390fd5b60025461ffff600160601b82048116600160701b90920416116103eb5760405162461bcd60e51b815260206004820152602f60248201527f4d794d756c74695369673a2063616e6e6f742072656d6f7665206f776e65722060448201526e18995b1bddc81d1a1c995cda1bdb19608a1b6064820152608401610365565b6001600160a01b0381166000908152600360205260409020805460ff1916905560028054600160701b900461ffff1690600e610426836115d9565b91906101000a81548161ffff021916908361ffff1602179055505050565b3330146104635760405162461bcd60e51b81526004016103659061156e565b60025461ffff600160701b9091048116106104d45760405162461bcd60e51b815260206004820152602b60248201527f4d794d756c74695369673a2063616e6e6f7420616464206f776e65722061626f60448201526a766520325e3136202d203160a81b6064820152608401610365565b6104dd81610b30565b50565b3330146104ff5760405162461bcd60e51b81526004016103659061156e565b6104dd81610bbd565b600254600090600160601b900461ffff166105248160416115f7565b61ffff168351101561053a576000915050610646565b6000805b8261ffff168161ffff16101561063e576105cd6105c67f42b6a910722fe0bb1f5f1c9e9bb93ac603940a0d8b64406bbf37307e7a4f6c4c8b8b8b805190602001208b600260009054906101000a90046001600160601b03166040516020016105ab9695949392919061161d565b60405160208183030381529060405280519060200120610ccf565b8683610d23565b6001600160a01b03811660009081526003602052604090205490925060ff16158061062557506002546001600160601b031667ffffffffffffffff60601b606084901b160160009081526004602052604090205460ff165b156106365760009350505050610646565b60010161053e565b506001925050505b95945050505050565b6000610659610da5565b6106668686868686610dfe565b6106b25760405162461bcd60e51b815260206004820152601e60248201527f4d794d756c74695369673a20696e76616c6964207369676e61747572657300006044820152606401610365565b600280546001600160601b03169060006106cb83611657565b91906101000a8154816001600160601b0302191690836001600160601b031602179055505060005a9050600080865160208801898b89f19150835a610710908361167d565b1061075d5760405162461bcd60e51b815260206004820152601a60248201527f4d794d756c74695369673a206e6f7420656e6f756768206761730000000000006044820152606401610365565b81156107be5760025460405187916001600160a01b038a169133917fa3892e576025a09c244bf3831f1061b0fc657032178d85f48f1bc20c16c8effc916107b1918b918b916001600160601b031690611690565b60405180910390a4610815565b60025460405187916001600160a01b038a169133917f5a7ba054cf1cd70a4c0b73f114e33cf02e0ed0d5588caaa764cda47b728966a19161080c918b918b916001600160601b031690611690565b60405180910390a45b6002546bfffffffffffffffffffffc186001600160601b03909116111561089957600254600190610853906001600160601b0316600160601b6116c2565b61085d91906116c2565b6cffffffffffffffffffffffffff167f4f464fb2cead651d13579db94eddf92d1842f753f89c47c704292d2b7d17591760405160405180910390a25b506106466001600055565b3330146108c35760405162461bcd60e51b81526004016103659061156e565b6001600160a01b03821660009081526003602052604090205460ff1661093a5760405162461bcd60e51b815260206004820152602660248201527f4d794d756c74695369673a206f6c64206f776e6572206d75737420626520616e6044820152651037bbb732b960d11b6064820152608401610365565b6001600160a01b03811660009081526003602052604090205460ff16156109b65760405162461bcd60e51b815260206004820152602a60248201527f4d794d756c74695369673a206e6577206f776e6572206d757374206e6f742062604482015269329030b71037bbb732b960b11b6064820152608401610365565b6001600160a01b038116610a275760405162461bcd60e51b815260206004820152603260248201527f4d794d756c74695369673a206e6577206f776e6572206d757374206e6f7420626044820152716520746865207a65726f206164647265737360701b6064820152608401610365565b6001600160a01b03918216600090815260036020526040808220805460ff199081169091559290931681529190912080549091166001179055565b6000333014610a835760405162461bcd60e51b81526004016103659061156e565b845160005b81811015610b26576000878281518110610aa457610aa46116ef565b602002602001015190506000878381518110610ac257610ac26116ef565b602002602001015190506000878481518110610ae057610ae06116ef565b602002602001015190506000878581518110610afe57610afe6116ef565b60200260200101519050600080835160208501868886f1965084600101945050505050610a88565b5050949350505050565b6001600160a01b03811660009081526003602052604090205460ff1615610b995760405162461bcd60e51b815260206004820181905260248201527f4d794d756c74695369673a206f776e657220616c7265616479206578697374736044820152606401610365565b6001600160a01b03166000908152600360205260409020805460ff19166001179055565b60008161ffff1611610c265760405162461bcd60e51b815260206004820152602c60248201527f4d794d756c74695369673a207468726573686f6c64206d75737420626520677260448201526b06561746572207468616e20360a41b6064820152608401610365565b60025461ffff600160701b90910481169082161115610cad5760405162461bcd60e51b815260206004820152603f60248201527f4d794d756c74695369673a207468726573686f6c64206d757374206265206c6560448201527f7373207468616e206f7220657175616c20746f206f776e657220636f756e74006064820152608401610365565b6002805461ffff909216600160601b0261ffff60601b19909216919091179055565b6000610d1d610cdc610fc8565b8360405161190160f01b6020820152602281018390526042810182905260009060620160405160208183030381529060405280519060200120905092915050565b92915050565b6020604182810284018281015160408083015192909301518351600080825295810180865289905260ff909116938101849052606081018290526080810183905290919060019060a0016020604051602081039080840390855afa158015610d8f573d6000803e3d6000fd5b5050604051601f19015198975050505050505050565b600260005403610df75760405162461bcd60e51b815260206004820152601f60248201527f5265656e7472616e637947756172643a207265656e7472616e742063616c6c006044820152606401610365565b6002600055565b600254600090600160601b900461ffff16610e1a8160416115f7565b61ffff1683511015610e30576000915050610646565b8451602080870191909120600254604051600093610e87936105ab937f42b6a910722fe0bb1f5f1c9e9bb93ac603940a0d8b64406bbf37307e7a4f6c4c938e938e93928d926001600160601b03909116910161161d565b905060008060005b8461ffff168161ffff161015610fb757610eaa848883610d23565b6002546001600160a01b0382166000908152600360205260409020549194506001600160601b031667ffffffffffffffff60601b606086901b1601925060ff16610f365760405162461bcd60e51b815260206004820152601960248201527f4d794d756c74695369673a20696e76616c6964206f776e6572000000000000006044820152606401610365565b60008281526004602052604090205460ff1615610f955760405162461bcd60e51b815260206004820181905260248201527f4d794d756c74695369673a206f776e657220616c7265616479207369676e65646044820152606401610365565b6000828152600460205260409020805460ff1916600190811790915501610e8f565b5060019a9950505050505050505050565b6000306001600160a01b037f00000000000000000000000000000000000000000000000000000000000000001614801561102157507f000000000000000000000000000000000000000000000000000000000000000046145b1561104b57507f000000000000000000000000000000000000000000000000000000000000000090565b50604080517f00000000000000000000000000000000000000000000000000000000000000006020808301919091527f0000000000000000000000000000000000000000000000000000000000000000828401527f000000000000000000000000000000000000000000000000000000000000000060608301524660808301523060a0808401919091528351808403909101815260c0909201909252805191012090565b6000815180845260005b81811015611115576020818501810151868301820152016110f9565b506000602082860101526020601f19601f83011685010191505092915050565b60208152600061114860208301846110ef565b9392505050565b80356001600160a01b038116811461116657600080fd5b919050565b60006020828403121561117d57600080fd5b6111488261114f565b60006020828403121561119857600080fd5b813561ffff8116811461114857600080fd5b634e487b7160e01b600052604160045260246000fd5b604051601f8201601f1916810167ffffffffffffffff811182821017156111e9576111e96111aa565b604052919050565b600082601f83011261120257600080fd5b813567ffffffffffffffff81111561121c5761121c6111aa565b61122f601f8201601f19166020016111c0565b81815284602083860101111561124457600080fd5b816020850160208301376000918101602001919091529392505050565b600080600080600060a0868803121561127957600080fd5b6112828661114f565b945060208601359350604086013567ffffffffffffffff808211156112a657600080fd5b6112b289838a016111f1565b94506060880135935060808801359150808211156112cf57600080fd5b506112dc888289016111f1565b9150509295509295909350565b600080604083850312156112fc57600080fd5b6113058361114f565b91506113136020840161114f565b90509250929050565b600067ffffffffffffffff821115611336576113366111aa565b5060051b60200190565b600082601f83011261135157600080fd5b813560206113666113618361131c565b6111c0565b82815260059290921b8401810191818101908684111561138557600080fd5b8286015b848110156113a05780358352918301918301611389565b509695505050505050565b600082601f8301126113bc57600080fd5b813560206113cc6113618361131c565b82815260059290921b840181019181810190868411156113eb57600080fd5b8286015b848110156113a057803567ffffffffffffffff81111561140f5760008081fd5b61141d8986838b01016111f1565b8452509183019183016113ef565b6000806000806080858703121561144157600080fd5b843567ffffffffffffffff8082111561145957600080fd5b818701915087601f83011261146d57600080fd5b8135602061147d6113618361131c565b82815260059290921b8401810191818101908b84111561149c57600080fd5b948201945b838610156114c1576114b28661114f565b825294820194908201906114a1565b985050880135925050808211156114d757600080fd5b6114e388838901611340565b945060408701359150808211156114f957600080fd5b611505888389016113ab565b9350606087013591508082111561151b57600080fd5b5061152887828801611340565b91505092959194509250565b600181811c9082168061154857607f821691505b60208210810361156857634e487b7160e01b600052602260045260246000fd5b50919050565b60208082526035908201527f4d794d756c74695369673a206f6e6c79207468697320636f6e7472616374206360408201527430b71031b0b636103a3434b990333ab731ba34b7b760591b606082015260800190565b634e487b7160e01b600052601160045260246000fd5b600061ffff8216806115ed576115ed6115c3565b6000190192915050565b61ffff818116838216028082169190828114611615576116156115c3565b505092915050565b9586526001600160a01b039490941660208601526040850192909252606084015260808301526001600160601b031660a082015260c00190565b60006001600160601b03808316818103611673576116736115c3565b6001019392505050565b81810381811115610d1d57610d1d6115c3565b6060815260006116a360608301866110ef565b90508360208301526001600160601b0383166040830152949350505050565b6cffffffffffffffffffffffffff8281168282160390808211156116e8576116e86115c3565b5092915050565b634e487b7160e01b600052603260045260246000fdfea2646970667358221220e9d802b5f366d5232831d9aa3b60c2b64b815b6dc516a371b8f2f2ac209674b564736f6c63430008120033a2646970667358221220c3ba060ac405e8e141a09ec81f34ef3fc1d1df78e1c2a21ccacae2eb97c9882d64736f6c63430008120033",
	"deployedBytecode": "0x60806040526004361061004e5760003560e01c80633659cfe6146100655780634f1ef286146100855780635c60da1b146100ae5780638f283970146100db578063f851a440146100fb5761005d565b3661005d5761005b610110565b005b61005b610110565b34801561007157600080fd5b5061005b61008036600461051d565b6101c8565b610098610093366004610538565b61020e565b6040516100a591906105bb565b60405180910390f35b3480156100ba57600080fd5b506100c361033e565b6040516001600160a01b0390911681526020016100a5565b3480156100e757600080fd5b5061005b6100f636600461051d565b6103a9565b34801561010757600080fd5b506100c36103e4565b600061013a7f360894a13ba1a3210667c828492db98dca3e2076cc3735a920a3ca505d382bbc5490565b90506001600160a01b0381166101a55760405162461bcd60e51b815260206004820152602560248201527f50726f78793a20696d706c656d656e746174696f6e206e6f7420696e697469616044820152641b1a5e995960da1b60648201526084015b60405180910390fd5b3660008037600080366000845af43d6000803e806101c2573d6000fd5b503d6000f35b600080516020610621833981519152546001600160a01b0316336001600160a01b031614806101f5575033155b156102065761020381610432565b50565b610203610110565b60606102266000805160206106218339815191525490565b6001600160a01b0316336001600160a01b03161480610243575033155b1561032f5761025184610432565b600080856001600160a01b0316858560405161026e929190610610565b600060405180830381855af49150503d80600081146102a9576040519150601f19603f3d011682016040523d82523d6000602084013e6102ae565b606091505b5091509150816103265760405162461bcd60e51b815260206004820152603960248201527f50726f78793a2064656c656761746563616c6c20746f206e657720696d706c6560448201527f6d656e746174696f6e20636f6e7472616374206661696c656400000000000000606482015260840161019c565b91506103379050565b610337610110565b9392505050565b60006103566000805160206106218339815191525490565b6001600160a01b0316336001600160a01b03161480610373575033155b1561039e57507f360894a13ba1a3210667c828492db98dca3e2076cc3735a920a3ca505d382bbc5490565b6103a6610110565b90565b600080516020610621833981519152546001600160a01b0316336001600160a01b031614806103d6575033155b15610206576102038161048d565b60006103fc6000805160206106218339815191525490565b6001600160a01b0316336001600160a01b03161480610419575033155b1561039e57506000805160206106218339815191525490565b7f360894a13ba1a3210667c828492db98dca3e2076cc3735a920a3ca505d382bbc8190556040516001600160a01b038216907fbc7cd75a20ee27fd9adebab32041f755214dbc6bffa90cc0225b39da2e5c2d3b90600090a250565b60006104a56000805160206106218339815191525490565b600080516020610621833981519152839055604080516001600160a01b038084168252851660208201529192507f7e644d79422f17c01e4894b5f4f588d331ebfa28653d42ae832dc59e38c9798f910160405180910390a15050565b80356001600160a01b038116811461051857600080fd5b919050565b60006020828403121561052f57600080fd5b61033782610501565b60008060006040848603121561054d57600080fd5b61055684610501565b9250602084013567ffffffffffffffff8082111561057357600080fd5b818601915086601f83011261058757600080fd5b81358181111561059657600080fd5b8760208285010111156105a857600080fd5b6020830194508093505050509250925092565b600060208083528351808285015260005b818110156105e8578581018301518582016040015282016105cc565b818111156105fa576000604083870101525b50601f01601f1916929092016040019392505050565b818382376000910190815291905056feb53127684a568b3173ae13b9f8a6016e243e63b6e8ee1178d6a717850b5d6103a164736f6c634300080f000a",
	"devdoc": {
		"kind": "dev",
		"methods": {
			"createMultiSig(string,address[],uint16)": {
				"params": {
					"contractName": "The name of your multisig contract",
					"owners": "The owners list",
					"threshold": "The amount of owners signature require to execute transactions"
				}
			},
			"createMyMultiSigExtended(string,address[],uint16,bool)": {
				"params": {
					"contractName": "The name of your multisig contract",
					"owners": "The owners list",
					"threshold": "The amount of owners signature require to execute transactions"
				}
			},
			"creationType(uint256)": {
				"params": {
					"index": "The index of the multisig"
				},
				"returns": {
					"_0": "The type of multisig contract as a MyMultiSigFactorableModels.CreationType."
				}
			},
			"multiSig(uint256)": {
				"params": {
					"index": "The index of the multisig"
				},
				"returns": {
					"_0": "The current amount value as a uint256."
				}
			},
			"multiSigByCreator(address,uint256)": {
				"params": {
					"creator": "The creator of the multisig contract",
					"index": "The index of the multisig"
				},
				"returns": {
					"_0": "The current amount value as a uint256."
				}
			},
			"multiSigCount()": {
				"returns": {
					"_0": "The current amount value as a uint256."
				}
			},
			"multiSigCreatorCount(address)": {
				"params": {
					"creator": "The creator of the multisig contract"
				},
				"returns": {
					"_0": "The current amount value as a uint256."
				}
			},
			"name()": {
				"returns": {
					"_0": "The name as a string memory."
				}
			},
			"version()": {
				"returns": {
					"_0": "The version as a string memory."
				}
			}
		},
		"version": 1
	},
	"userdoc": {
		"kind": "user",
		"methods": {
			"createMultiSig(string,address[],uint16)": {
				"notice": "Creates a new multisig contract"
			},
			"createMyMultiSigExtended(string,address[],uint16,bool)": {
				"notice": "Creates a new multisig contract with extended features"
			},
			"creationType(uint256)": {
				"notice": "Retrieves the type of multisig contract created via this Factory contract"
			},
			"multiSig(uint256)": {
				"notice": "Retrieves a multisig by it's index"
			},
			"multiSigByCreator(address,uint256)": {
				"notice": "Retrieves a multisig created by a specific creator by it's index"
			},
			"multiSigCount()": {
				"notice": "Retrieves the amount of multisig contract created via this Factory contract"
			},
			"multiSigCreatorCount(address)": {
				"notice": "Retrieves the amount of multisig contract created via this Factory contract by a specific creator"
			},
			"name()": {
				"notice": "Retrieves the contract name"
			},
			"version()": {
				"notice": "Retrieves the contract version"
			}
		},
		"version": 1
	},
	"storageLayout": {
		"storage": [
			{
				"astId": 4415,
				"contract": "contracts/MyMultiSigFactoryWithChugSplash.sol:MyMultiSigFactoryWithChugSplash",
				"label": "_multiSigCount",
				"offset": 0,
				"slot": "0",
				"type": "t_uint256"
			},
			{
				"astId": 4420,
				"contract": "contracts/MyMultiSigFactoryWithChugSplash.sol:MyMultiSigFactoryWithChugSplash",
				"label": "_multiSigs",
				"offset": 0,
				"slot": "1",
				"type": "t_mapping(t_uint256,t_contract(MyMultiSig)4335)"
			},
			{
				"astId": 4424,
				"contract": "contracts/MyMultiSigFactoryWithChugSplash.sol:MyMultiSigFactoryWithChugSplash",
				"label": "_multiSigIndex",
				"offset": 0,
				"slot": "2",
				"type": "t_mapping(t_address,t_uint256)"
			},
			{
				"astId": 4428,
				"contract": "contracts/MyMultiSigFactoryWithChugSplash.sol:MyMultiSigFactoryWithChugSplash",
				"label": "_multiSigCreatorCount",
				"offset": 0,
				"slot": "3",
				"type": "t_mapping(t_address,t_uint256)"
			},
			{
				"astId": 4434,
				"contract": "contracts/MyMultiSigFactoryWithChugSplash.sol:MyMultiSigFactoryWithChugSplash",
				"label": "_multiSigIndexByCreator",
				"offset": 0,
				"slot": "4",
				"type": "t_mapping(t_address,t_mapping(t_uint256,t_uint256))"
			},
			{
				"astId": 4439,
				"contract": "contracts/MyMultiSigFactoryWithChugSplash.sol:MyMultiSigFactoryWithChugSplash",
				"label": "_multiSigCreationType",
				"offset": 0,
				"slot": "5",
				"type": "t_mapping(t_uint256,t_enum(CreationType)4700)"
			}
		],
		"types": {
			"t_address": {
				"encoding": "inplace",
				"label": "address",
				"numberOfBytes": "20"
			},
			"t_contract(MyMultiSig)4335": {
				"encoding": "inplace",
				"label": "contract MyMultiSig",
				"numberOfBytes": "20"
			},
			"t_enum(CreationType)4700": {
				"encoding": "inplace",
				"label": "enum MyMultiSigFactorableModels.CreationType",
				"numberOfBytes": "1",
				"members": [
					"SIMPLE",
					"EXTENDED"
				]
			},
			"t_mapping(t_address,t_mapping(t_uint256,t_uint256))": {
				"encoding": "mapping",
				"key": "t_address",
				"label": "mapping(address => mapping(uint256 => uint256))",
				"numberOfBytes": "32",
				"value": "t_mapping(t_uint256,t_uint256)"
			},
			"t_mapping(t_address,t_uint256)": {
				"encoding": "mapping",
				"key": "t_address",
				"label": "mapping(address => uint256)",
				"numberOfBytes": "32",
				"value": "t_uint256"
			},
			"t_mapping(t_uint256,t_contract(MyMultiSig)4335)": {
				"encoding": "mapping",
				"key": "t_uint256",
				"label": "mapping(uint256 => contract MyMultiSig)",
				"numberOfBytes": "32",
				"value": "t_contract(MyMultiSig)4335"
			},
			"t_mapping(t_uint256,t_enum(CreationType)4700)": {
				"encoding": "mapping",
				"key": "t_uint256",
				"label": "mapping(uint256 => enum MyMultiSigFactorableModels.CreationType)",
				"numberOfBytes": "32",
				"value": "t_enum(CreationType)4700"
			},
			"t_mapping(t_uint256,t_uint256)": {
				"encoding": "mapping",
				"key": "t_uint256",
				"label": "mapping(uint256 => uint256)",
				"numberOfBytes": "32",
				"value": "t_uint256"
			},
			"t_uint256": {
				"encoding": "inplace",
				"label": "uint256",
				"numberOfBytes": "32"
			}
		}
	}
}