{
	"contractName": "MyMultiSigFactoryWithChugSplash",
	"address": "0xEa168E3097b9D2ac4C8eB077B706d8bE35304aA4",
	"abi": [
		{
			"anonymous": false,
			"inputs": [
				{
					"indexed": true,
					"internalType": "address",
					"name": "creator",
					"type": "address"
				},
				{
					"indexed": true,
					"internalType": "address",
					"name": "contractAddress",
					"type": "address"
				},
				{
					"indexed": true,
					"internalType": "uint256",
					"name": "contractIndex",
					"type": "uint256"
				},
				{
					"indexed": false,
					"internalType": "string",
					"name": "contractName",
					"type": "string"
				},
				{
					"indexed": false,
					"internalType": "address[]",
					"name": "originalOwners",
					"type": "address[]"
				}
			],
			"name": "MyMultiSigCreated",
			"type": "event"
		},
		{
			"inputs": [
				{
					"internalType": "string",
					"name": "contractName",
					"type": "string"
				},
				{
					"internalType": "address[]",
					"name": "owners",
					"type": "address[]"
				},
				{
					"internalType": "uint16",
					"name": "threshold",
					"type": "uint16"
				}
			],
			"name": "createMultiSig",
			"outputs": [
				{
					"internalType": "address",
					"name": "contractAddress",
					"type": "address"
				}
			],
			"stateMutability": "payable",
			"type": "function"
		},
		{
			"inputs": [
				{
					"internalType": "string",
					"name": "contractName",
					"type": "string"
				},
				{
					"internalType": "address[]",
					"name": "owners",
					"type": "address[]"
				},
				{
					"internalType": "uint16",
					"name": "threshold",
					"type": "uint16"
				},
				{
					"internalType": "bool",
					"name": "isOnlyOwnerRequest",
					"type": "bool"
				}
			],
			"name": "createMyMultiSigExtended",
			"outputs": [
				{
					"internalType": "address",
					"name": "contractAddress",
					"type": "address"
				}
			],
			"stateMutability": "payable",
			"type": "function"
		},
		{
			"inputs": [
				{
					"internalType": "uint256",
					"name": "index",
					"type": "uint256"
				}
			],
			"name": "creationType",
			"outputs": [
				{
					"internalType": "enum MyMultiSigFactorableModels.CreationType",
					"name": "",
					"type": "uint8"
				}
			],
			"stateMutability": "view",
			"type": "function"
		},
		{
			"inputs": [
				{
					"internalType": "uint256",
					"name": "index",
					"type": "uint256"
				}
			],
			"name": "multiSig",
			"outputs": [
				{
					"internalType": "address",
					"name": "",
					"type": "address"
				}
			],
			"stateMutability": "view",
			"type": "function"
		},
		{
			"inputs": [
				{
					"internalType": "address",
					"name": "creator",
					"type": "address"
				},
				{
					"internalType": "uint256",
					"name": "index",
					"type": "uint256"
				}
			],
			"name": "multiSigByCreator",
			"outputs": [
				{
					"internalType": "address",
					"name": "",
					"type": "address"
				}
			],
			"stateMutability": "view",
			"type": "function"
		},
		{
			"inputs": [],
			"name": "multiSigCount",
			"outputs": [
				{
					"internalType": "uint256",
					"name": "",
					"type": "uint256"
				}
			],
			"stateMutability": "view",
			"type": "function"
		},
		{
			"inputs": [
				{
					"internalType": "address",
					"name": "creator",
					"type": "address"
				}
			],
			"name": "multiSigCreatorCount",
			"outputs": [
				{
					"internalType": "uint256",
					"name": "",
					"type": "uint256"
				}
			],
			"stateMutability": "view",
			"type": "function"
		},
		{
			"inputs": [],
			"name": "name",
			"outputs": [
				{
					"internalType": "string",
					"name": "",
					"type": "string"
				}
			],
			"stateMutability": "pure",
			"type": "function"
		},
		{
			"inputs": [],
			"name": "version",
			"outputs": [
				{
					"internalType": "string",
					"name": "",
					"type": "string"
				}
			],
			"stateMutability": "pure",
			"type": "function"
		}
	],
	"transactionHash": "0x380154a8b3577b1e304d6f60e27f7dcceeb586fd705ae31aa3720d2f37dabcb7",
	"solcInputHash": "497b5a5bba9534d844a1b42fc35f4efd",
	"numDeployments": 1,
	"args": [],
	"bytecode": "0x608060405234801561001057600080fd5b50615365806100206000396000f3fe608060405260043610620000915760003560e01c806364d1fe74116200006057806364d1fe7414620001765780636ffb90e614620001a657806374d4929514620001bd578063837186cd14620001f7578063957dd3ef146200024857600080fd5b806306fdde0314620000965780633c2b934714620000e557806341e69367146200012e57806354fd4d501462000145575b600080fd5b348015620000a357600080fd5b506040805180820190915260118152704d794d756c7469536967466163746f727960781b60208201525b604051620000dc9190620004c5565b60405180910390f35b348015620000f257600080fd5b506200011f62000104366004620004fe565b6001600160a01b031660009081526003602052604090205490565b604051908152602001620000dc565b3480156200013b57600080fd5b506000546200011f565b3480156200015257600080fd5b5060408051808201909152600681526518171817189960d11b6020820152620000cd565b6200018d6200018736600462000682565b6200028b565b6040516001600160a01b039091168152602001620000dc565b6200018d620001b736600462000718565b620002e9565b348015620001ca57600080fd5b506200018d620001dc36600462000795565b6000908152600160205260409020546001600160a01b031690565b3480156200020457600080fd5b506200018d62000216366004620007af565b6001600160a01b0391821660009081526004602090815260408083209383529281528282205482526001905220541690565b3480156200025557600080fd5b506200027c6200026736600462000795565b60009081526005602052604090205460ff1690565b604051620000dc9190620007f2565b60008085858585604051620002a09062000461565b620002af949392919062000861565b604051809103906000f080158015620002cc573d6000803e3d6000fd5b509050620002df60018288888862000344565b9695505050505050565b600080848484604051620002fd906200046f565b6200030b93929190620008a7565b604051809103906000f08015801562000328573d6000803e3d6000fd5b5090506200033b60008287878762000344565b95945050505050565b60008054815260016020908152604080832080546001600160a01b0319166001600160a01b0389169081179091558354908452600283528184208190553380855260048452828520600380865284872080548852918652938620929092558452915280548692909190620003b883620008e5565b9091555050600080548152600560205260409020805487919060ff191660018381811115620003eb57620003eb620007dc565b02179055506000805490806200040183620008e5565b9190505550600054816001600160a01b0316336001600160a01b03167f7743f89779aaa5e9101e8b91559905e9729070407384c5b3ee9a9159f4b502638787604051620004509291906200090d565b60405180910390a495945050505050565b6129bd806200093783390190565b61203c80620032f483390190565b6000815180845260005b81811015620004a55760208185018101518683018201520162000487565b506000602082860101526020601f19601f83011685010191505092915050565b602081526000620004da60208301846200047d565b9392505050565b80356001600160a01b0381168114620004f957600080fd5b919050565b6000602082840312156200051157600080fd5b620004da82620004e1565b634e487b7160e01b600052604160045260246000fd5b604051601f8201601f1916810167ffffffffffffffff811182821017156200055e576200055e6200051c565b604052919050565b600082601f8301126200057857600080fd5b813567ffffffffffffffff8111156200059557620005956200051c565b620005aa601f8201601f191660200162000532565b818152846020838601011115620005c057600080fd5b816020850160208301376000918101602001919091529392505050565b600082601f830112620005ef57600080fd5b8135602067ffffffffffffffff8211156200060e576200060e6200051c565b8160051b6200061f82820162000532565b92835284810182019282810190878511156200063a57600080fd5b83870192505b8483101562000664576200065483620004e1565b8252918301919083019062000640565b979650505050505050565b803561ffff81168114620004f957600080fd5b600080600080608085870312156200069957600080fd5b843567ffffffffffffffff80821115620006b257600080fd5b620006c08883890162000566565b95506020870135915080821115620006d757600080fd5b50620006e687828801620005dd565b935050620006f7604086016200066f565b9150606085013580151581146200070d57600080fd5b939692955090935050565b6000806000606084860312156200072e57600080fd5b833567ffffffffffffffff808211156200074757600080fd5b620007558783880162000566565b945060208601359150808211156200076c57600080fd5b506200077b86828701620005dd565b9250506200078c604085016200066f565b90509250925092565b600060208284031215620007a857600080fd5b5035919050565b60008060408385031215620007c357600080fd5b620007ce83620004e1565b946020939093013593505050565b634e487b7160e01b600052602160045260246000fd5b60208101600283106200081557634e487b7160e01b600052602160045260246000fd5b91905290565b600081518084526020808501945080840160005b83811015620008565781516001600160a01b0316875295820195908201906001016200082f565b509495945050505050565b6080815260006200087660808301876200047d565b82810360208401526200088a81876200081b565b61ffff959095166040840152505090151560609091015292915050565b606081526000620008bc60608301866200047d565b8281036020840152620008d081866200081b565b91505061ffff83166040830152949350505050565b6000600182016200090657634e487b7160e01b600052601160045260246000fd5b5060010190565b6040815260006200092260408301856200047d565b82810360208401526200033b81856200081b56fe6101406040523480156200001257600080fd5b50604051620029bd380380620029bd8339810160408190526200003591620004fc565b838383826200005d60408051808201909152600681526518171817189960d11b602082015290565b60016000819055825160209384012082519284019290922060e08390526101008190524660a0818152604080517f8b73c3c69bb8fe3d512ecc4cf759cc79239f7b179b0ffacaa9a75d522b39400f818901819052818301979097526060810194909452608080850193909352308483018190528151808603909301835260c09485019091528151919096012090529290925261012052620000ff84826200068c565b50815161ffff8111156200016e5760405162461bcd60e51b815260206004820152602b60248201527f4d794d756c74695369673a2063616e6e6f7420616464206f776e65722061626f60448201526a766520325e3136202d203160a81b60648201526084015b60405180910390fd5b60005b81811015620001b057620001a784828151811062000193576200019362000758565b6020026020010151620001fe60201b60201c565b60010162000171565b5082516002805461ffff909216600160701b0261ffff60701b19909216919091179055620001de826200023d565b50506005805460ff191693151593909317909255506200076e9350505050565b6001600160a01b0381166000908152600860209081526040909120805460ff191660011790556200023a90829062000ff26200035c821b17901c565b50565b60008161ffff1611620002a85760405162461bcd60e51b815260206004820152602c60248201527f4d794d756c74695369673a207468726573686f6c64206d75737420626520677260448201526b06561746572207468616e20360a41b606482015260840162000165565b60025461ffff600160701b90910481169082161115620003315760405162461bcd60e51b815260206004820152603f60248201527f4d794d756c74695369673a207468726573686f6c64206d757374206265206c6560448201527f7373207468616e206f7220657175616c20746f206f776e657220636f756e7400606482015260840162000165565b6002805461ffff9092166c010000000000000000000000000261ffff60601b19909216919091179055565b6001600160a01b03811660009081526003602052604090205460ff1615620003c75760405162461bcd60e51b815260206004820181905260248201527f4d794d756c74695369673a206f776e657220616c726561647920657869737473604482015260640162000165565b6001600160a01b03166000908152600360205260409020805460ff19166001179055565b634e487b7160e01b600052604160045260246000fd5b604051601f8201601f191681016001600160401b03811182821017156200042c576200042c620003eb565b604052919050565b600082601f8301126200044657600080fd5b815160206001600160401b03821115620004645762000464620003eb565b8160051b6200047582820162000401565b92835284810182019282810190878511156200049057600080fd5b83870192505b84831015620004c85782516001600160a01b0381168114620004b85760008081fd5b8252918301919083019062000496565b979650505050505050565b805161ffff81168114620004e657600080fd5b919050565b80518015158114620004e657600080fd5b600080600080608085870312156200051357600080fd5b84516001600160401b03808211156200052b57600080fd5b818701915087601f8301126200054057600080fd5b815181811115620005555762000555620003eb565b60206200056b601f8301601f1916820162000401565b8281528a828487010111156200058057600080fd5b60005b83811015620005a057858101830151828201840152820162000583565b506000928101820192909252880151909650915080821115620005c257600080fd5b50620005d18782880162000434565b935050620005e260408601620004d3565b9150620005f260608601620004eb565b905092959194509250565b600181811c908216806200061257607f821691505b6020821081036200063357634e487b7160e01b600052602260045260246000fd5b50919050565b601f8211156200068757600081815260208120601f850160051c81016020861015620006625750805b601f850160051c820191505b8181101562000683578281556001016200066e565b5050505b505050565b81516001600160401b03811115620006a857620006a8620003eb565b620006c081620006b98454620005fd565b8462000639565b602080601f831160018114620006f85760008415620006df5750858301515b600019600386901b1c1916600185901b17855562000683565b600085815260208120601f198616915b82811015620007295788860151825594840194600190910190840162000708565b5085821015620007485787850151600019600388901b60f8161c191681555b5050505050600190811b01905550565b634e487b7160e01b600052603260045260246000fd5b60805160a05160c05160e05161010051610120516121ff620007be600039600061171701526000611766015260006117410152600061169a015260006116c4015260006116ee01526121ff6000f3fe60806040526004361061016a5760003560e01c80637065cb48116100d1578063b3be0be51161008a578063c1367de811610064578063c1367de814610483578063e20056e6146104a3578063f0daceac146104c3578063fb15426f146104d657600080fd5b8063b3be0be51461043b578063b574ba8614610450578063b9a708001461047057600080fd5b80637065cb481461037b578063802ddaec1461039b578063850f132a146103bb578063a457b8c1146103db578063ac0dfcec146103fb578063affed0e01461041357600080fd5b80635112298811610123578063511229881461026e57806354fd4d501461029c57806355d04d8c146102cb5780635d00bb1214610316578063627cdcb914610346578063636db94f1461035b57600080fd5b806306fdde03146101765780630db02622146101a1578063173825d9146101d05780632f54bf6e146101f257806342cde4e81461023b57806347892cd61461025b57600080fd5b3661017157005b600080fd5b34801561018257600080fd5b5061018b6104f6565b6040516101989190611ae1565b60405180910390f35b3480156101ad57600080fd5b50600254600160701b900461ffff165b60405161ffff9091168152602001610198565b3480156101dc57600080fd5b506101f06101eb366004611b17565b610588565b005b3480156101fe57600080fd5b5061022b61020d366004611b17565b6001600160a01b031660009081526003602052604090205460ff1690565b6040519015158152602001610198565b34801561024757600080fd5b50600254600160601b900461ffff166101bd565b61022b610269366004611be9565b6105bc565b34801561027a57600080fd5b5061028e610289366004611c79565b6105ea565b604051908152602001610198565b3480156102a857600080fd5b5060408051808201909152600681526518171817189960d11b602082015261018b565b3480156102d757600080fd5b506102eb6102e6366004611b17565b61067a565b604080518251815260208084015190820152918101516001600160a01b031690820152606001610198565b34801561032257600080fd5b5061022b610331366004611ce2565b60009081526009602052604090205460ff1690565b34801561035257600080fd5b506101f06106eb565b34801561036757600080fd5b506101f0610376366004611ce2565b61074a565b34801561038757600080fd5b506101f0610396366004611b17565b6107fe565b3480156103a757600080fd5b506101f06103b6366004611cfb565b610897565b3480156103c757600080fd5b506101f06103d6366004611ce2565b6108c9565b3480156103e757600080fd5b506101f06103f6366004611b17565b610903565b34801561040757600080fd5b5060055460ff1661022b565b34801561041f57600080fd5b506002546040516001600160601b039091168152602001610198565b34801561044757600080fd5b5060065461028e565b34801561045c57600080fd5b506101f061046b366004611d1d565b610aec565b61022b61047e366004611d41565b610b14565b34801561048f57600080fd5b5061022b61049e366004611be9565b610bcd565b3480156104af57600080fd5b506101f06104be366004611dc9565b610cc4565b61022b6104d1366004611f00565b610ced565b3480156104e257600080fd5b506101f06104f1366004612009565b610dbb565b6060600180546105059061202c565b80601f01602080910402602001604051908101604052809291908181526020018280546105319061202c565b801561057e5780601f106105535761010080835404028352916020019161057e565b820191906000526020600020905b81548152906001019060200180831161056157829003601f168201915b5050505050905090565b3330146105b05760405162461bcd60e51b81526004016105a790612066565b60405180910390fd5b6105b98161107f565b50565b60006105c66110c3565b6105d487878787878761111c565b90506105e06001600055565b9695505050505050565b8251602080850191909120604080517f42b6a910722fe0bb1f5f1c9e9bb93ac603940a0d8b64406bbf37307e7a4f6c4c938101939093526001600160a01b0388169083015260608201869052608082015260a0810183905260c0810182905260009061066e9060e001604051602081830303815290604052805190602001206112da565b90505b95945050505050565b6106a76040518060600160405280600081526020016000815260200160006001600160a01b031681525090565b506001600160a01b03908116600090815260076020908152604091829020825160608101845281548152600182015492810192909252600201549092169082015290565b33301461070a5760405162461bcd60e51b81526004016105a790612066565b600280546001600160601b0316906000610723836120d1565b91906101000a8154816001600160601b0302191690836001600160601b0316021790555050565b3330146107695760405162461bcd60e51b81526004016105a790612066565b62093a808110156107f95760405162461bcd60e51b815260206004820152604e60248201527f4d794d756c7469536967457874656e6465643a207472616e73666572496e616360448201527f746976654f776e6572736869704166746572206d75737420626520677265617460648201526d6572207468616e2037206461797360901b608482015260a4016105a7565b600655565b33301461081d5760405162461bcd60e51b81526004016105a790612066565b60025461ffff600160701b90910481161061088e5760405162461bcd60e51b815260206004820152602b60248201527f4d794d756c74695369673a2063616e6e6f7420616464206f776e65722061626f60448201526a766520325e3136202d203160a81b60648201526084016105a7565b6105b98161132e565b3330146108b65760405162461bcd60e51b81526004016105a790612066565b6005805460ff1916911515919091179055565b3330146108e85760405162461bcd60e51b81526004016105a790612066565b6000908152600960205260409020805460ff19166001179055565b6001600160a01b03811660009081526003602052604090205460ff1661097d5760405162461bcd60e51b815260206004820152602960248201527f4d794d756c7469536967457874656e6465643a206f776e6572206973206e6f746044820152681030b71037bbb732b960b91b60648201526084016105a7565b6001600160a01b03808216600090815260076020908152604091829020825160608101845281548152600182015492810192909252600201549092169082018190523314610a295760405162461bcd60e51b815260206004820152603360248201527f4d794d756c7469536967457874656e6465643a206d73672e73656e646572206960448201527273206e6f74207468652064656c65676174656560681b60648201526084016105a7565b602081015181514291610a3b916120f7565b10610a9a5760405162461bcd60e51b815260206004820152602960248201527f4d794d756c7469536967457874656e6465643a206f776e6572206973207374696044820152686c6c2061637469766560b81b60648201526084016105a7565b6001600160a01b038216600090815260076020526040808220600290810180546001600160a01b03199081169091553380855292909320428155018054909216909155610ae890839061135a565b5050565b333014610b0b5760405162461bcd60e51b81526004016105a790612066565b6105b98161139a565b6000610b1e6110c3565b600254610b3c9087908790879087906001600160601b03168761111c565b6002549091506bfffffffffffffffffffffc186001600160601b039091161115610bc357600254600190610b7d906001600160601b0316600160601b61210a565b610b87919061210a565b6cffffffffffffffffffffffffff167f4f464fb2cead651d13579db94eddf92d1842f753f89c47c704292d2b7d17591760405160405180910390a25b6106716001600055565b600254600090600160601b900461ffff16610be9816041612137565b61ffff1683511015610bff5760009150506105e0565b6002546000908190610c21908b908b908b908b906001600160601b03166105ea565b905060005b8361ffff168161ffff161015610cb357610c418287836114ac565b6001600160a01b03811660009081526003602052604090205490935060ff161580610c9957506002546001600160601b031667ffffffffffffffff60601b606085901b160160009081526004602052604090205460ff165b15610cab5760009450505050506105e0565b600101610c26565b5060019a9950505050505050505050565b333014610ce35760405162461bcd60e51b81526004016105a790612066565b610ae8828261135a565b6000333014610d0e5760405162461bcd60e51b81526004016105a790612066565b845160005b81811015610db1576000878281518110610d2f57610d2f61215d565b602002602001015190506000878381518110610d4d57610d4d61215d565b602002602001015190506000878481518110610d6b57610d6b61215d565b602002602001015190506000878581518110610d8957610d8961215d565b60200260200101519050600080835160208501868886f1965084600101945050505050610d13565b5050949350505050565b6006548211610e6f5760405162461bcd60e51b815260206004820152606e60248201527f4d794d756c7469536967457874656e6465643a207472616e73666572496e616360448201527f746976654f776e6572736869704166746572206d75737420626520677265617460648201527f6572207468616e205f6d696e696d756d7472616e73666572496e61637469766560848201526d27bbb732b939b434b820b33a32b960911b60a482015260c4016105a7565b6001600160a01b038116610eeb5760405162461bcd60e51b815260206004820152603860248201527f4d794d756c7469536967457874656e6465643a2064656c65676174656520636160448201527f6e6e6f7420626520746865207a65726f2061646472657373000000000000000060648201526084016105a7565b6001600160a01b03811660009081526008602052604090205460ff1615610f7a5760405162461bcd60e51b815260206004820152603e60248201527f4d794d756c7469536967457874656e6465643a2064656c65676174656520697360448201527f20616c726561647920616e206f776e6572206f722064656c656761746565000060648201526084016105a7565b6040805160608101825242815260208082019485526001600160a01b03938416828401818152336000908152600784528581209451855596516001808601919091559051600290940180546001600160a01b03191694909616939093179094559284526008909252909120805460ff19169091179055565b6001600160a01b03811660009081526003602052604090205460ff161561105b5760405162461bcd60e51b815260206004820181905260248201527f4d794d756c74695369673a206f776e657220616c72656164792065786973747360448201526064016105a7565b6001600160a01b03166000908152600360205260409020805460ff19166001179055565b6001600160a01b0381166000908152600860209081526040808320805460ff191690556007909152902060020180546001600160a01b03191690556105b98161152e565b6002600054036111155760405162461bcd60e51b815260206004820152601f60248201527f5265656e7472616e637947756172643a207265656e7472616e742063616c6c0060448201526064016105a7565b6002600055565b600061112c878787878787611604565b6111785760405162461bcd60e51b815260206004820152601e60248201527f4d794d756c74695369673a20696e76616c6964207369676e617475726573000060448201526064016105a7565b600280546001600160601b0316906000611191836120d1565b91906101000a8154816001600160601b0302191690836001600160601b031602179055505060005a90506000808751602089018a8c8af19150845a6111d69083612173565b106112235760405162461bcd60e51b815260206004820152601a60248201527f4d794d756c74695369673a206e6f7420656e6f7567682067617300000000000060448201526064016105a7565b811561127e5786886001600160a01b0316336001600160a01b03167fa3892e576025a09c244bf3831f1061b0fc657032178d85f48f1bc20c16c8effc89898960405161127193929190612186565b60405180910390a46112cf565b86886001600160a01b0316336001600160a01b03167f5a7ba054cf1cd70a4c0b73f114e33cf02e0ed0d5588caaa764cda47b728966a18989896040516112c693929190612186565b60405180910390a45b509695505050505050565b60006113286112e761168d565b8360405161190160f01b6020820152602281018390526042810182905260009060620160405160208183030381529060405280519060200120905092915050565b92915050565b6001600160a01b0381166000908152600860205260409020805460ff191660011790556105b981610ff2565b6001600160a01b03808316600090815260086020526040808220805460ff199081169091559284168252902080549091166001179055610ae882826117b4565b60008161ffff16116114035760405162461bcd60e51b815260206004820152602c60248201527f4d794d756c74695369673a207468726573686f6c64206d75737420626520677260448201526b06561746572207468616e20360a41b60648201526084016105a7565b60025461ffff600160701b9091048116908216111561148a5760405162461bcd60e51b815260206004820152603f60248201527f4d794d756c74695369673a207468726573686f6c64206d757374206265206c6560448201527f7373207468616e206f7220657175616c20746f206f776e657220636f756e740060648201526084016105a7565b6002805461ffff909216600160601b0261ffff60601b19909216919091179055565b6020604182810284018281015160408083015192909301518351600080825295810180865289905260ff909116938101849052606081018290526080810183905290919060019060a0016020604051602081039080840390855afa158015611518573d6000803e3d6000fd5b5050604051601f19015198975050505050505050565b60025461ffff600160601b82048116600160701b90920416116115ab5760405162461bcd60e51b815260206004820152602f60248201527f4d794d756c74695369673a2063616e6e6f742072656d6f7665206f776e65722060448201526e18995b1bddc81d1a1c995cda1bdb19608a1b60648201526084016105a7565b6001600160a01b0381166000908152600360205260409020805460ff1916905560028054600160701b900461ffff1690600e6115e6836121ab565b91906101000a81548161ffff021916908361ffff1602179055505050565b600254600090600160601b900461ffff16611620816041612137565b61ffff16835110156116365760009150506105e0565b6002546001600160601b03169350600061165389898989896105ea565b905060005b8261ffff168161ffff16101561167d5761167482868884611953565b50600101611658565b5060019998505050505050505050565b6000306001600160a01b037f0000000000000000000000000000000000000000000000000000000000000000161480156116e657507f000000000000000000000000000000000000000000000000000000000000000046145b1561171057507f000000000000000000000000000000000000000000000000000000000000000090565b50604080517f00000000000000000000000000000000000000000000000000000000000000006020808301919091527f0000000000000000000000000000000000000000000000000000000000000000828401527f000000000000000000000000000000000000000000000000000000000000000060608301524660808301523060a0808401919091528351808403909101815260c0909201909252805191012090565b6001600160a01b03821660009081526003602052604090205460ff1661182b5760405162461bcd60e51b815260206004820152602660248201527f4d794d756c74695369673a206f6c64206f776e6572206d75737420626520616e6044820152651037bbb732b960d11b60648201526084016105a7565b6001600160a01b03811660009081526003602052604090205460ff16156118a75760405162461bcd60e51b815260206004820152602a60248201527f4d794d756c74695369673a206e6577206f776e6572206d757374206e6f742062604482015269329030b71037bbb732b960b11b60648201526084016105a7565b6001600160a01b0381166119185760405162461bcd60e51b815260206004820152603260248201527f4d794d756c74695369673a206e6577206f776e6572206d757374206e6f7420626044820152716520746865207a65726f206164647265737360701b60648201526084016105a7565b6001600160a01b03918216600090815260036020526040808220805460ff199081169091559290931681529190912080549091166001179055565b600061196185858585611985565b6001600160a01b038116600090815260076020526040902042905595945050505050565b60006119928585846114ac565b6001600160a01b0381166000908152600360205260409020549091506001600160601b03841667ffffffffffffffff60601b606084901b16019060ff16611a1b5760405162461bcd60e51b815260206004820152601960248201527f4d794d756c74695369673a20696e76616c6964206f776e65720000000000000060448201526064016105a7565b60008181526004602052604090205460ff1615611a7a5760405162461bcd60e51b815260206004820181905260248201527f4d794d756c74695369673a206f776e657220616c7265616479207369676e656460448201526064016105a7565b6000908152600460205260409020805460ff19166001179055949350505050565b6000815180845260005b81811015611ac157602081850181015186830182015201611aa5565b506000602082860101526020601f19601f83011685010191505092915050565b602081526000611af46020830184611a9b565b9392505050565b80356001600160a01b0381168114611b1257600080fd5b919050565b600060208284031215611b2957600080fd5b611af482611afb565b634e487b7160e01b600052604160045260246000fd5b604051601f8201601f1916810167ffffffffffffffff81118282101715611b7157611b71611b32565b604052919050565b600082601f830112611b8a57600080fd5b813567ffffffffffffffff811115611ba457611ba4611b32565b611bb7601f8201601f1916602001611b48565b818152846020838601011115611bcc57600080fd5b816020850160208301376000918101602001919091529392505050565b60008060008060008060c08789031215611c0257600080fd5b611c0b87611afb565b955060208701359450604087013567ffffffffffffffff80821115611c2f57600080fd5b611c3b8a838b01611b79565b9550606089013594506080890135935060a0890135915080821115611c5f57600080fd5b50611c6c89828a01611b79565b9150509295509295509295565b600080600080600060a08688031215611c9157600080fd5b611c9a86611afb565b945060208601359350604086013567ffffffffffffffff811115611cbd57600080fd5b611cc988828901611b79565b9598949750949560608101359550608001359392505050565b600060208284031215611cf457600080fd5b5035919050565b600060208284031215611d0d57600080fd5b81358015158114611af457600080fd5b600060208284031215611d2f57600080fd5b813561ffff81168114611af457600080fd5b600080600080600060a08688031215611d5957600080fd5b611d6286611afb565b945060208601359350604086013567ffffffffffffffff80821115611d8657600080fd5b611d9289838a01611b79565b9450606088013593506080880135915080821115611daf57600080fd5b50611dbc88828901611b79565b9150509295509295909350565b60008060408385031215611ddc57600080fd5b611de583611afb565b9150611df360208401611afb565b90509250929050565b600067ffffffffffffffff821115611e1657611e16611b32565b5060051b60200190565b600082601f830112611e3157600080fd5b81356020611e46611e4183611dfc565b611b48565b82815260059290921b84018101918181019086841115611e6557600080fd5b8286015b848110156112cf5780358352918301918301611e69565b600082601f830112611e9157600080fd5b81356020611ea1611e4183611dfc565b82815260059290921b84018101918181019086841115611ec057600080fd5b8286015b848110156112cf57803567ffffffffffffffff811115611ee45760008081fd5b611ef28986838b0101611b79565b845250918301918301611ec4565b60008060008060808587031215611f1657600080fd5b843567ffffffffffffffff80821115611f2e57600080fd5b818701915087601f830112611f4257600080fd5b81356020611f52611e4183611dfc565b82815260059290921b8401810191818101908b841115611f7157600080fd5b948201945b83861015611f9657611f8786611afb565b82529482019490820190611f76565b98505088013592505080821115611fac57600080fd5b611fb888838901611e20565b94506040870135915080821115611fce57600080fd5b611fda88838901611e80565b93506060870135915080821115611ff057600080fd5b50611ffd87828801611e20565b91505092959194509250565b6000806040838503121561201c57600080fd5b82359150611df360208401611afb565b600181811c9082168061204057607f821691505b60208210810361206057634e487b7160e01b600052602260045260246000fd5b50919050565b60208082526035908201527f4d794d756c74695369673a206f6e6c79207468697320636f6e7472616374206360408201527430b71031b0b636103a3434b990333ab731ba34b7b760591b606082015260800190565b634e487b7160e01b600052601160045260246000fd5b60006001600160601b038083168181036120ed576120ed6120bb565b6001019392505050565b80820180821115611328576113286120bb565b6cffffffffffffffffffffffffff828116828216039080821115612130576121306120bb565b5092915050565b61ffff818116838216028082169190828114612155576121556120bb565b505092915050565b634e487b7160e01b600052603260045260246000fd5b81810381811115611328576113286120bb565b6060815260006121996060830186611a9b565b60208301949094525060400152919050565b600061ffff8216806121bf576121bf6120bb565b600019019291505056fea26469706673582212201f9ecd6f7d5cc1e60ee3a564693d787895783881f1c267d50f645b9f4d4a36d564736f6c634300081200336101406040523480156200001257600080fd5b506040516200203c3803806200203c833981016040819052620000359162000493565b826200005a60408051808201909152600681526518171817189960d11b602082015290565b60016000819055825160209384012082519284019290922060e08390526101008190524660a0818152604080517f8b73c3c69bb8fe3d512ecc4cf759cc79239f7b179b0ffacaa9a75d522b39400f818901819052818301979097526060810194909452608080850193909352308483018190528151808603909301835260c09485019091528151919096012090529290925261012052620000fc848262000610565b50815161ffff8111156200016b5760405162461bcd60e51b815260206004820152602b60248201527f4d794d756c74695369673a2063616e6e6f7420616464206f776e65722061626f60448201526a766520325e3136202d203160a81b60648201526084015b60405180910390fd5b60005b81811015620001ad57620001a4848281518110620001905762000190620006dc565b6020026020010151620001e560201b60201c565b6001016200016e565b5082516002805461ffff909216600160701b0261ffff60701b19909216919091179055620001db8262000274565b50505050620006f2565b6001600160a01b03811660009081526003602052604090205460ff1615620002505760405162461bcd60e51b815260206004820181905260248201527f4d794d756c74695369673a206f776e657220616c726561647920657869737473604482015260640162000162565b6001600160a01b03166000908152600360205260409020805460ff19166001179055565b60008161ffff1611620002df5760405162461bcd60e51b815260206004820152602c60248201527f4d794d756c74695369673a207468726573686f6c64206d75737420626520677260448201526b06561746572207468616e20360a41b606482015260840162000162565b60025461ffff600160701b90910481169082161115620003685760405162461bcd60e51b815260206004820152603f60248201527f4d794d756c74695369673a207468726573686f6c64206d757374206265206c6560448201527f7373207468616e206f7220657175616c20746f206f776e657220636f756e7400606482015260840162000162565b6002805461ffff9092166c010000000000000000000000000261ffff60601b19909216919091179055565b634e487b7160e01b600052604160045260246000fd5b604051601f8201601f191681016001600160401b0381118282101715620003d457620003d462000393565b604052919050565b600082601f830112620003ee57600080fd5b815160206001600160401b038211156200040c576200040c62000393565b8160051b6200041d828201620003a9565b92835284810182019282810190878511156200043857600080fd5b83870192505b84831015620004705782516001600160a01b0381168114620004605760008081fd5b825291830191908301906200043e565b979650505050505050565b805161ffff811681146200048e57600080fd5b919050565b600080600060608486031215620004a957600080fd5b83516001600160401b0380821115620004c157600080fd5b818601915086601f830112620004d657600080fd5b815181811115620004eb57620004eb62000393565b602062000501601f8301601f19168201620003a9565b82815289828487010111156200051657600080fd5b60005b838110156200053657858101830151828201840152820162000519565b5060009281018201929092528701519095509150808211156200055857600080fd5b506200056786828701620003dc565b92505062000578604085016200047b565b90509250925092565b600181811c908216806200059657607f821691505b602082108103620005b757634e487b7160e01b600052602260045260246000fd5b50919050565b601f8211156200060b57600081815260208120601f850160051c81016020861015620005e65750805b601f850160051c820191505b818110156200060757828155600101620005f2565b5050505b505050565b81516001600160401b038111156200062c576200062c62000393565b62000644816200063d845462000581565b84620005bd565b602080601f8311600181146200067c5760008415620006635750858301515b600019600386901b1c1916600185901b17855562000607565b600085815260208120601f198616915b82811015620006ad578886015182559484019460019091019084016200068c565b5085821015620006cc5787850151600019600388901b60f8161c191681555b5050505050600190811b01905550565b634e487b7160e01b600052603260045260246000fd5b60805160a05160c05160e05161010051610120516118fa620007426000396000610fcb0152600061101a01526000610ff501526000610f4e01526000610f7801526000610fa201526118fa6000f3fe6080604052600436106100ec5760003560e01c8063627cdcb91161008a578063b9a7080011610059578063b9a70800146102b7578063c1367de8146102ca578063e20056e6146102ea578063f0daceac1461030a57600080fd5b8063627cdcb91461023a5780637065cb481461024f578063affed0e01461026f578063b574ba861461029757600080fd5b80632f54bf6e116100c65780632f54bf6e1461017457806342cde4e8146101bd57806351122988146101dd57806354fd4d501461020b57600080fd5b806306fdde03146100f85780630db0262214610123578063173825d91461015257600080fd5b366100f357005b600080fd5b34801561010457600080fd5b5061010d61031d565b60405161011a919061124d565b60405180910390f35b34801561012f57600080fd5b50600254600160701b900461ffff165b60405161ffff909116815260200161011a565b34801561015e57600080fd5b5061017261016d366004611283565b6103af565b005b34801561018057600080fd5b506101ad61018f366004611283565b6001600160a01b031660009081526003602052604090205460ff1690565b604051901515815260200161011a565b3480156101c957600080fd5b50600254600160601b900461ffff1661013f565b3480156101e957600080fd5b506101fd6101f8366004611355565b6103e3565b60405190815260200161011a565b34801561021757600080fd5b5060408051808201909152600681526518171817189960d11b602082015261010d565b34801561024657600080fd5b50610172610473565b34801561025b57600080fd5b5061017261026a366004611283565b6104d2565b34801561027b57600080fd5b506002546040516001600160601b03909116815260200161011a565b3480156102a357600080fd5b506101726102b23660046113be565b61056b565b6101ad6102c53660046113e2565b610593565b3480156102d657600080fd5b506101ad6102e536600461146a565b61064c565b3480156102f657600080fd5b506101726103053660046114fa565b610745565b6101ad610318366004611631565b610772565b60606001805461032c9061173a565b80601f01602080910402602001604051908101604052809291908181526020018280546103589061173a565b80156103a55780601f1061037a576101008083540402835291602001916103a5565b820191906000526020600020905b81548152906001019060200180831161038857829003601f168201915b5050505050905090565b3330146103d75760405162461bcd60e51b81526004016103ce90611774565b60405180910390fd5b6103e081610840565b50565b8251602080850191909120604080517f42b6a910722fe0bb1f5f1c9e9bb93ac603940a0d8b64406bbf37307e7a4f6c4c938101939093526001600160a01b0388169083015260608201869052608082015260a0810183905260c081018290526000906104679060e00160405160208183030381529060405280519060200120610916565b90505b95945050505050565b3330146104925760405162461bcd60e51b81526004016103ce90611774565b600280546001600160601b03169060006104ab836117df565b91906101000a8154816001600160601b0302191690836001600160601b0316021790555050565b3330146104f15760405162461bcd60e51b81526004016103ce90611774565b60025461ffff600160701b9091048116106105625760405162461bcd60e51b815260206004820152602b60248201527f4d794d756c74695369673a2063616e6e6f7420616464206f776e65722061626f60448201526a766520325e3136202d203160a81b60648201526084016103ce565b6103e08161096a565b33301461058a5760405162461bcd60e51b81526004016103ce90611774565b6103e0816109f7565b600061059d610b09565b6002546105bb9087908790879087906001600160601b031687610b62565b6002549091506bfffffffffffffffffffffc186001600160601b039091161115610642576002546001906105fc906001600160601b0316600160601b611805565b6106069190611805565b6cffffffffffffffffffffffffff167f4f464fb2cead651d13579db94eddf92d1842f753f89c47c704292d2b7d17591760405160405180910390a25b61046a6001600055565b600254600090600160601b900461ffff16610668816041611832565b61ffff168351101561067e57600091505061073b565b60025460009081906106a0908b908b908b908b906001600160601b03166103e3565b905060005b8361ffff168161ffff161015610732576106c0828783610d20565b6001600160a01b03811660009081526003602052604090205490935060ff16158061071857506002546001600160601b031667ffffffffffffffff60601b606085901b160160009081526004602052604090205460ff165b1561072a57600094505050505061073b565b6001016106a5565b50600193505050505b9695505050505050565b3330146107645760405162461bcd60e51b81526004016103ce90611774565b61076e8282610da2565b5050565b60003330146107935760405162461bcd60e51b81526004016103ce90611774565b845160005b818110156108365760008782815181106107b4576107b4611858565b6020026020010151905060008783815181106107d2576107d2611858565b6020026020010151905060008784815181106107f0576107f0611858565b60200260200101519050600087858151811061080e5761080e611858565b60200260200101519050600080835160208501868886f1965084600101945050505050610798565b5050949350505050565b60025461ffff600160601b82048116600160701b90920416116108bd5760405162461bcd60e51b815260206004820152602f60248201527f4d794d756c74695369673a2063616e6e6f742072656d6f7665206f776e65722060448201526e18995b1bddc81d1a1c995cda1bdb19608a1b60648201526084016103ce565b6001600160a01b0381166000908152600360205260409020805460ff1916905560028054600160701b900461ffff1690600e6108f88361186e565b91906101000a81548161ffff021916908361ffff1602179055505050565b6000610964610923610f41565b8360405161190160f01b6020820152602281018390526042810182905260009060620160405160208183030381529060405280519060200120905092915050565b92915050565b6001600160a01b03811660009081526003602052604090205460ff16156109d35760405162461bcd60e51b815260206004820181905260248201527f4d794d756c74695369673a206f776e657220616c72656164792065786973747360448201526064016103ce565b6001600160a01b03166000908152600360205260409020805460ff19166001179055565b60008161ffff1611610a605760405162461bcd60e51b815260206004820152602c60248201527f4d794d756c74695369673a207468726573686f6c64206d75737420626520677260448201526b06561746572207468616e20360a41b60648201526084016103ce565b60025461ffff600160701b90910481169082161115610ae75760405162461bcd60e51b815260206004820152603f60248201527f4d794d756c74695369673a207468726573686f6c64206d757374206265206c6560448201527f7373207468616e206f7220657175616c20746f206f776e657220636f756e740060648201526084016103ce565b6002805461ffff909216600160601b0261ffff60601b19909216919091179055565b600260005403610b5b5760405162461bcd60e51b815260206004820152601f60248201527f5265656e7472616e637947756172643a207265656e7472616e742063616c6c0060448201526064016103ce565b6002600055565b6000610b72878787878787611068565b610bbe5760405162461bcd60e51b815260206004820152601e60248201527f4d794d756c74695369673a20696e76616c6964207369676e617475726573000060448201526064016103ce565b600280546001600160601b0316906000610bd7836117df565b91906101000a8154816001600160601b0302191690836001600160601b031602179055505060005a90506000808751602089018a8c8af19150845a610c1c908361188c565b10610c695760405162461bcd60e51b815260206004820152601a60248201527f4d794d756c74695369673a206e6f7420656e6f7567682067617300000000000060448201526064016103ce565b8115610cc45786886001600160a01b0316336001600160a01b03167fa3892e576025a09c244bf3831f1061b0fc657032178d85f48f1bc20c16c8effc898989604051610cb79392919061189f565b60405180910390a4610d15565b86886001600160a01b0316336001600160a01b03167f5a7ba054cf1cd70a4c0b73f114e33cf02e0ed0d5588caaa764cda47b728966a1898989604051610d0c9392919061189f565b60405180910390a45b509695505050505050565b6020604182810284018281015160408083015192909301518351600080825295810180865289905260ff909116938101849052606081018290526080810183905290919060019060a0016020604051602081039080840390855afa158015610d8c573d6000803e3d6000fd5b5050604051601f19015198975050505050505050565b6001600160a01b03821660009081526003602052604090205460ff16610e195760405162461bcd60e51b815260206004820152602660248201527f4d794d756c74695369673a206f6c64206f776e6572206d75737420626520616e6044820152651037bbb732b960d11b60648201526084016103ce565b6001600160a01b03811660009081526003602052604090205460ff1615610e955760405162461bcd60e51b815260206004820152602a60248201527f4d794d756c74695369673a206e6577206f776e6572206d757374206e6f742062604482015269329030b71037bbb732b960b11b60648201526084016103ce565b6001600160a01b038116610f065760405162461bcd60e51b815260206004820152603260248201527f4d794d756c74695369673a206e6577206f776e6572206d757374206e6f7420626044820152716520746865207a65726f206164647265737360701b60648201526084016103ce565b6001600160a01b03918216600090815260036020526040808220805460ff199081169091559290931681529190912080549091166001179055565b6000306001600160a01b037f000000000000000000000000000000000000000000000000000000000000000016148015610f9a57507f000000000000000000000000000000000000000000000000000000000000000046145b15610fc457507f000000000000000000000000000000000000000000000000000000000000000090565b50604080517f00000000000000000000000000000000000000000000000000000000000000006020808301919091527f0000000000000000000000000000000000000000000000000000000000000000828401527f000000000000000000000000000000000000000000000000000000000000000060608301524660808301523060a0808401919091528351808403909101815260c0909201909252805191012090565b600254600090600160601b900461ffff16611084816041611832565b61ffff168351101561109a57600091505061073b565b6002546001600160601b0316935060006110b789898989896103e3565b905060005b8261ffff168161ffff1610156110e1576110d8828688846110f1565b506001016110bc565b5060019998505050505050505050565b60006110fe858584610d20565b6001600160a01b0381166000908152600360205260409020549091506001600160601b03841667ffffffffffffffff60601b606084901b16019060ff166111875760405162461bcd60e51b815260206004820152601960248201527f4d794d756c74695369673a20696e76616c6964206f776e65720000000000000060448201526064016103ce565b60008181526004602052604090205460ff16156111e65760405162461bcd60e51b815260206004820181905260248201527f4d794d756c74695369673a206f776e657220616c7265616479207369676e656460448201526064016103ce565b6000908152600460205260409020805460ff19166001179055949350505050565b6000815180845260005b8181101561122d57602081850181015186830182015201611211565b506000602082860101526020601f19601f83011685010191505092915050565b6020815260006112606020830184611207565b9392505050565b80356001600160a01b038116811461127e57600080fd5b919050565b60006020828403121561129557600080fd5b61126082611267565b634e487b7160e01b600052604160045260246000fd5b604051601f8201601f1916810167ffffffffffffffff811182821017156112dd576112dd61129e565b604052919050565b600082601f8301126112f657600080fd5b813567ffffffffffffffff8111156113105761131061129e565b611323601f8201601f19166020016112b4565b81815284602083860101111561133857600080fd5b816020850160208301376000918101602001919091529392505050565b600080600080600060a0868803121561136d57600080fd5b61137686611267565b945060208601359350604086013567ffffffffffffffff81111561139957600080fd5b6113a5888289016112e5565b9598949750949560608101359550608001359392505050565b6000602082840312156113d057600080fd5b813561ffff8116811461126057600080fd5b600080600080600060a086880312156113fa57600080fd5b61140386611267565b945060208601359350604086013567ffffffffffffffff8082111561142757600080fd5b61143389838a016112e5565b945060608801359350608088013591508082111561145057600080fd5b5061145d888289016112e5565b9150509295509295909350565b60008060008060008060c0878903121561148357600080fd5b61148c87611267565b955060208701359450604087013567ffffffffffffffff808211156114b057600080fd5b6114bc8a838b016112e5565b9550606089013594506080890135935060a08901359150808211156114e057600080fd5b506114ed89828a016112e5565b9150509295509295509295565b6000806040838503121561150d57600080fd5b61151683611267565b915061152460208401611267565b90509250929050565b600067ffffffffffffffff8211156115475761154761129e565b5060051b60200190565b600082601f83011261156257600080fd5b813560206115776115728361152d565b6112b4565b82815260059290921b8401810191818101908684111561159657600080fd5b8286015b84811015610d15578035835291830191830161159a565b600082601f8301126115c257600080fd5b813560206115d26115728361152d565b82815260059290921b840181019181810190868411156115f157600080fd5b8286015b84811015610d1557803567ffffffffffffffff8111156116155760008081fd5b6116238986838b01016112e5565b8452509183019183016115f5565b6000806000806080858703121561164757600080fd5b843567ffffffffffffffff8082111561165f57600080fd5b818701915087601f83011261167357600080fd5b813560206116836115728361152d565b82815260059290921b8401810191818101908b8411156116a257600080fd5b948201945b838610156116c7576116b886611267565b825294820194908201906116a7565b985050880135925050808211156116dd57600080fd5b6116e988838901611551565b945060408701359150808211156116ff57600080fd5b61170b888389016115b1565b9350606087013591508082111561172157600080fd5b5061172e87828801611551565b91505092959194509250565b600181811c9082168061174e57607f821691505b60208210810361176e57634e487b7160e01b600052602260045260246000fd5b50919050565b60208082526035908201527f4d794d756c74695369673a206f6e6c79207468697320636f6e7472616374206360408201527430b71031b0b636103a3434b990333ab731ba34b7b760591b606082015260800190565b634e487b7160e01b600052601160045260246000fd5b60006001600160601b038083168181036117fb576117fb6117c9565b6001019392505050565b6cffffffffffffffffffffffffff82811682821603908082111561182b5761182b6117c9565b5092915050565b61ffff818116838216028082169190828114611850576118506117c9565b505092915050565b634e487b7160e01b600052603260045260246000fd5b600061ffff821680611882576118826117c9565b6000190192915050565b81810381811115610964576109646117c9565b6060815260006118b26060830186611207565b6020830194909452506040015291905056fea2646970667358221220159b680dc70d748bd1069f1943a437a9743a5de690255dfd60232e94ddeb509d64736f6c63430008120033a264697066735822122056758891d30e383da6a30ceebaaf100475392523d785d177185a0c5690a9e31f64736f6c63430008120033",
	"deployedBytecode": "0x60806040526004361061004e5760003560e01c80633659cfe6146100655780634f1ef286146100855780635c60da1b146100ae5780638f283970146100db578063f851a440146100fb5761005d565b3661005d5761005b610110565b005b61005b610110565b34801561007157600080fd5b5061005b61008036600461051d565b6101c8565b610098610093366004610538565b61020e565b6040516100a591906105bb565b60405180910390f35b3480156100ba57600080fd5b506100c361033e565b6040516001600160a01b0390911681526020016100a5565b3480156100e757600080fd5b5061005b6100f636600461051d565b6103a9565b34801561010757600080fd5b506100c36103e4565b600061013a7f360894a13ba1a3210667c828492db98dca3e2076cc3735a920a3ca505d382bbc5490565b90506001600160a01b0381166101a55760405162461bcd60e51b815260206004820152602560248201527f50726f78793a20696d706c656d656e746174696f6e206e6f7420696e697469616044820152641b1a5e995960da1b60648201526084015b60405180910390fd5b3660008037600080366000845af43d6000803e806101c2573d6000fd5b503d6000f35b600080516020610621833981519152546001600160a01b0316336001600160a01b031614806101f5575033155b156102065761020381610432565b50565b610203610110565b60606102266000805160206106218339815191525490565b6001600160a01b0316336001600160a01b03161480610243575033155b1561032f5761025184610432565b600080856001600160a01b0316858560405161026e929190610610565b600060405180830381855af49150503d80600081146102a9576040519150601f19603f3d011682016040523d82523d6000602084013e6102ae565b606091505b5091509150816103265760405162461bcd60e51b815260206004820152603960248201527f50726f78793a2064656c656761746563616c6c20746f206e657720696d706c6560448201527f6d656e746174696f6e20636f6e7472616374206661696c656400000000000000606482015260840161019c565b91506103379050565b610337610110565b9392505050565b60006103566000805160206106218339815191525490565b6001600160a01b0316336001600160a01b03161480610373575033155b1561039e57507f360894a13ba1a3210667c828492db98dca3e2076cc3735a920a3ca505d382bbc5490565b6103a6610110565b90565b600080516020610621833981519152546001600160a01b0316336001600160a01b031614806103d6575033155b15610206576102038161048d565b60006103fc6000805160206106218339815191525490565b6001600160a01b0316336001600160a01b03161480610419575033155b1561039e57506000805160206106218339815191525490565b7f360894a13ba1a3210667c828492db98dca3e2076cc3735a920a3ca505d382bbc8190556040516001600160a01b038216907fbc7cd75a20ee27fd9adebab32041f755214dbc6bffa90cc0225b39da2e5c2d3b90600090a250565b60006104a56000805160206106218339815191525490565b600080516020610621833981519152839055604080516001600160a01b038084168252851660208201529192507f7e644d79422f17c01e4894b5f4f588d331ebfa28653d42ae832dc59e38c9798f910160405180910390a15050565b80356001600160a01b038116811461051857600080fd5b919050565b60006020828403121561052f57600080fd5b61033782610501565b60008060006040848603121561054d57600080fd5b61055684610501565b9250602084013567ffffffffffffffff8082111561057357600080fd5b818601915086601f83011261058757600080fd5b81358181111561059657600080fd5b8760208285010111156105a857600080fd5b6020830194508093505050509250925092565b600060208083528351808285015260005b818110156105e8578581018301518582016040015282016105cc565b818111156105fa576000604083870101525b50601f01601f1916929092016040019392505050565b818382376000910190815291905056feb53127684a568b3173ae13b9f8a6016e243e63b6e8ee1178d6a717850b5d6103a164736f6c634300080f000a",
	"devdoc": {
		"kind": "dev",
		"methods": {
			"createMultiSig(string,address[],uint16)": {
				"params": {
					"contractName": "The name of your multisig contract",
					"owners": "The owners list",
					"threshold": "The amount of owners signature require to execute transactions"
				}
			},
			"createMyMultiSigExtended(string,address[],uint16,bool)": {
				"params": {
					"contractName": "The name of your multisig contract",
					"owners": "The owners list",
					"threshold": "The amount of owners signature require to execute transactions"
				}
			},
			"creationType(uint256)": {
				"params": {
					"index": "The index of the multisig"
				},
				"returns": {
					"_0": "The type of multisig contract as a MyMultiSigFactorableModels.CreationType."
				}
			},
			"multiSig(uint256)": {
				"params": {
					"index": "The index of the multisig"
				},
				"returns": {
					"_0": "The current amount value as a uint256."
				}
			},
			"multiSigByCreator(address,uint256)": {
				"params": {
					"creator": "The creator of the multisig contract",
					"index": "The index of the multisig"
				},
				"returns": {
					"_0": "The current amount value as a uint256."
				}
			},
			"multiSigCount()": {
				"returns": {
					"_0": "The current amount value as a uint256."
				}
			},
			"multiSigCreatorCount(address)": {
				"params": {
					"creator": "The creator of the multisig contract"
				},
				"returns": {
					"_0": "The current amount value as a uint256."
				}
			},
			"name()": {
				"returns": {
					"_0": "The name as a string memory."
				}
			},
			"version()": {
				"returns": {
					"_0": "The version as a string memory."
				}
			}
		},
		"version": 1
	},
	"userdoc": {
		"kind": "user",
		"methods": {
			"createMultiSig(string,address[],uint16)": {
				"notice": "Creates a new multisig contract"
			},
			"createMyMultiSigExtended(string,address[],uint16,bool)": {
				"notice": "Creates a new multisig contract with extended features"
			},
			"creationType(uint256)": {
				"notice": "Retrieves the type of multisig contract created via this Factory contract"
			},
			"multiSig(uint256)": {
				"notice": "Retrieves a multisig by it's index"
			},
			"multiSigByCreator(address,uint256)": {
				"notice": "Retrieves a multisig created by a specific creator by it's index"
			},
			"multiSigCount()": {
				"notice": "Retrieves the amount of multisig contract created via this Factory contract"
			},
			"multiSigCreatorCount(address)": {
				"notice": "Retrieves the amount of multisig contract created via this Factory contract by a specific creator"
			},
			"name()": {
				"notice": "Retrieves the contract name"
			},
			"version()": {
				"notice": "Retrieves the contract version"
			}
		},
		"version": 1
	},
	"storageLayout": {
		"storage": [
			{
				"astId": 4887,
				"contract": "contracts/MyMultiSigFactoryWithChugSplash.sol:MyMultiSigFactoryWithChugSplash",
				"label": "_multiSigCount",
				"offset": 0,
				"slot": "0",
				"type": "t_uint256"
			},
			{
				"astId": 4892,
				"contract": "contracts/MyMultiSigFactoryWithChugSplash.sol:MyMultiSigFactoryWithChugSplash",
				"label": "_multiSigs",
				"offset": 0,
				"slot": "1",
				"type": "t_mapping(t_uint256,t_contract(MyMultiSig)4439)"
			},
			{
				"astId": 4896,
				"contract": "contracts/MyMultiSigFactoryWithChugSplash.sol:MyMultiSigFactoryWithChugSplash",
				"label": "_multiSigIndex",
				"offset": 0,
				"slot": "2",
				"type": "t_mapping(t_address,t_uint256)"
			},
			{
				"astId": 4900,
				"contract": "contracts/MyMultiSigFactoryWithChugSplash.sol:MyMultiSigFactoryWithChugSplash",
				"label": "_multiSigCreatorCount",
				"offset": 0,
				"slot": "3",
				"type": "t_mapping(t_address,t_uint256)"
			},
			{
				"astId": 4906,
				"contract": "contracts/MyMultiSigFactoryWithChugSplash.sol:MyMultiSigFactoryWithChugSplash",
				"label": "_multiSigIndexByCreator",
				"offset": 0,
				"slot": "4",
				"type": "t_mapping(t_address,t_mapping(t_uint256,t_uint256))"
			},
			{
				"astId": 4911,
				"contract": "contracts/MyMultiSigFactoryWithChugSplash.sol:MyMultiSigFactoryWithChugSplash",
				"label": "_multiSigCreationType",
				"offset": 0,
				"slot": "5",
				"type": "t_mapping(t_uint256,t_enum(CreationType)5172)"
			}
		],
		"types": {
			"t_address": {
				"encoding": "inplace",
				"label": "address",
				"numberOfBytes": "20"
			},
			"t_contract(MyMultiSig)4439": {
				"encoding": "inplace",
				"label": "contract MyMultiSig",
				"numberOfBytes": "20"
			},
			"t_enum(CreationType)5172": {
				"encoding": "inplace",
				"label": "enum MyMultiSigFactorableModels.CreationType",
				"numberOfBytes": "1",
				"members": [
					"SIMPLE",
					"EXTENDED"
				]
			},
			"t_mapping(t_address,t_mapping(t_uint256,t_uint256))": {
				"encoding": "mapping",
				"key": "t_address",
				"label": "mapping(address => mapping(uint256 => uint256))",
				"numberOfBytes": "32",
				"value": "t_mapping(t_uint256,t_uint256)"
			},
			"t_mapping(t_address,t_uint256)": {
				"encoding": "mapping",
				"key": "t_address",
				"label": "mapping(address => uint256)",
				"numberOfBytes": "32",
				"value": "t_uint256"
			},
			"t_mapping(t_uint256,t_contract(MyMultiSig)4439)": {
				"encoding": "mapping",
				"key": "t_uint256",
				"label": "mapping(uint256 => contract MyMultiSig)",
				"numberOfBytes": "32",
				"value": "t_contract(MyMultiSig)4439"
			},
			"t_mapping(t_uint256,t_enum(CreationType)5172)": {
				"encoding": "mapping",
				"key": "t_uint256",
				"label": "mapping(uint256 => enum MyMultiSigFactorableModels.CreationType)",
				"numberOfBytes": "32",
				"value": "t_enum(CreationType)5172"
			},
			"t_mapping(t_uint256,t_uint256)": {
				"encoding": "mapping",
				"key": "t_uint256",
				"label": "mapping(uint256 => uint256)",
				"numberOfBytes": "32",
				"value": "t_uint256"
			},
			"t_uint256": {
				"encoding": "inplace",
				"label": "uint256",
				"numberOfBytes": "32"
			}
		}
	}
}