{
	"contractName": "MyMultiSigFactoryWithChugSplash",
	"address": "0xEa168E3097b9D2ac4C8eB077B706d8bE35304aA4",
	"abi": [
		{
			"anonymous": false,
			"inputs": [
				{
					"indexed": true,
					"internalType": "address",
					"name": "creator",
					"type": "address"
				},
				{
					"indexed": true,
					"internalType": "address",
					"name": "contractAddress",
					"type": "address"
				},
				{
					"indexed": true,
					"internalType": "uint256",
					"name": "contractIndex",
					"type": "uint256"
				},
				{
					"indexed": false,
					"internalType": "string",
					"name": "contractName",
					"type": "string"
				},
				{
					"indexed": false,
					"internalType": "address[]",
					"name": "originalOwners",
					"type": "address[]"
				}
			],
			"name": "MyMultiSigCreated",
			"type": "event"
		},
		{
			"inputs": [
				{
					"internalType": "string",
					"name": "contractName",
					"type": "string"
				},
				{
					"internalType": "address[]",
					"name": "owners",
					"type": "address[]"
				},
				{
					"internalType": "uint16",
					"name": "threshold",
					"type": "uint16"
				}
			],
			"name": "createMultiSig",
			"outputs": [
				{
					"internalType": "address",
					"name": "contractAddress",
					"type": "address"
				}
			],
			"stateMutability": "payable",
			"type": "function"
		},
		{
			"inputs": [
				{
					"internalType": "string",
					"name": "contractName",
					"type": "string"
				},
				{
					"internalType": "address[]",
					"name": "owners",
					"type": "address[]"
				},
				{
					"internalType": "uint16",
					"name": "threshold",
					"type": "uint16"
				},
				{
					"internalType": "bool",
					"name": "isOnlyOwnerRequest",
					"type": "bool"
				}
			],
			"name": "createMyMultiSigExtended",
			"outputs": [
				{
					"internalType": "address",
					"name": "contractAddress",
					"type": "address"
				}
			],
			"stateMutability": "payable",
			"type": "function"
		},
		{
			"inputs": [
				{
					"internalType": "uint256",
					"name": "index",
					"type": "uint256"
				}
			],
			"name": "creationType",
			"outputs": [
				{
					"internalType": "enum MyMultiSigFactorableModels.CreationType",
					"name": "",
					"type": "uint8"
				}
			],
			"stateMutability": "view",
			"type": "function"
		},
		{
			"inputs": [
				{
					"internalType": "uint256",
					"name": "index",
					"type": "uint256"
				}
			],
			"name": "multiSig",
			"outputs": [
				{
					"internalType": "address",
					"name": "",
					"type": "address"
				}
			],
			"stateMutability": "view",
			"type": "function"
		},
		{
			"inputs": [
				{
					"internalType": "address",
					"name": "creator",
					"type": "address"
				},
				{
					"internalType": "uint256",
					"name": "index",
					"type": "uint256"
				}
			],
			"name": "multiSigByCreator",
			"outputs": [
				{
					"internalType": "address",
					"name": "",
					"type": "address"
				}
			],
			"stateMutability": "view",
			"type": "function"
		},
		{
			"inputs": [],
			"name": "multiSigCount",
			"outputs": [
				{
					"internalType": "uint256",
					"name": "",
					"type": "uint256"
				}
			],
			"stateMutability": "view",
			"type": "function"
		},
		{
			"inputs": [
				{
					"internalType": "address",
					"name": "creator",
					"type": "address"
				}
			],
			"name": "multiSigCreatorCount",
			"outputs": [
				{
					"internalType": "uint256",
					"name": "",
					"type": "uint256"
				}
			],
			"stateMutability": "view",
			"type": "function"
		},
		{
			"inputs": [],
			"name": "name",
			"outputs": [
				{
					"internalType": "string",
					"name": "",
					"type": "string"
				}
			],
			"stateMutability": "pure",
			"type": "function"
		},
		{
			"inputs": [],
			"name": "version",
			"outputs": [
				{
					"internalType": "string",
					"name": "",
					"type": "string"
				}
			],
			"stateMutability": "pure",
			"type": "function"
		}
	],
	"transactionHash": "0xaa01d488f35170de41375eb27f9d797b0df87eeecbeb6def3b9bdfd5acf0d090",
	"solcInputHash": "7eee89d449cb52870d4de4d82aa99a6c",
	"numDeployments": 1,
	"args": [],
	"bytecode": "0x608060405234801561001057600080fd5b5061511b806100206000396000f3fe608060405260043610620000915760003560e01c806364d1fe74116200006057806364d1fe7414620001765780636ffb90e614620001a657806374d4929514620001bd578063837186cd14620001f7578063957dd3ef146200024857600080fd5b806306fdde0314620000965780633c2b934714620000e557806341e69367146200012e57806354fd4d501462000145575b600080fd5b348015620000a357600080fd5b506040805180820190915260118152704d794d756c7469536967466163746f727960781b60208201525b604051620000dc9190620004c5565b60405180910390f35b348015620000f257600080fd5b506200011f62000104366004620004fe565b6001600160a01b031660009081526003602052604090205490565b604051908152602001620000dc565b3480156200013b57600080fd5b506000546200011f565b3480156200015257600080fd5b5060408051808201909152600681526518171817189960d11b6020820152620000cd565b6200018d6200018736600462000682565b6200028b565b6040516001600160a01b039091168152602001620000dc565b6200018d620001b736600462000718565b620002e9565b348015620001ca57600080fd5b506200018d620001dc36600462000795565b6000908152600160205260409020546001600160a01b031690565b3480156200020457600080fd5b506200018d62000216366004620007af565b6001600160a01b0391821660009081526004602090815260408083209383529281528282205482526001905220541690565b3480156200025557600080fd5b506200027c6200026736600462000795565b60009081526005602052604090205460ff1690565b604051620000dc9190620007f2565b60008085858585604051620002a09062000461565b620002af949392919062000861565b604051809103906000f080158015620002cc573d6000803e3d6000fd5b509050620002df60018288888862000344565b9695505050505050565b600080848484604051620002fd906200046f565b6200030b93929190620008a7565b604051809103906000f08015801562000328573d6000803e3d6000fd5b5090506200033b60008287878762000344565b95945050505050565b60008054815260016020908152604080832080546001600160a01b0319166001600160a01b0389169081179091558354908452600283528184208190553380855260048452828520600380865284872080548852918652938620929092558452915280548692909190620003b883620008e5565b9091555050600080548152600560205260409020805487919060ff191660018381811115620003eb57620003eb620007dc565b02179055506000805490806200040183620008e5565b9190505550600054816001600160a01b0316336001600160a01b03167f7743f89779aaa5e9101e8b91559905e9729070407384c5b3ee9a9159f4b502638787604051620004509291906200090d565b60405180910390a495945050505050565b61277c806200093783390190565b61203380620030b383390190565b6000815180845260005b81811015620004a55760208185018101518683018201520162000487565b506000602082860101526020601f19601f83011685010191505092915050565b602081526000620004da60208301846200047d565b9392505050565b80356001600160a01b0381168114620004f957600080fd5b919050565b6000602082840312156200051157600080fd5b620004da82620004e1565b634e487b7160e01b600052604160045260246000fd5b604051601f8201601f1916810167ffffffffffffffff811182821017156200055e576200055e6200051c565b604052919050565b600082601f8301126200057857600080fd5b813567ffffffffffffffff8111156200059557620005956200051c565b620005aa601f8201601f191660200162000532565b818152846020838601011115620005c057600080fd5b816020850160208301376000918101602001919091529392505050565b600082601f830112620005ef57600080fd5b8135602067ffffffffffffffff8211156200060e576200060e6200051c565b8160051b6200061f82820162000532565b92835284810182019282810190878511156200063a57600080fd5b83870192505b8483101562000664576200065483620004e1565b8252918301919083019062000640565b979650505050505050565b803561ffff81168114620004f957600080fd5b600080600080608085870312156200069957600080fd5b843567ffffffffffffffff80821115620006b257600080fd5b620006c08883890162000566565b95506020870135915080821115620006d757600080fd5b50620006e687828801620005dd565b935050620006f7604086016200066f565b9150606085013580151581146200070d57600080fd5b939692955090935050565b6000806000606084860312156200072e57600080fd5b833567ffffffffffffffff808211156200074757600080fd5b620007558783880162000566565b945060208601359150808211156200076c57600080fd5b506200077b86828701620005dd565b9250506200078c604085016200066f565b90509250925092565b600060208284031215620007a857600080fd5b5035919050565b60008060408385031215620007c357600080fd5b620007ce83620004e1565b946020939093013593505050565b634e487b7160e01b600052602160045260246000fd5b60208101600283106200081557634e487b7160e01b600052602160045260246000fd5b91905290565b600081518084526020808501945080840160005b83811015620008565781516001600160a01b0316875295820195908201906001016200082f565b509495945050505050565b6080815260006200087660808301876200047d565b82810360208401526200088a81876200081b565b61ffff959095166040840152505090151560609091015292915050565b606081526000620008bc60608301866200047d565b8281036020840152620008d081866200081b565b91505061ffff83166040830152949350505050565b6000600182016200090657634e487b7160e01b600052601160045260246000fd5b5060010190565b6040815260006200092260408301856200047d565b82810360208401526200033b81856200081b56fe6101406040523480156200001257600080fd5b506040516200277c3803806200277c8339810160408190526200003591620004bd565b838383826200005d60408051808201909152600681526518171817189960d11b602082015290565b60016000819055825160209384012082519284019290922060e08390526101008190524660a0818152604080517f8b73c3c69bb8fe3d512ecc4cf759cc79239f7b179b0ffacaa9a75d522b39400f818901819052818301979097526060810194909452608080850193909352308483018190528151808603909301835260c09485019091528151919096012090529290925261012052620000ff84826200064d565b50815161ffff8111156200016e5760405162461bcd60e51b815260206004820152602b60248201527f4d794d756c74695369673a2063616e6e6f7420616464206f776e65722061626f60448201526a766520325e3136202d203160a81b60648201526084015b60405180910390fd5b60005b81811015620001b057620001a784828151811062000193576200019362000719565b6020026020010151620001fe60201b60201c565b60010162000171565b5082516002805461ffff909216600160701b0261ffff60701b19909216919091179055620001de826200028d565b50506005805460ff191693151593909317909255506200072f9350505050565b6001600160a01b03811660009081526003602052604090205460ff1615620002695760405162461bcd60e51b815260206004820181905260248201527f4d794d756c74695369673a206f776e657220616c726561647920657869737473604482015260640162000165565b6001600160a01b03166000908152600360205260409020805460ff19166001179055565b60008161ffff1611620002f85760405162461bcd60e51b815260206004820152602c60248201527f4d794d756c74695369673a207468726573686f6c64206d75737420626520677260448201526b06561746572207468616e20360a41b606482015260840162000165565b60025461ffff600160701b90910481169082161115620003815760405162461bcd60e51b815260206004820152603f60248201527f4d794d756c74695369673a207468726573686f6c64206d757374206265206c6560448201527f7373207468616e206f7220657175616c20746f206f776e657220636f756e7400606482015260840162000165565b6002805461ffff9092166c010000000000000000000000000261ffff60601b19909216919091179055565b634e487b7160e01b600052604160045260246000fd5b604051601f8201601f191681016001600160401b0381118282101715620003ed57620003ed620003ac565b604052919050565b600082601f8301126200040757600080fd5b815160206001600160401b03821115620004255762000425620003ac565b8160051b62000436828201620003c2565b92835284810182019282810190878511156200045157600080fd5b83870192505b84831015620004895782516001600160a01b0381168114620004795760008081fd5b8252918301919083019062000457565b979650505050505050565b805161ffff81168114620004a757600080fd5b919050565b80518015158114620004a757600080fd5b60008060008060808587031215620004d457600080fd5b84516001600160401b0380821115620004ec57600080fd5b818701915087601f8301126200050157600080fd5b815181811115620005165762000516620003ac565b60206200052c601f8301601f19168201620003c2565b8281528a828487010111156200054157600080fd5b60005b838110156200056157858101830151828201840152820162000544565b5060009281018201929092528801519096509150808211156200058357600080fd5b506200059287828801620003f5565b935050620005a36040860162000494565b9150620005b360608601620004ac565b905092959194509250565b600181811c90821680620005d357607f821691505b602082108103620005f457634e487b7160e01b600052602260045260246000fd5b50919050565b601f8211156200064857600081815260208120601f850160051c81016020861015620006235750805b601f850160051c820191505b8181101562000644578281556001016200062f565b5050505b505050565b81516001600160401b03811115620006695762000669620003ac565b62000681816200067a8454620005be565b84620005fa565b602080601f831160018114620006b95760008415620006a05750858301515b600019600386901b1c1916600185901b17855562000644565b600085815260208120601f198616915b82811015620006ea57888601518255948401946001909101908401620006c9565b5085821015620007095787850151600019600388901b60f8161c191681555b5050505050600190811b01905550565b634e487b7160e01b600052603260045260246000fd5b60805160a05160c05160e0516101005161012051611ffd6200077f60003960006116b401526000611703015260006116de01526000611637015260006116610152600061168b0152611ffd6000f3fe6080604052600436106101395760003560e01c8063802ddaec116100ab578063b574ba861161006f578063b574ba861461038f578063b9a70800146103af578063c1367de8146103c2578063e20056e6146103e2578063f0daceac14610402578063fb15426f1461041557600080fd5b8063802ddaec146102ef578063850f132a1461030f578063a457b8c11461032f578063ac0dfcec1461034f578063affed0e01461036757600080fd5b806347892cd6116100fd57806347892cd61461022a578063511229881461023d57806354fd4d501461026b578063627cdcb91461029a5780637065cb48146102af5780637abd523e146102cf57600080fd5b806306fdde03146101455780630db0262214610170578063173825d91461019f5780632f54bf6e146101c157806342cde4e81461020a57600080fd5b3661014057005b600080fd5b34801561015157600080fd5b5061015a610435565b60405161016791906118df565b60405180910390f35b34801561017c57600080fd5b50600254600160701b900461ffff165b60405161ffff9091168152602001610167565b3480156101ab57600080fd5b506101bf6101ba366004611915565b6104c7565b005b3480156101cd57600080fd5b506101fa6101dc366004611915565b6001600160a01b031660009081526003602052604090205460ff1690565b6040519015158152602001610167565b34801561021657600080fd5b50600254600160601b900461ffff1661018c565b6101fa6102383660046119e7565b6105c5565b34801561024957600080fd5b5061025d610258366004611a77565b6105f3565b604051908152602001610167565b34801561027757600080fd5b5060408051808201909152600681526518171817189960d11b602082015261015a565b3480156102a657600080fd5b506101bf610683565b3480156102bb57600080fd5b506101bf6102ca366004611915565b6106e2565b3480156102db57600080fd5b506101bf6102ea366004611ae0565b61077e565b3480156102fb57600080fd5b506101bf61030a366004611af9565b610831565b34801561031b57600080fd5b506101bf61032a366004611ae0565b610863565b34801561033b57600080fd5b506101bf61034a366004611915565b61089d565b34801561035b57600080fd5b5060055460ff166101fa565b34801561037357600080fd5b506002546040516001600160601b039091168152602001610167565b34801561039b57600080fd5b506101bf6103aa366004611b1b565b610a53565b6101fa6103bd366004611b3f565b610a7b565b3480156103ce57600080fd5b506101fa6103dd3660046119e7565b610b34565b3480156103ee57600080fd5b506101bf6103fd366004611bc7565b610c2b565b6101fa610410366004611cfe565b610c54565b34801561042157600080fd5b506101bf610430366004611e07565b610d22565b60606001805461044490611e2a565b80601f016020809104026020016040519081016040528092919081815260200182805461047090611e2a565b80156104bd5780601f10610492576101008083540402835291602001916104bd565b820191906000526020600020905b8154815290600101906020018083116104a057829003601f168201915b5050505050905090565b3330146104ef5760405162461bcd60e51b81526004016104e690611e64565b60405180910390fd5b60025461ffff600160601b82048116600160701b909204161161056c5760405162461bcd60e51b815260206004820152602f60248201527f4d794d756c74695369673a2063616e6e6f742072656d6f7665206f776e65722060448201526e18995b1bddc81d1a1c995cda1bdb19608a1b60648201526084016104e6565b6001600160a01b0381166000908152600360205260409020805460ff1916905560028054600160701b900461ffff1690600e6105a783611ecf565b91906101000a81548161ffff021916908361ffff1602179055505050565b60006105cf610f76565b6105dd878787878787610fcf565b90506105e96001600055565b9695505050505050565b8251602080850191909120604080517f42b6a910722fe0bb1f5f1c9e9bb93ac603940a0d8b64406bbf37307e7a4f6c4c938101939093526001600160a01b0388169083015260608201869052608082015260a0810183905260c081018290526000906106779060e0016040516020818303038152906040528051906020012061118d565b90505b95945050505050565b3330146106a25760405162461bcd60e51b81526004016104e690611e64565b600280546001600160601b03169060006106bb83611eed565b91906101000a8154816001600160601b0302191690836001600160601b0316021790555050565b3330146107015760405162461bcd60e51b81526004016104e690611e64565b60025461ffff600160701b9091048116106107725760405162461bcd60e51b815260206004820152602b60248201527f4d794d756c74695369673a2063616e6e6f7420616464206f776e65722061626f60448201526a766520325e3136202d203160a81b60648201526084016104e6565b61077b816111e1565b50565b33301461079d5760405162461bcd60e51b81526004016104e690611e64565b62093a8081101561082c5760405162461bcd60e51b815260206004820152604d60248201527f4d794d756c7469536967457874656e6465643a207472616e666572496e61637460448201527f6976654f776e6572736869704166746572206d7573742062652067726561746560648201526c72207468616e2037206461797360981b608482015260a4016104e6565b600655565b3330146108505760405162461bcd60e51b81526004016104e690611e64565b6005805460ff1916911515919091179055565b3330146108825760405162461bcd60e51b81526004016104e690611e64565b6000908152600960205260409020805460ff19166001179055565b6001600160a01b038082166000908152600760209081526040918290208251606081018452815481526001820154928101929092526002015490921690820181905233146109495760405162461bcd60e51b815260206004820152603360248201527f4d794d756c7469536967457874656e6465643a206d73672e73656e646572206960448201527273206e6f74207468652064656c65676174656560681b60648201526084016104e6565b60208101518151429161095b91611f13565b106109ba5760405162461bcd60e51b815260206004820152602960248201527f4d794d756c7469536967457874656e6465643a206f776e6572206973207374696044820152686c6c2061637469766560b81b60648201526084016104e6565b6001600160a01b038281166000908152600860209081526040808320805460ff199081169091553380855282852080549092166001908117909255825160608101845242815287850151818601908152818501878152838852600790965293909520945185559151908401559051600290920180546001600160a01b0319169290931691909117909155610a4f90839061126e565b5050565b333014610a725760405162461bcd60e51b81526004016104e690611e64565b61077b8161140d565b6000610a85610f76565b600254610aa39087908790879087906001600160601b031687610fcf565b6002549091506bfffffffffffffffffffffc186001600160601b039091161115610b2a57600254600190610ae4906001600160601b0316600160601b611f26565b610aee9190611f26565b6cffffffffffffffffffffffffff167f4f464fb2cead651d13579db94eddf92d1842f753f89c47c704292d2b7d17591760405160405180910390a25b61067a6001600055565b600254600090600160601b900461ffff16610b50816041611f53565b61ffff1683511015610b665760009150506105e9565b6002546000908190610b88908b908b908b908b906001600160601b03166105f3565b905060005b8361ffff168161ffff161015610c1a57610ba882878361151f565b6001600160a01b03811660009081526003602052604090205490935060ff161580610c0057506002546001600160601b031667ffffffffffffffff60601b606085901b160160009081526004602052604090205460ff165b15610c125760009450505050506105e9565b600101610b8d565b5060019a9950505050505050505050565b333014610c4a5760405162461bcd60e51b81526004016104e690611e64565b610a4f828261126e565b6000333014610c755760405162461bcd60e51b81526004016104e690611e64565b845160005b81811015610d18576000878281518110610c9657610c96611f79565b602002602001015190506000878381518110610cb457610cb4611f79565b602002602001015190506000878481518110610cd257610cd2611f79565b602002602001015190506000878581518110610cf057610cf0611f79565b60200260200101519050600080835160208501868886f1965084600101945050505050610c7a565b5050949350505050565b333014610d415760405162461bcd60e51b81526004016104e690611e64565b6006548211610df35760405162461bcd60e51b815260206004820152606c60248201527f4d794d756c7469536967457874656e6465643a207472616e666572496e61637460448201527f6976654f776e6572736869704166746572206d7573742062652067726561746560648201527f72207468616e205f6d696e696d756d5472616e666572496e6163746976654f7760848201526b3732b939b434b820b33a32b960a11b60a482015260c4016104e6565b6001600160a01b038116610e6f5760405162461bcd60e51b815260206004820152603860248201527f4d794d756c7469536967457874656e6465643a2064656c65676174656520636160448201527f6e6e6f7420626520746865207a65726f2061646472657373000000000000000060648201526084016104e6565b6001600160a01b03811660009081526008602052604090205460ff1615610efe5760405162461bcd60e51b815260206004820152603e60248201527f4d794d756c7469536967457874656e6465643a2064656c65676174656520697360448201527f20616c726561647920616e206f776e6572206f722064656c656761746565000060648201526084016104e6565b6040805160608101825242815260208082019485526001600160a01b03938416828401818152336000908152600784528581209451855596516001808601919091559051600290940180546001600160a01b03191694909616939093179094559284526008909252909120805460ff19169091179055565b600260005403610fc85760405162461bcd60e51b815260206004820152601f60248201527f5265656e7472616e637947756172643a207265656e7472616e742063616c6c0060448201526064016104e6565b6002600055565b6000610fdf8787878787876115a1565b61102b5760405162461bcd60e51b815260206004820152601e60248201527f4d794d756c74695369673a20696e76616c6964207369676e617475726573000060448201526064016104e6565b600280546001600160601b031690600061104483611eed565b91906101000a8154816001600160601b0302191690836001600160601b031602179055505060005a90506000808751602089018a8c8af19150845a6110899083611f8f565b106110d65760405162461bcd60e51b815260206004820152601a60248201527f4d794d756c74695369673a206e6f7420656e6f7567682067617300000000000060448201526064016104e6565b81156111315786886001600160a01b0316336001600160a01b03167fa3892e576025a09c244bf3831f1061b0fc657032178d85f48f1bc20c16c8effc89898960405161112493929190611fa2565b60405180910390a4611182565b86886001600160a01b0316336001600160a01b03167f5a7ba054cf1cd70a4c0b73f114e33cf02e0ed0d5588caaa764cda47b728966a189898960405161117993929190611fa2565b60405180910390a45b509695505050505050565b60006111db61119a61162a565b8360405161190160f01b6020820152602281018390526042810182905260009060620160405160208183030381529060405280519060200120905092915050565b92915050565b6001600160a01b03811660009081526003602052604090205460ff161561124a5760405162461bcd60e51b815260206004820181905260248201527f4d794d756c74695369673a206f776e657220616c72656164792065786973747360448201526064016104e6565b6001600160a01b03166000908152600360205260409020805460ff19166001179055565b6001600160a01b03821660009081526003602052604090205460ff166112e55760405162461bcd60e51b815260206004820152602660248201527f4d794d756c74695369673a206f6c64206f776e6572206d75737420626520616e6044820152651037bbb732b960d11b60648201526084016104e6565b6001600160a01b03811660009081526003602052604090205460ff16156113615760405162461bcd60e51b815260206004820152602a60248201527f4d794d756c74695369673a206e6577206f776e6572206d757374206e6f742062604482015269329030b71037bbb732b960b11b60648201526084016104e6565b6001600160a01b0381166113d25760405162461bcd60e51b815260206004820152603260248201527f4d794d756c74695369673a206e6577206f776e6572206d757374206e6f7420626044820152716520746865207a65726f206164647265737360701b60648201526084016104e6565b6001600160a01b03918216600090815260036020526040808220805460ff199081169091559290931681529190912080549091166001179055565b60008161ffff16116114765760405162461bcd60e51b815260206004820152602c60248201527f4d794d756c74695369673a207468726573686f6c64206d75737420626520677260448201526b06561746572207468616e20360a41b60648201526084016104e6565b60025461ffff600160701b909104811690821611156114fd5760405162461bcd60e51b815260206004820152603f60248201527f4d794d756c74695369673a207468726573686f6c64206d757374206265206c6560448201527f7373207468616e206f7220657175616c20746f206f776e657220636f756e740060648201526084016104e6565b6002805461ffff909216600160601b0261ffff60601b19909216919091179055565b6020604182810284018281015160408083015192909301518351600080825295810180865289905260ff909116938101849052606081018290526080810183905290919060019060a0016020604051602081039080840390855afa15801561158b573d6000803e3d6000fd5b5050604051601f19015198975050505050505050565b600254600090600160601b900461ffff166115bd816041611f53565b61ffff16835110156115d35760009150506105e9565b6002546001600160601b0316935060006115f089898989896105f3565b905060005b8261ffff168161ffff16101561161a5761161182868884611751565b506001016115f5565b5060019998505050505050505050565b6000306001600160a01b037f00000000000000000000000000000000000000000000000000000000000000001614801561168357507f000000000000000000000000000000000000000000000000000000000000000046145b156116ad57507f000000000000000000000000000000000000000000000000000000000000000090565b50604080517f00000000000000000000000000000000000000000000000000000000000000006020808301919091527f0000000000000000000000000000000000000000000000000000000000000000828401527f000000000000000000000000000000000000000000000000000000000000000060608301524660808301523060a0808401919091528351808403909101815260c0909201909252805191012090565b600061175f85858585611783565b6001600160a01b038116600090815260076020526040902042905595945050505050565b600061179085858461151f565b6001600160a01b0381166000908152600360205260409020549091506001600160601b03841667ffffffffffffffff60601b606084901b16019060ff166118195760405162461bcd60e51b815260206004820152601960248201527f4d794d756c74695369673a20696e76616c6964206f776e65720000000000000060448201526064016104e6565b60008181526004602052604090205460ff16156118785760405162461bcd60e51b815260206004820181905260248201527f4d794d756c74695369673a206f776e657220616c7265616479207369676e656460448201526064016104e6565b6000908152600460205260409020805460ff19166001179055949350505050565b6000815180845260005b818110156118bf576020818501810151868301820152016118a3565b506000602082860101526020601f19601f83011685010191505092915050565b6020815260006118f26020830184611899565b9392505050565b80356001600160a01b038116811461191057600080fd5b919050565b60006020828403121561192757600080fd5b6118f2826118f9565b634e487b7160e01b600052604160045260246000fd5b604051601f8201601f1916810167ffffffffffffffff8111828210171561196f5761196f611930565b604052919050565b600082601f83011261198857600080fd5b813567ffffffffffffffff8111156119a2576119a2611930565b6119b5601f8201601f1916602001611946565b8181528460208386010111156119ca57600080fd5b816020850160208301376000918101602001919091529392505050565b60008060008060008060c08789031215611a0057600080fd5b611a09876118f9565b955060208701359450604087013567ffffffffffffffff80821115611a2d57600080fd5b611a398a838b01611977565b9550606089013594506080890135935060a0890135915080821115611a5d57600080fd5b50611a6a89828a01611977565b9150509295509295509295565b600080600080600060a08688031215611a8f57600080fd5b611a98866118f9565b945060208601359350604086013567ffffffffffffffff811115611abb57600080fd5b611ac788828901611977565b9598949750949560608101359550608001359392505050565b600060208284031215611af257600080fd5b5035919050565b600060208284031215611b0b57600080fd5b813580151581146118f257600080fd5b600060208284031215611b2d57600080fd5b813561ffff811681146118f257600080fd5b600080600080600060a08688031215611b5757600080fd5b611b60866118f9565b945060208601359350604086013567ffffffffffffffff80821115611b8457600080fd5b611b9089838a01611977565b9450606088013593506080880135915080821115611bad57600080fd5b50611bba88828901611977565b9150509295509295909350565b60008060408385031215611bda57600080fd5b611be3836118f9565b9150611bf1602084016118f9565b90509250929050565b600067ffffffffffffffff821115611c1457611c14611930565b5060051b60200190565b600082601f830112611c2f57600080fd5b81356020611c44611c3f83611bfa565b611946565b82815260059290921b84018101918181019086841115611c6357600080fd5b8286015b848110156111825780358352918301918301611c67565b600082601f830112611c8f57600080fd5b81356020611c9f611c3f83611bfa565b82815260059290921b84018101918181019086841115611cbe57600080fd5b8286015b8481101561118257803567ffffffffffffffff811115611ce25760008081fd5b611cf08986838b0101611977565b845250918301918301611cc2565b60008060008060808587031215611d1457600080fd5b843567ffffffffffffffff80821115611d2c57600080fd5b818701915087601f830112611d4057600080fd5b81356020611d50611c3f83611bfa565b82815260059290921b8401810191818101908b841115611d6f57600080fd5b948201945b83861015611d9457611d85866118f9565b82529482019490820190611d74565b98505088013592505080821115611daa57600080fd5b611db688838901611c1e565b94506040870135915080821115611dcc57600080fd5b611dd888838901611c7e565b93506060870135915080821115611dee57600080fd5b50611dfb87828801611c1e565b91505092959194509250565b60008060408385031215611e1a57600080fd5b82359150611bf1602084016118f9565b600181811c90821680611e3e57607f821691505b602082108103611e5e57634e487b7160e01b600052602260045260246000fd5b50919050565b60208082526035908201527f4d794d756c74695369673a206f6e6c79207468697320636f6e7472616374206360408201527430b71031b0b636103a3434b990333ab731ba34b7b760591b606082015260800190565b634e487b7160e01b600052601160045260246000fd5b600061ffff821680611ee357611ee3611eb9565b6000190192915050565b60006001600160601b03808316818103611f0957611f09611eb9565b6001019392505050565b808201808211156111db576111db611eb9565b6cffffffffffffffffffffffffff828116828216039080821115611f4c57611f4c611eb9565b5092915050565b61ffff818116838216028082169190828114611f7157611f71611eb9565b505092915050565b634e487b7160e01b600052603260045260246000fd5b818103818111156111db576111db611eb9565b606081526000611fb56060830186611899565b6020830194909452506040015291905056fea2646970667358221220f1d76fdde3d1b18f041adca2872b004afeb21da1f3b3c647e51cef8f014fd5c364736f6c634300081200336101406040523480156200001257600080fd5b506040516200203338038062002033833981016040819052620000359162000493565b826200005a60408051808201909152600681526518171817189960d11b602082015290565b60016000819055825160209384012082519284019290922060e08390526101008190524660a0818152604080517f8b73c3c69bb8fe3d512ecc4cf759cc79239f7b179b0ffacaa9a75d522b39400f818901819052818301979097526060810194909452608080850193909352308483018190528151808603909301835260c09485019091528151919096012090529290925261012052620000fc848262000610565b50815161ffff8111156200016b5760405162461bcd60e51b815260206004820152602b60248201527f4d794d756c74695369673a2063616e6e6f7420616464206f776e65722061626f60448201526a766520325e3136202d203160a81b60648201526084015b60405180910390fd5b60005b81811015620001ad57620001a4848281518110620001905762000190620006dc565b6020026020010151620001e560201b60201c565b6001016200016e565b5082516002805461ffff909216600160701b0261ffff60701b19909216919091179055620001db8262000274565b50505050620006f2565b6001600160a01b03811660009081526003602052604090205460ff1615620002505760405162461bcd60e51b815260206004820181905260248201527f4d794d756c74695369673a206f776e657220616c726561647920657869737473604482015260640162000162565b6001600160a01b03166000908152600360205260409020805460ff19166001179055565b60008161ffff1611620002df5760405162461bcd60e51b815260206004820152602c60248201527f4d794d756c74695369673a207468726573686f6c64206d75737420626520677260448201526b06561746572207468616e20360a41b606482015260840162000162565b60025461ffff600160701b90910481169082161115620003685760405162461bcd60e51b815260206004820152603f60248201527f4d794d756c74695369673a207468726573686f6c64206d757374206265206c6560448201527f7373207468616e206f7220657175616c20746f206f776e657220636f756e7400606482015260840162000162565b6002805461ffff9092166c010000000000000000000000000261ffff60601b19909216919091179055565b634e487b7160e01b600052604160045260246000fd5b604051601f8201601f191681016001600160401b0381118282101715620003d457620003d462000393565b604052919050565b600082601f830112620003ee57600080fd5b815160206001600160401b038211156200040c576200040c62000393565b8160051b6200041d828201620003a9565b92835284810182019282810190878511156200043857600080fd5b83870192505b84831015620004705782516001600160a01b0381168114620004605760008081fd5b825291830191908301906200043e565b979650505050505050565b805161ffff811681146200048e57600080fd5b919050565b600080600060608486031215620004a957600080fd5b83516001600160401b0380821115620004c157600080fd5b818601915086601f830112620004d657600080fd5b815181811115620004eb57620004eb62000393565b602062000501601f8301601f19168201620003a9565b82815289828487010111156200051657600080fd5b60005b838110156200053657858101830151828201840152820162000519565b5060009281018201929092528701519095509150808211156200055857600080fd5b506200056786828701620003dc565b92505062000578604085016200047b565b90509250925092565b600181811c908216806200059657607f821691505b602082108103620005b757634e487b7160e01b600052602260045260246000fd5b50919050565b601f8211156200060b57600081815260208120601f850160051c81016020861015620005e65750805b601f850160051c820191505b818110156200060757828155600101620005f2565b5050505b505050565b81516001600160401b038111156200062c576200062c62000393565b62000644816200063d845462000581565b84620005bd565b602080601f8311600181146200067c5760008415620006635750858301515b600019600386901b1c1916600185901b17855562000607565b600085815260208120601f198616915b82811015620006ad578886015182559484019460019091019084016200068c565b5085821015620006cc5787850151600019600388901b60f8161c191681555b5050505050600190811b01905550565b634e487b7160e01b600052603260045260246000fd5b60805160a05160c05160e05161010051610120516118f1620007426000396000610fc20152600061101101526000610fec01526000610f4501526000610f6f01526000610f9901526118f16000f3fe6080604052600436106100ec5760003560e01c8063627cdcb91161008a578063b9a7080011610059578063b9a70800146102b7578063c1367de8146102ca578063e20056e6146102ea578063f0daceac1461030a57600080fd5b8063627cdcb91461023a5780637065cb481461024f578063affed0e01461026f578063b574ba861461029757600080fd5b80632f54bf6e116100c65780632f54bf6e1461017457806342cde4e8146101bd57806351122988146101dd57806354fd4d501461020b57600080fd5b806306fdde03146100f85780630db0262214610123578063173825d91461015257600080fd5b366100f357005b600080fd5b34801561010457600080fd5b5061010d61031d565b60405161011a9190611244565b60405180910390f35b34801561012f57600080fd5b50600254600160701b900461ffff165b60405161ffff909116815260200161011a565b34801561015e57600080fd5b5061017261016d36600461127a565b6103af565b005b34801561018057600080fd5b506101ad61018f36600461127a565b6001600160a01b031660009081526003602052604090205460ff1690565b604051901515815260200161011a565b3480156101c957600080fd5b50600254600160601b900461ffff1661013f565b3480156101e957600080fd5b506101fd6101f836600461134c565b6104ad565b60405190815260200161011a565b34801561021757600080fd5b5060408051808201909152600681526518171817189960d11b602082015261010d565b34801561024657600080fd5b5061017261053d565b34801561025b57600080fd5b5061017261026a36600461127a565b61059c565b34801561027b57600080fd5b506002546040516001600160601b03909116815260200161011a565b3480156102a357600080fd5b506101726102b23660046113b5565b610638565b6101ad6102c53660046113d9565b610660565b3480156102d657600080fd5b506101ad6102e5366004611461565b610719565b3480156102f657600080fd5b506101726103053660046114f1565b610812565b6101ad610318366004611628565b61083f565b60606001805461032c90611731565b80601f016020809104026020016040519081016040528092919081815260200182805461035890611731565b80156103a55780601f1061037a576101008083540402835291602001916103a5565b820191906000526020600020905b81548152906001019060200180831161038857829003601f168201915b5050505050905090565b3330146103d75760405162461bcd60e51b81526004016103ce9061176b565b60405180910390fd5b60025461ffff600160601b82048116600160701b90920416116104545760405162461bcd60e51b815260206004820152602f60248201527f4d794d756c74695369673a2063616e6e6f742072656d6f7665206f776e65722060448201526e18995b1bddc81d1a1c995cda1bdb19608a1b60648201526084016103ce565b6001600160a01b0381166000908152600360205260409020805460ff1916905560028054600160701b900461ffff1690600e61048f836117d6565b91906101000a81548161ffff021916908361ffff1602179055505050565b8251602080850191909120604080517f42b6a910722fe0bb1f5f1c9e9bb93ac603940a0d8b64406bbf37307e7a4f6c4c938101939093526001600160a01b0388169083015260608201869052608082015260a0810183905260c081018290526000906105319060e0016040516020818303038152906040528051906020012061090d565b90505b95945050505050565b33301461055c5760405162461bcd60e51b81526004016103ce9061176b565b600280546001600160601b0316906000610575836117f4565b91906101000a8154816001600160601b0302191690836001600160601b0316021790555050565b3330146105bb5760405162461bcd60e51b81526004016103ce9061176b565b60025461ffff600160701b90910481161061062c5760405162461bcd60e51b815260206004820152602b60248201527f4d794d756c74695369673a2063616e6e6f7420616464206f776e65722061626f60448201526a766520325e3136202d203160a81b60648201526084016103ce565b61063581610961565b50565b3330146106575760405162461bcd60e51b81526004016103ce9061176b565b610635816109ee565b600061066a610b00565b6002546106889087908790879087906001600160601b031687610b59565b6002549091506bfffffffffffffffffffffc186001600160601b03909116111561070f576002546001906106c9906001600160601b0316600160601b61181a565b6106d3919061181a565b6cffffffffffffffffffffffffff167f4f464fb2cead651d13579db94eddf92d1842f753f89c47c704292d2b7d17591760405160405180910390a25b6105346001600055565b600254600090600160601b900461ffff16610735816041611847565b61ffff168351101561074b576000915050610808565b600254600090819061076d908b908b908b908b906001600160601b03166104ad565b905060005b8361ffff168161ffff1610156107ff5761078d828783610d17565b6001600160a01b03811660009081526003602052604090205490935060ff1615806107e557506002546001600160601b031667ffffffffffffffff60601b606085901b160160009081526004602052604090205460ff165b156107f7576000945050505050610808565b600101610772565b50600193505050505b9695505050505050565b3330146108315760405162461bcd60e51b81526004016103ce9061176b565b61083b8282610d99565b5050565b60003330146108605760405162461bcd60e51b81526004016103ce9061176b565b845160005b818110156109035760008782815181106108815761088161186d565b60200260200101519050600087838151811061089f5761089f61186d565b6020026020010151905060008784815181106108bd576108bd61186d565b6020026020010151905060008785815181106108db576108db61186d565b60200260200101519050600080835160208501868886f1965084600101945050505050610865565b5050949350505050565b600061095b61091a610f38565b8360405161190160f01b6020820152602281018390526042810182905260009060620160405160208183030381529060405280519060200120905092915050565b92915050565b6001600160a01b03811660009081526003602052604090205460ff16156109ca5760405162461bcd60e51b815260206004820181905260248201527f4d794d756c74695369673a206f776e657220616c72656164792065786973747360448201526064016103ce565b6001600160a01b03166000908152600360205260409020805460ff19166001179055565b60008161ffff1611610a575760405162461bcd60e51b815260206004820152602c60248201527f4d794d756c74695369673a207468726573686f6c64206d75737420626520677260448201526b06561746572207468616e20360a41b60648201526084016103ce565b60025461ffff600160701b90910481169082161115610ade5760405162461bcd60e51b815260206004820152603f60248201527f4d794d756c74695369673a207468726573686f6c64206d757374206265206c6560448201527f7373207468616e206f7220657175616c20746f206f776e657220636f756e740060648201526084016103ce565b6002805461ffff909216600160601b0261ffff60601b19909216919091179055565b600260005403610b525760405162461bcd60e51b815260206004820152601f60248201527f5265656e7472616e637947756172643a207265656e7472616e742063616c6c0060448201526064016103ce565b6002600055565b6000610b6987878787878761105f565b610bb55760405162461bcd60e51b815260206004820152601e60248201527f4d794d756c74695369673a20696e76616c6964207369676e617475726573000060448201526064016103ce565b600280546001600160601b0316906000610bce836117f4565b91906101000a8154816001600160601b0302191690836001600160601b031602179055505060005a90506000808751602089018a8c8af19150845a610c139083611883565b10610c605760405162461bcd60e51b815260206004820152601a60248201527f4d794d756c74695369673a206e6f7420656e6f7567682067617300000000000060448201526064016103ce565b8115610cbb5786886001600160a01b0316336001600160a01b03167fa3892e576025a09c244bf3831f1061b0fc657032178d85f48f1bc20c16c8effc898989604051610cae93929190611896565b60405180910390a4610d0c565b86886001600160a01b0316336001600160a01b03167f5a7ba054cf1cd70a4c0b73f114e33cf02e0ed0d5588caaa764cda47b728966a1898989604051610d0393929190611896565b60405180910390a45b509695505050505050565b6020604182810284018281015160408083015192909301518351600080825295810180865289905260ff909116938101849052606081018290526080810183905290919060019060a0016020604051602081039080840390855afa158015610d83573d6000803e3d6000fd5b5050604051601f19015198975050505050505050565b6001600160a01b03821660009081526003602052604090205460ff16610e105760405162461bcd60e51b815260206004820152602660248201527f4d794d756c74695369673a206f6c64206f776e6572206d75737420626520616e6044820152651037bbb732b960d11b60648201526084016103ce565b6001600160a01b03811660009081526003602052604090205460ff1615610e8c5760405162461bcd60e51b815260206004820152602a60248201527f4d794d756c74695369673a206e6577206f776e6572206d757374206e6f742062604482015269329030b71037bbb732b960b11b60648201526084016103ce565b6001600160a01b038116610efd5760405162461bcd60e51b815260206004820152603260248201527f4d794d756c74695369673a206e6577206f776e6572206d757374206e6f7420626044820152716520746865207a65726f206164647265737360701b60648201526084016103ce565b6001600160a01b03918216600090815260036020526040808220805460ff199081169091559290931681529190912080549091166001179055565b6000306001600160a01b037f000000000000000000000000000000000000000000000000000000000000000016148015610f9157507f000000000000000000000000000000000000000000000000000000000000000046145b15610fbb57507f000000000000000000000000000000000000000000000000000000000000000090565b50604080517f00000000000000000000000000000000000000000000000000000000000000006020808301919091527f0000000000000000000000000000000000000000000000000000000000000000828401527f000000000000000000000000000000000000000000000000000000000000000060608301524660808301523060a0808401919091528351808403909101815260c0909201909252805191012090565b600254600090600160601b900461ffff1661107b816041611847565b61ffff1683511015611091576000915050610808565b6002546001600160601b0316935060006110ae89898989896104ad565b905060005b8261ffff168161ffff1610156110d8576110cf828688846110e8565b506001016110b3565b5060019998505050505050505050565b60006110f5858584610d17565b6001600160a01b0381166000908152600360205260409020549091506001600160601b03841667ffffffffffffffff60601b606084901b16019060ff1661117e5760405162461bcd60e51b815260206004820152601960248201527f4d794d756c74695369673a20696e76616c6964206f776e65720000000000000060448201526064016103ce565b60008181526004602052604090205460ff16156111dd5760405162461bcd60e51b815260206004820181905260248201527f4d794d756c74695369673a206f776e657220616c7265616479207369676e656460448201526064016103ce565b6000908152600460205260409020805460ff19166001179055949350505050565b6000815180845260005b8181101561122457602081850181015186830182015201611208565b506000602082860101526020601f19601f83011685010191505092915050565b60208152600061125760208301846111fe565b9392505050565b80356001600160a01b038116811461127557600080fd5b919050565b60006020828403121561128c57600080fd5b6112578261125e565b634e487b7160e01b600052604160045260246000fd5b604051601f8201601f1916810167ffffffffffffffff811182821017156112d4576112d4611295565b604052919050565b600082601f8301126112ed57600080fd5b813567ffffffffffffffff81111561130757611307611295565b61131a601f8201601f19166020016112ab565b81815284602083860101111561132f57600080fd5b816020850160208301376000918101602001919091529392505050565b600080600080600060a0868803121561136457600080fd5b61136d8661125e565b945060208601359350604086013567ffffffffffffffff81111561139057600080fd5b61139c888289016112dc565b9598949750949560608101359550608001359392505050565b6000602082840312156113c757600080fd5b813561ffff8116811461125757600080fd5b600080600080600060a086880312156113f157600080fd5b6113fa8661125e565b945060208601359350604086013567ffffffffffffffff8082111561141e57600080fd5b61142a89838a016112dc565b945060608801359350608088013591508082111561144757600080fd5b50611454888289016112dc565b9150509295509295909350565b60008060008060008060c0878903121561147a57600080fd5b6114838761125e565b955060208701359450604087013567ffffffffffffffff808211156114a757600080fd5b6114b38a838b016112dc565b9550606089013594506080890135935060a08901359150808211156114d757600080fd5b506114e489828a016112dc565b9150509295509295509295565b6000806040838503121561150457600080fd5b61150d8361125e565b915061151b6020840161125e565b90509250929050565b600067ffffffffffffffff82111561153e5761153e611295565b5060051b60200190565b600082601f83011261155957600080fd5b8135602061156e61156983611524565b6112ab565b82815260059290921b8401810191818101908684111561158d57600080fd5b8286015b84811015610d0c5780358352918301918301611591565b600082601f8301126115b957600080fd5b813560206115c961156983611524565b82815260059290921b840181019181810190868411156115e857600080fd5b8286015b84811015610d0c57803567ffffffffffffffff81111561160c5760008081fd5b61161a8986838b01016112dc565b8452509183019183016115ec565b6000806000806080858703121561163e57600080fd5b843567ffffffffffffffff8082111561165657600080fd5b818701915087601f83011261166a57600080fd5b8135602061167a61156983611524565b82815260059290921b8401810191818101908b84111561169957600080fd5b948201945b838610156116be576116af8661125e565b8252948201949082019061169e565b985050880135925050808211156116d457600080fd5b6116e088838901611548565b945060408701359150808211156116f657600080fd5b611702888389016115a8565b9350606087013591508082111561171857600080fd5b5061172587828801611548565b91505092959194509250565b600181811c9082168061174557607f821691505b60208210810361176557634e487b7160e01b600052602260045260246000fd5b50919050565b60208082526035908201527f4d794d756c74695369673a206f6e6c79207468697320636f6e7472616374206360408201527430b71031b0b636103a3434b990333ab731ba34b7b760591b606082015260800190565b634e487b7160e01b600052601160045260246000fd5b600061ffff8216806117ea576117ea6117c0565b6000190192915050565b60006001600160601b03808316818103611810576118106117c0565b6001019392505050565b6cffffffffffffffffffffffffff828116828216039080821115611840576118406117c0565b5092915050565b61ffff818116838216028082169190828114611865576118656117c0565b505092915050565b634e487b7160e01b600052603260045260246000fd5b8181038181111561095b5761095b6117c0565b6060815260006118a960608301866111fe565b6020830194909452506040015291905056fea26469706673582212202c94f5f3bf674906d740e6d102a61676dd1e56cb420c8b6b35547e04ff15de9464736f6c63430008120033a2646970667358221220d172c3b27b1e6d2dad81dfa3760c0b5b56fc60901f7936a3724601a3321a27b164736f6c63430008120033",
	"deployedBytecode": "0x60806040526004361061004e5760003560e01c80633659cfe6146100655780634f1ef286146100855780635c60da1b146100ae5780638f283970146100db578063f851a440146100fb5761005d565b3661005d5761005b610110565b005b61005b610110565b34801561007157600080fd5b5061005b61008036600461051d565b6101c8565b610098610093366004610538565b61020e565b6040516100a591906105bb565b60405180910390f35b3480156100ba57600080fd5b506100c361033e565b6040516001600160a01b0390911681526020016100a5565b3480156100e757600080fd5b5061005b6100f636600461051d565b6103a9565b34801561010757600080fd5b506100c36103e4565b600061013a7f360894a13ba1a3210667c828492db98dca3e2076cc3735a920a3ca505d382bbc5490565b90506001600160a01b0381166101a55760405162461bcd60e51b815260206004820152602560248201527f50726f78793a20696d706c656d656e746174696f6e206e6f7420696e697469616044820152641b1a5e995960da1b60648201526084015b60405180910390fd5b3660008037600080366000845af43d6000803e806101c2573d6000fd5b503d6000f35b600080516020610621833981519152546001600160a01b0316336001600160a01b031614806101f5575033155b156102065761020381610432565b50565b610203610110565b60606102266000805160206106218339815191525490565b6001600160a01b0316336001600160a01b03161480610243575033155b1561032f5761025184610432565b600080856001600160a01b0316858560405161026e929190610610565b600060405180830381855af49150503d80600081146102a9576040519150601f19603f3d011682016040523d82523d6000602084013e6102ae565b606091505b5091509150816103265760405162461bcd60e51b815260206004820152603960248201527f50726f78793a2064656c656761746563616c6c20746f206e657720696d706c6560448201527f6d656e746174696f6e20636f6e7472616374206661696c656400000000000000606482015260840161019c565b91506103379050565b610337610110565b9392505050565b60006103566000805160206106218339815191525490565b6001600160a01b0316336001600160a01b03161480610373575033155b1561039e57507f360894a13ba1a3210667c828492db98dca3e2076cc3735a920a3ca505d382bbc5490565b6103a6610110565b90565b600080516020610621833981519152546001600160a01b0316336001600160a01b031614806103d6575033155b15610206576102038161048d565b60006103fc6000805160206106218339815191525490565b6001600160a01b0316336001600160a01b03161480610419575033155b1561039e57506000805160206106218339815191525490565b7f360894a13ba1a3210667c828492db98dca3e2076cc3735a920a3ca505d382bbc8190556040516001600160a01b038216907fbc7cd75a20ee27fd9adebab32041f755214dbc6bffa90cc0225b39da2e5c2d3b90600090a250565b60006104a56000805160206106218339815191525490565b600080516020610621833981519152839055604080516001600160a01b038084168252851660208201529192507f7e644d79422f17c01e4894b5f4f588d331ebfa28653d42ae832dc59e38c9798f910160405180910390a15050565b80356001600160a01b038116811461051857600080fd5b919050565b60006020828403121561052f57600080fd5b61033782610501565b60008060006040848603121561054d57600080fd5b61055684610501565b9250602084013567ffffffffffffffff8082111561057357600080fd5b818601915086601f83011261058757600080fd5b81358181111561059657600080fd5b8760208285010111156105a857600080fd5b6020830194508093505050509250925092565b600060208083528351808285015260005b818110156105e8578581018301518582016040015282016105cc565b818111156105fa576000604083870101525b50601f01601f1916929092016040019392505050565b818382376000910190815291905056feb53127684a568b3173ae13b9f8a6016e243e63b6e8ee1178d6a717850b5d6103a164736f6c634300080f000a",
	"devdoc": {
		"kind": "dev",
		"methods": {
			"createMultiSig(string,address[],uint16)": {
				"params": {
					"contractName": "The name of your multisig contract",
					"owners": "The owners list",
					"threshold": "The amount of owners signature require to execute transactions"
				}
			},
			"createMyMultiSigExtended(string,address[],uint16,bool)": {
				"params": {
					"contractName": "The name of your multisig contract",
					"owners": "The owners list",
					"threshold": "The amount of owners signature require to execute transactions"
				}
			},
			"creationType(uint256)": {
				"params": {
					"index": "The index of the multisig"
				},
				"returns": {
					"_0": "The type of multisig contract as a MyMultiSigFactorableModels.CreationType."
				}
			},
			"multiSig(uint256)": {
				"params": {
					"index": "The index of the multisig"
				},
				"returns": {
					"_0": "The current amount value as a uint256."
				}
			},
			"multiSigByCreator(address,uint256)": {
				"params": {
					"creator": "The creator of the multisig contract",
					"index": "The index of the multisig"
				},
				"returns": {
					"_0": "The current amount value as a uint256."
				}
			},
			"multiSigCount()": {
				"returns": {
					"_0": "The current amount value as a uint256."
				}
			},
			"multiSigCreatorCount(address)": {
				"params": {
					"creator": "The creator of the multisig contract"
				},
				"returns": {
					"_0": "The current amount value as a uint256."
				}
			},
			"name()": {
				"returns": {
					"_0": "The name as a string memory."
				}
			},
			"version()": {
				"returns": {
					"_0": "The version as a string memory."
				}
			}
		},
		"version": 1
	},
	"userdoc": {
		"kind": "user",
		"methods": {
			"createMultiSig(string,address[],uint16)": {
				"notice": "Creates a new multisig contract"
			},
			"createMyMultiSigExtended(string,address[],uint16,bool)": {
				"notice": "Creates a new multisig contract with extended features"
			},
			"creationType(uint256)": {
				"notice": "Retrieves the type of multisig contract created via this Factory contract"
			},
			"multiSig(uint256)": {
				"notice": "Retrieves a multisig by it's index"
			},
			"multiSigByCreator(address,uint256)": {
				"notice": "Retrieves a multisig created by a specific creator by it's index"
			},
			"multiSigCount()": {
				"notice": "Retrieves the amount of multisig contract created via this Factory contract"
			},
			"multiSigCreatorCount(address)": {
				"notice": "Retrieves the amount of multisig contract created via this Factory contract by a specific creator"
			},
			"name()": {
				"notice": "Retrieves the contract name"
			},
			"version()": {
				"notice": "Retrieves the contract version"
			}
		},
		"version": 1
	},
	"storageLayout": {
		"storage": [
			{
				"astId": 12119,
				"contract": "contracts/MyMultiSigFactoryWithChugSplash.sol:MyMultiSigFactoryWithChugSplash",
				"label": "_multiSigCount",
				"offset": 0,
				"slot": "0",
				"type": "t_uint256"
			},
			{
				"astId": 12124,
				"contract": "contracts/MyMultiSigFactoryWithChugSplash.sol:MyMultiSigFactoryWithChugSplash",
				"label": "_multiSigs",
				"offset": 0,
				"slot": "1",
				"type": "t_mapping(t_uint256,t_contract(MyMultiSig)11792)"
			},
			{
				"astId": 12128,
				"contract": "contracts/MyMultiSigFactoryWithChugSplash.sol:MyMultiSigFactoryWithChugSplash",
				"label": "_multiSigIndex",
				"offset": 0,
				"slot": "2",
				"type": "t_mapping(t_address,t_uint256)"
			},
			{
				"astId": 12132,
				"contract": "contracts/MyMultiSigFactoryWithChugSplash.sol:MyMultiSigFactoryWithChugSplash",
				"label": "_multiSigCreatorCount",
				"offset": 0,
				"slot": "3",
				"type": "t_mapping(t_address,t_uint256)"
			},
			{
				"astId": 12138,
				"contract": "contracts/MyMultiSigFactoryWithChugSplash.sol:MyMultiSigFactoryWithChugSplash",
				"label": "_multiSigIndexByCreator",
				"offset": 0,
				"slot": "4",
				"type": "t_mapping(t_address,t_mapping(t_uint256,t_uint256))"
			},
			{
				"astId": 12143,
				"contract": "contracts/MyMultiSigFactoryWithChugSplash.sol:MyMultiSigFactoryWithChugSplash",
				"label": "_multiSigCreationType",
				"offset": 0,
				"slot": "5",
				"type": "t_mapping(t_uint256,t_enum(CreationType)12404)"
			}
		],
		"types": {
			"t_address": {
				"encoding": "inplace",
				"label": "address",
				"numberOfBytes": "20"
			},
			"t_contract(MyMultiSig)11792": {
				"encoding": "inplace",
				"label": "contract MyMultiSig",
				"numberOfBytes": "20"
			},
			"t_enum(CreationType)12404": {
				"encoding": "inplace",
				"label": "enum MyMultiSigFactorableModels.CreationType",
				"numberOfBytes": "1",
				"members": [
					"SIMPLE",
					"EXTENDED"
				]
			},
			"t_mapping(t_address,t_mapping(t_uint256,t_uint256))": {
				"encoding": "mapping",
				"key": "t_address",
				"label": "mapping(address => mapping(uint256 => uint256))",
				"numberOfBytes": "32",
				"value": "t_mapping(t_uint256,t_uint256)"
			},
			"t_mapping(t_address,t_uint256)": {
				"encoding": "mapping",
				"key": "t_address",
				"label": "mapping(address => uint256)",
				"numberOfBytes": "32",
				"value": "t_uint256"
			},
			"t_mapping(t_uint256,t_contract(MyMultiSig)11792)": {
				"encoding": "mapping",
				"key": "t_uint256",
				"label": "mapping(uint256 => contract MyMultiSig)",
				"numberOfBytes": "32",
				"value": "t_contract(MyMultiSig)11792"
			},
			"t_mapping(t_uint256,t_enum(CreationType)12404)": {
				"encoding": "mapping",
				"key": "t_uint256",
				"label": "mapping(uint256 => enum MyMultiSigFactorableModels.CreationType)",
				"numberOfBytes": "32",
				"value": "t_enum(CreationType)12404"
			},
			"t_mapping(t_uint256,t_uint256)": {
				"encoding": "mapping",
				"key": "t_uint256",
				"label": "mapping(uint256 => uint256)",
				"numberOfBytes": "32",
				"value": "t_uint256"
			},
			"t_uint256": {
				"encoding": "inplace",
				"label": "uint256",
				"numberOfBytes": "32"
			}
		}
	}
}