{
	"contractName": "MyMultiSigFactoryWithChugSplash",
	"address": "0xEa168E3097b9D2ac4C8eB077B706d8bE35304aA4",
	"abi": [
		{
			"anonymous": false,
			"inputs": [
				{
					"indexed": true,
					"internalType": "address",
					"name": "creator",
					"type": "address"
				},
				{
					"indexed": true,
					"internalType": "address",
					"name": "contractAddress",
					"type": "address"
				},
				{
					"indexed": true,
					"internalType": "uint256",
					"name": "contractIndex",
					"type": "uint256"
				},
				{
					"indexed": false,
					"internalType": "string",
					"name": "contractName",
					"type": "string"
				},
				{
					"indexed": false,
					"internalType": "address[]",
					"name": "originalOwners",
					"type": "address[]"
				}
			],
			"name": "MyMultiSigCreated",
			"type": "event"
		},
		{
			"inputs": [
				{
					"internalType": "string",
					"name": "contractName",
					"type": "string"
				},
				{
					"internalType": "address[]",
					"name": "owners",
					"type": "address[]"
				},
				{
					"internalType": "uint16",
					"name": "threshold",
					"type": "uint16"
				}
			],
			"name": "createMultiSig",
			"outputs": [
				{
					"internalType": "address",
					"name": "contractAddress",
					"type": "address"
				}
			],
			"stateMutability": "payable",
			"type": "function"
		},
		{
			"inputs": [
				{
					"internalType": "string",
					"name": "contractName",
					"type": "string"
				},
				{
					"internalType": "address[]",
					"name": "owners",
					"type": "address[]"
				},
				{
					"internalType": "uint16",
					"name": "threshold",
					"type": "uint16"
				},
				{
					"internalType": "bool",
					"name": "isOnlyOwnerRequest",
					"type": "bool"
				}
			],
			"name": "createMyMultiSigExtended",
			"outputs": [
				{
					"internalType": "address",
					"name": "contractAddress",
					"type": "address"
				}
			],
			"stateMutability": "payable",
			"type": "function"
		},
		{
			"inputs": [
				{
					"internalType": "uint256",
					"name": "index",
					"type": "uint256"
				}
			],
			"name": "creationType",
			"outputs": [
				{
					"internalType": "enum MyMultiSigFactorableModels.CreationType",
					"name": "",
					"type": "uint8"
				}
			],
			"stateMutability": "view",
			"type": "function"
		},
		{
			"inputs": [
				{
					"internalType": "uint256",
					"name": "index",
					"type": "uint256"
				}
			],
			"name": "multiSig",
			"outputs": [
				{
					"internalType": "address",
					"name": "",
					"type": "address"
				}
			],
			"stateMutability": "view",
			"type": "function"
		},
		{
			"inputs": [
				{
					"internalType": "address",
					"name": "creator",
					"type": "address"
				},
				{
					"internalType": "uint256",
					"name": "index",
					"type": "uint256"
				}
			],
			"name": "multiSigByCreator",
			"outputs": [
				{
					"internalType": "address",
					"name": "",
					"type": "address"
				}
			],
			"stateMutability": "view",
			"type": "function"
		},
		{
			"inputs": [],
			"name": "multiSigCount",
			"outputs": [
				{
					"internalType": "uint256",
					"name": "",
					"type": "uint256"
				}
			],
			"stateMutability": "view",
			"type": "function"
		},
		{
			"inputs": [
				{
					"internalType": "address",
					"name": "creator",
					"type": "address"
				}
			],
			"name": "multiSigCreatorCount",
			"outputs": [
				{
					"internalType": "uint256",
					"name": "",
					"type": "uint256"
				}
			],
			"stateMutability": "view",
			"type": "function"
		},
		{
			"inputs": [],
			"name": "name",
			"outputs": [
				{
					"internalType": "string",
					"name": "",
					"type": "string"
				}
			],
			"stateMutability": "pure",
			"type": "function"
		},
		{
			"inputs": [],
			"name": "version",
			"outputs": [
				{
					"internalType": "string",
					"name": "",
					"type": "string"
				}
			],
			"stateMutability": "pure",
			"type": "function"
		}
	],
	"transactionHash": "0xf135baa2e50d6729274de57866d03d36c04286a6d17cfa96550eeb6673f61211",
	"solcInputHash": "cc382d1ba3cdcfda9b11dd0a5f6e250b",
	"numDeployments": 1,
	"args": [],
	"bytecode": "0x608060405234801561001057600080fd5b50614d58806100206000396000f3fe608060405260043610620000915760003560e01c806364d1fe74116200006057806364d1fe7414620001765780636ffb90e614620001a657806374d4929514620001bd578063837186cd14620001f7578063957dd3ef146200024857600080fd5b806306fdde0314620000965780633c2b934714620000e557806341e69367146200012e57806354fd4d501462000145575b600080fd5b348015620000a357600080fd5b506040805180820190915260118152704d794d756c7469536967466163746f727960781b60208201525b604051620000dc9190620004c5565b60405180910390f35b348015620000f257600080fd5b506200011f62000104366004620004fe565b6001600160a01b031660009081526003602052604090205490565b604051908152602001620000dc565b3480156200013b57600080fd5b506000546200011f565b3480156200015257600080fd5b50604080518082019091526006815265302e302e313160d01b6020820152620000cd565b6200018d6200018736600462000682565b6200028b565b6040516001600160a01b039091168152602001620000dc565b6200018d620001b736600462000718565b620002e9565b348015620001ca57600080fd5b506200018d620001dc36600462000795565b6000908152600160205260409020546001600160a01b031690565b3480156200020457600080fd5b506200018d62000216366004620007af565b6001600160a01b0391821660009081526004602090815260408083209383529281528282205482526001905220541690565b3480156200025557600080fd5b506200027c6200026736600462000795565b60009081526005602052604090205460ff1690565b604051620000dc9190620007f2565b60008085858585604051620002a09062000461565b620002af949392919062000861565b604051809103906000f080158015620002cc573d6000803e3d6000fd5b509050620002df60018288888862000344565b9695505050505050565b600080848484604051620002fd906200046f565b6200030b93929190620008a7565b604051809103906000f08015801562000328573d6000803e3d6000fd5b5090506200033b60008287878762000344565b95945050505050565b60008054815260016020908152604080832080546001600160a01b0319166001600160a01b0389169081179091558354908452600283528184208190553380855260048452828520600380865284872080548852918652938620929092558452915280548692909190620003b883620008e5565b9091555050600080548152600560205260409020805487919060ff191660018381811115620003eb57620003eb620007dc565b02179055506000805490806200040183620008e5565b9190505550600054816001600160a01b0316336001600160a01b03167f7743f89779aaa5e9101e8b91559905e9729070407384c5b3ee9a9159f4b502638787604051620004509291906200090d565b60405180910390a495945050505050565b61254b806200093783390190565b611ea18062002e8283390190565b6000815180845260005b81811015620004a55760208185018101518683018201520162000487565b506000602082860101526020601f19601f83011685010191505092915050565b602081526000620004da60208301846200047d565b9392505050565b80356001600160a01b0381168114620004f957600080fd5b919050565b6000602082840312156200051157600080fd5b620004da82620004e1565b634e487b7160e01b600052604160045260246000fd5b604051601f8201601f1916810167ffffffffffffffff811182821017156200055e576200055e6200051c565b604052919050565b600082601f8301126200057857600080fd5b813567ffffffffffffffff8111156200059557620005956200051c565b620005aa601f8201601f191660200162000532565b818152846020838601011115620005c057600080fd5b816020850160208301376000918101602001919091529392505050565b600082601f830112620005ef57600080fd5b8135602067ffffffffffffffff8211156200060e576200060e6200051c565b8160051b6200061f82820162000532565b92835284810182019282810190878511156200063a57600080fd5b83870192505b8483101562000664576200065483620004e1565b8252918301919083019062000640565b979650505050505050565b803561ffff81168114620004f957600080fd5b600080600080608085870312156200069957600080fd5b843567ffffffffffffffff80821115620006b257600080fd5b620006c08883890162000566565b95506020870135915080821115620006d757600080fd5b50620006e687828801620005dd565b935050620006f7604086016200066f565b9150606085013580151581146200070d57600080fd5b939692955090935050565b6000806000606084860312156200072e57600080fd5b833567ffffffffffffffff808211156200074757600080fd5b620007558783880162000566565b945060208601359150808211156200076c57600080fd5b506200077b86828701620005dd565b9250506200078c604085016200066f565b90509250925092565b600060208284031215620007a857600080fd5b5035919050565b60008060408385031215620007c357600080fd5b620007ce83620004e1565b946020939093013593505050565b634e487b7160e01b600052602160045260246000fd5b60208101600283106200081557634e487b7160e01b600052602160045260246000fd5b91905290565b600081518084526020808501945080840160005b83811015620008565781516001600160a01b0316875295820195908201906001016200082f565b509495945050505050565b6080815260006200087660808301876200047d565b82810360208401526200088a81876200081b565b61ffff959095166040840152505090151560609091015292915050565b606081526000620008bc60608301866200047d565b8281036020840152620008d081866200081b565b91505061ffff83166040830152949350505050565b6000600182016200090657634e487b7160e01b600052601160045260246000fd5b5060010190565b6040815260006200092260408301856200047d565b82810360208401526200033b81856200081b56fe6101406040523480156200001257600080fd5b506040516200254b3803806200254b8339810160408190526200003591620004bd565b838383826200005d604080518082019091526006815265302e302e313160d01b602082015290565b60016000819055825160209384012082519284019290922060e08390526101008190524660a0818152604080517f8b73c3c69bb8fe3d512ecc4cf759cc79239f7b179b0ffacaa9a75d522b39400f818901819052818301979097526060810194909452608080850193909352308483018190528151808603909301835260c09485019091528151919096012090529290925261012052620000ff84826200064d565b50815161ffff8111156200016e5760405162461bcd60e51b815260206004820152602b60248201527f4d794d756c74695369673a2063616e6e6f7420616464206f776e65722061626f60448201526a766520325e3136202d203160a81b60648201526084015b60405180910390fd5b60005b81811015620001b057620001a784828151811062000193576200019362000719565b6020026020010151620001fe60201b60201c565b60010162000171565b5082516002805461ffff909216600160701b0261ffff60701b19909216919091179055620001de826200028d565b50506005805460ff191693151593909317909255506200072f9350505050565b6001600160a01b03811660009081526003602052604090205460ff1615620002695760405162461bcd60e51b815260206004820181905260248201527f4d794d756c74695369673a206f776e657220616c726561647920657869737473604482015260640162000165565b6001600160a01b03166000908152600360205260409020805460ff19166001179055565b60008161ffff1611620002f85760405162461bcd60e51b815260206004820152602c60248201527f4d794d756c74695369673a207468726573686f6c64206d75737420626520677260448201526b06561746572207468616e20360a41b606482015260840162000165565b60025461ffff600160701b90910481169082161115620003815760405162461bcd60e51b815260206004820152603f60248201527f4d794d756c74695369673a207468726573686f6c64206d757374206265206c6560448201527f7373207468616e206f7220657175616c20746f206f776e657220636f756e7400606482015260840162000165565b6002805461ffff9092166c010000000000000000000000000261ffff60601b19909216919091179055565b634e487b7160e01b600052604160045260246000fd5b604051601f8201601f191681016001600160401b0381118282101715620003ed57620003ed620003ac565b604052919050565b600082601f8301126200040757600080fd5b815160206001600160401b03821115620004255762000425620003ac565b8160051b62000436828201620003c2565b92835284810182019282810190878511156200045157600080fd5b83870192505b84831015620004895782516001600160a01b0381168114620004795760008081fd5b8252918301919083019062000457565b979650505050505050565b805161ffff81168114620004a757600080fd5b919050565b80518015158114620004a757600080fd5b60008060008060808587031215620004d457600080fd5b84516001600160401b0380821115620004ec57600080fd5b818701915087601f8301126200050157600080fd5b815181811115620005165762000516620003ac565b60206200052c601f8301601f19168201620003c2565b8281528a828487010111156200054157600080fd5b60005b838110156200056157858101830151828201840152820162000544565b5060009281018201929092528801519096509150808211156200058357600080fd5b506200059287828801620003f5565b935050620005a36040860162000494565b9150620005b360608601620004ac565b905092959194509250565b600181811c90821680620005d357607f821691505b602082108103620005f457634e487b7160e01b600052602260045260246000fd5b50919050565b601f8211156200064857600081815260208120601f850160051c81016020861015620006235750805b601f850160051c820191505b8181101562000644578281556001016200062f565b5050505b505050565b81516001600160401b03811115620006695762000669620003ac565b62000681816200067a8454620005be565b84620005fa565b602080601f831160018114620006b95760008415620006a05750858301515b600019600386901b1c1916600185901b17855562000644565b600085815260208120601f198616915b82811015620006ea57888601518255948401946001909101908401620006c9565b5085821015620007095787850151600019600388901b60f8161c191681555b5050505050600190811b01905550565b634e487b7160e01b600052603260045260246000fd5b60805160a05160c05160e0516101005161012051611dcc6200077f6000396000611564015260006115b30152600061158e015260006114e7015260006115110152600061153b0152611dcc6000f3fe60806040526004361061010d5760003560e01c8063a457b8c111610095578063b849925011610064578063b84992501461030d578063b9a708001461032d578063e20056e614610340578063f0daceac14610360578063fb15426f1461037357600080fd5b8063a457b8c11461028d578063ac0dfcec146102ad578063affed0e0146102c5578063b574ba86146102ed57600080fd5b806342cde4e8116100dc57806342cde4e8146101de57806354fd4d50146101fe5780637065cb481461022d5780637abd523e1461024d578063802ddaec1461026d57600080fd5b806306fdde03146101195780630db0262214610144578063173825d9146101735780632f54bf6e1461019557600080fd5b3661011457005b600080fd5b34801561012557600080fd5b5061012e610393565b60405161013b919061178f565b60405180910390f35b34801561015057600080fd5b50600254600160701b900461ffff165b60405161ffff909116815260200161013b565b34801561017f57600080fd5b5061019361018e3660046117c5565b610425565b005b3480156101a157600080fd5b506101ce6101b03660046117c5565b6001600160a01b031660009081526003602052604090205460ff1690565b604051901515815260200161013b565b3480156101ea57600080fd5b50600254600160601b900461ffff16610160565b34801561020a57600080fd5b50604080518082019091526006815265302e302e313160d01b602082015261012e565b34801561023957600080fd5b506101936102483660046117c5565b610523565b34801561025957600080fd5b506101936102683660046117e0565b6105bf565b34801561027957600080fd5b506101936102883660046117f9565b610672565b34801561029957600080fd5b506101936102a83660046117c5565b6106a4565b3480156102b957600080fd5b5060055460ff166101ce565b3480156102d157600080fd5b506002546040516001600160601b03909116815260200161013b565b3480156102f957600080fd5b5061019361030836600461181b565b61085a565b34801561031957600080fd5b506101ce6103283660046118f6565b610882565b6101ce61033b3660046118f6565b6109e4565b34801561034c57600080fd5b5061019361035b36600461197e565b610c39565b6101ce61036e366004611ac0565b610c62565b34801561037f57600080fd5b5061019361038e366004611bc9565b610d30565b6060600180546103a290611bec565b80601f01602080910402602001604051908101604052809291908181526020018280546103ce90611bec565b801561041b5780601f106103f05761010080835404028352916020019161041b565b820191906000526020600020905b8154815290600101906020018083116103fe57829003601f168201915b5050505050905090565b33301461044d5760405162461bcd60e51b815260040161044490611c26565b60405180910390fd5b60025461ffff600160601b82048116600160701b90920416116104ca5760405162461bcd60e51b815260206004820152602f60248201527f4d794d756c74695369673a2063616e6e6f742072656d6f7665206f776e65722060448201526e18995b1bddc81d1a1c995cda1bdb19608a1b6064820152608401610444565b6001600160a01b0381166000908152600360205260409020805460ff1916905560028054600160701b900461ffff1690600e61050583611c91565b91906101000a81548161ffff021916908361ffff1602179055505050565b3330146105425760405162461bcd60e51b815260040161044490611c26565b60025461ffff600160701b9091048116106105b35760405162461bcd60e51b815260206004820152602b60248201527f4d794d756c74695369673a2063616e6e6f7420616464206f776e65722061626f60448201526a766520325e3136202d203160a81b6064820152608401610444565b6105bc81610f84565b50565b3330146105de5760405162461bcd60e51b815260040161044490611c26565b62093a8081101561066d5760405162461bcd60e51b815260206004820152604d60248201527f4d794d756c7469536967457874656e6465643a207472616e666572496e61637460448201527f6976654f776e6572736869704166746572206d7573742062652067726561746560648201526c72207468616e2037206461797360981b608482015260a401610444565b600655565b3330146106915760405162461bcd60e51b815260040161044490611c26565b6005805460ff1916911515919091179055565b6001600160a01b038082166000908152600760209081526040918290208251606081018452815481526001820154928101929092526002015490921690820181905233146107505760405162461bcd60e51b815260206004820152603360248201527f4d794d756c7469536967457874656e6465643a206d73672e73656e646572206960448201527273206e6f74207468652064656c65676174656560681b6064820152608401610444565b60208101518151429161076291611caf565b106107c15760405162461bcd60e51b815260206004820152602960248201527f4d794d756c7469536967457874656e6465643a206f776e6572206973207374696044820152686c6c2061637469766560b81b6064820152608401610444565b6001600160a01b038281166000908152600860209081526040808320805460ff199081169091553380855282852080549092166001908117909255825160608101845242815287850151818601908152818501878152838852600790965293909520945185559151908401559051600290920180546001600160a01b0319169290931691909117909155610856908390611011565b5050565b3330146108795760405162461bcd60e51b815260040161044490611c26565b6105bc816111b0565b600254600090600160601b900461ffff1661089e816041611cc2565b61ffff16835110156108b45760009150506109db565b6000805b8261ffff168161ffff1610156109d3578651602080890191909120600254604080517f42b6a910722fe0bb1f5f1c9e9bb93ac603940a0d8b64406bbf37307e7a4f6c4c948101949094526001600160a01b038d1690840152606083018b9052608083019190915260a082018890526001600160601b031660c08201526109629061095b9060e0015b604051602081830303815290604052805190602001206112c2565b8683611316565b6001600160a01b03811660009081526003602052604090205490925060ff1615806109ba57506002546001600160601b031667ffffffffffffffff60601b606084901b160160009081526004602052604090205460ff165b156109cb57600093505050506109db565b6001016108b8565b506001925050505b95945050505050565b60006109ee611398565b6109fb86868686866113f1565b610a475760405162461bcd60e51b815260206004820152601e60248201527f4d794d756c74695369673a20696e76616c6964207369676e61747572657300006044820152606401610444565b600280546001600160601b0316906000610a6083611ce8565b91906101000a8154816001600160601b0302191690836001600160601b031602179055505060005a9050600080865160208801898b89f19150835a610aa59083611d0e565b10610af25760405162461bcd60e51b815260206004820152601a60248201527f4d794d756c74695369673a206e6f7420656e6f756768206761730000000000006044820152606401610444565b8115610b535760025460405187916001600160a01b038a169133917fa3892e576025a09c244bf3831f1061b0fc657032178d85f48f1bc20c16c8effc91610b46918b918b916001600160601b031690611d21565b60405180910390a4610baa565b60025460405187916001600160a01b038a169133917f5a7ba054cf1cd70a4c0b73f114e33cf02e0ed0d5588caaa764cda47b728966a191610ba1918b918b916001600160601b031690611d21565b60405180910390a45b6002546bfffffffffffffffffffffc186001600160601b039091161115610c2e57600254600190610be8906001600160601b0316600160601b611d53565b610bf29190611d53565b6cffffffffffffffffffffffffff167f4f464fb2cead651d13579db94eddf92d1842f753f89c47c704292d2b7d17591760405160405180910390a25b506109db6001600055565b333014610c585760405162461bcd60e51b815260040161044490611c26565b6108568282611011565b6000333014610c835760405162461bcd60e51b815260040161044490611c26565b845160005b81811015610d26576000878281518110610ca457610ca4611d80565b602002602001015190506000878381518110610cc257610cc2611d80565b602002602001015190506000878481518110610ce057610ce0611d80565b602002602001015190506000878581518110610cfe57610cfe611d80565b60200260200101519050600080835160208501868886f1965084600101945050505050610c88565b5050949350505050565b333014610d4f5760405162461bcd60e51b815260040161044490611c26565b6006548211610e015760405162461bcd60e51b815260206004820152606c60248201527f4d794d756c7469536967457874656e6465643a207472616e666572496e61637460448201527f6976654f776e6572736869704166746572206d7573742062652067726561746560648201527f72207468616e205f6d696e696d756d5472616e666572496e6163746976654f7760848201526b3732b939b434b820b33a32b960a11b60a482015260c401610444565b6001600160a01b038116610e7d5760405162461bcd60e51b815260206004820152603860248201527f4d794d756c7469536967457874656e6465643a2064656c65676174656520636160448201527f6e6e6f7420626520746865207a65726f206164647265737300000000000000006064820152608401610444565b6001600160a01b03811660009081526008602052604090205460ff1615610f0c5760405162461bcd60e51b815260206004820152603e60248201527f4d794d756c7469536967457874656e6465643a2064656c65676174656520697360448201527f20616c726561647920616e206f776e6572206f722064656c65676174656500006064820152608401610444565b6040805160608101825242815260208082019485526001600160a01b03938416828401818152336000908152600784528581209451855596516001808601919091559051600290940180546001600160a01b03191694909616939093179094559284526008909252909120805460ff19169091179055565b6001600160a01b03811660009081526003602052604090205460ff1615610fed5760405162461bcd60e51b815260206004820181905260248201527f4d794d756c74695369673a206f776e657220616c7265616479206578697374736044820152606401610444565b6001600160a01b03166000908152600360205260409020805460ff19166001179055565b6001600160a01b03821660009081526003602052604090205460ff166110885760405162461bcd60e51b815260206004820152602660248201527f4d794d756c74695369673a206f6c64206f776e6572206d75737420626520616e6044820152651037bbb732b960d11b6064820152608401610444565b6001600160a01b03811660009081526003602052604090205460ff16156111045760405162461bcd60e51b815260206004820152602a60248201527f4d794d756c74695369673a206e6577206f776e6572206d757374206e6f742062604482015269329030b71037bbb732b960b11b6064820152608401610444565b6001600160a01b0381166111755760405162461bcd60e51b815260206004820152603260248201527f4d794d756c74695369673a206e6577206f776e6572206d757374206e6f7420626044820152716520746865207a65726f206164647265737360701b6064820152608401610444565b6001600160a01b03918216600090815260036020526040808220805460ff199081169091559290931681529190912080549091166001179055565b60008161ffff16116112195760405162461bcd60e51b815260206004820152602c60248201527f4d794d756c74695369673a207468726573686f6c64206d75737420626520677260448201526b06561746572207468616e20360a41b6064820152608401610444565b60025461ffff600160701b909104811690821611156112a05760405162461bcd60e51b815260206004820152603f60248201527f4d794d756c74695369673a207468726573686f6c64206d757374206265206c6560448201527f7373207468616e206f7220657175616c20746f206f776e657220636f756e74006064820152608401610444565b6002805461ffff909216600160601b0261ffff60601b19909216919091179055565b60006113106112cf6114da565b8360405161190160f01b6020820152602281018390526042810182905260009060620160405160208183030381529060405280519060200120905092915050565b92915050565b6020604182810284018281015160408083015192909301518351600080825295810180865289905260ff909116938101849052606081018290526080810183905290919060019060a0016020604051602081039080840390855afa158015611382573d6000803e3d6000fd5b5050604051601f19015198975050505050505050565b6002600054036113ea5760405162461bcd60e51b815260206004820152601f60248201527f5265656e7472616e637947756172643a207265656e7472616e742063616c6c006044820152606401610444565b6002600055565b600254600090600160601b900461ffff1661140d816041611cc2565b61ffff16835110156114235760009150506109db565b6002548551602080880191909120604080517f42b6a910722fe0bb1f5f1c9e9bb93ac603940a0d8b64406bbf37307e7a4f6c4c938101939093526001600160a01b038b169083015260608201899052608082015260a081018690526001600160601b0390911660c08201819052906000906114a09060e001610940565b905060005b8361ffff168161ffff1610156114ca576114c182878584611601565b506001016114a5565b5060019998505050505050505050565b6000306001600160a01b037f00000000000000000000000000000000000000000000000000000000000000001614801561153357507f000000000000000000000000000000000000000000000000000000000000000046145b1561155d57507f000000000000000000000000000000000000000000000000000000000000000090565b50604080517f00000000000000000000000000000000000000000000000000000000000000006020808301919091527f0000000000000000000000000000000000000000000000000000000000000000828401527f000000000000000000000000000000000000000000000000000000000000000060608301524660808301523060a0808401919091528351808403909101815260c0909201909252805191012090565b600061160f85858585611633565b6001600160a01b038116600090815260076020526040902042905595945050505050565b6000611640858584611316565b6001600160a01b0381166000908152600360205260409020549091506001600160601b03841667ffffffffffffffff60601b606084901b16019060ff166116c95760405162461bcd60e51b815260206004820152601960248201527f4d794d756c74695369673a20696e76616c6964206f776e6572000000000000006044820152606401610444565b60008181526004602052604090205460ff16156117285760405162461bcd60e51b815260206004820181905260248201527f4d794d756c74695369673a206f776e657220616c7265616479207369676e65646044820152606401610444565b6000908152600460205260409020805460ff19166001179055949350505050565b6000815180845260005b8181101561176f57602081850181015186830182015201611753565b506000602082860101526020601f19601f83011685010191505092915050565b6020815260006117a26020830184611749565b9392505050565b80356001600160a01b03811681146117c057600080fd5b919050565b6000602082840312156117d757600080fd5b6117a2826117a9565b6000602082840312156117f257600080fd5b5035919050565b60006020828403121561180b57600080fd5b813580151581146117a257600080fd5b60006020828403121561182d57600080fd5b813561ffff811681146117a257600080fd5b634e487b7160e01b600052604160045260246000fd5b604051601f8201601f1916810167ffffffffffffffff8111828210171561187e5761187e61183f565b604052919050565b600082601f83011261189757600080fd5b813567ffffffffffffffff8111156118b1576118b161183f565b6118c4601f8201601f1916602001611855565b8181528460208386010111156118d957600080fd5b816020850160208301376000918101602001919091529392505050565b600080600080600060a0868803121561190e57600080fd5b611917866117a9565b945060208601359350604086013567ffffffffffffffff8082111561193b57600080fd5b61194789838a01611886565b945060608801359350608088013591508082111561196457600080fd5b5061197188828901611886565b9150509295509295909350565b6000806040838503121561199157600080fd5b61199a836117a9565b91506119a8602084016117a9565b90509250929050565b600067ffffffffffffffff8211156119cb576119cb61183f565b5060051b60200190565b600082601f8301126119e657600080fd5b813560206119fb6119f6836119b1565b611855565b82815260059290921b84018101918181019086841115611a1a57600080fd5b8286015b84811015611a355780358352918301918301611a1e565b509695505050505050565b600082601f830112611a5157600080fd5b81356020611a616119f6836119b1565b82815260059290921b84018101918181019086841115611a8057600080fd5b8286015b84811015611a3557803567ffffffffffffffff811115611aa45760008081fd5b611ab28986838b0101611886565b845250918301918301611a84565b60008060008060808587031215611ad657600080fd5b843567ffffffffffffffff80821115611aee57600080fd5b818701915087601f830112611b0257600080fd5b81356020611b126119f6836119b1565b82815260059290921b8401810191818101908b841115611b3157600080fd5b948201945b83861015611b5657611b47866117a9565b82529482019490820190611b36565b98505088013592505080821115611b6c57600080fd5b611b78888389016119d5565b94506040870135915080821115611b8e57600080fd5b611b9a88838901611a40565b93506060870135915080821115611bb057600080fd5b50611bbd878288016119d5565b91505092959194509250565b60008060408385031215611bdc57600080fd5b823591506119a8602084016117a9565b600181811c90821680611c0057607f821691505b602082108103611c2057634e487b7160e01b600052602260045260246000fd5b50919050565b60208082526035908201527f4d794d756c74695369673a206f6e6c79207468697320636f6e7472616374206360408201527430b71031b0b636103a3434b990333ab731ba34b7b760591b606082015260800190565b634e487b7160e01b600052601160045260246000fd5b600061ffff821680611ca557611ca5611c7b565b6000190192915050565b8082018082111561131057611310611c7b565b61ffff818116838216028082169190828114611ce057611ce0611c7b565b505092915050565b60006001600160601b03808316818103611d0457611d04611c7b565b6001019392505050565b8181038181111561131057611310611c7b565b606081526000611d346060830186611749565b90508360208301526001600160601b0383166040830152949350505050565b6cffffffffffffffffffffffffff828116828216039080821115611d7957611d79611c7b565b5092915050565b634e487b7160e01b600052603260045260246000fdfea26469706673582212205b10adb705378ea3e17ddbe9a876de4721739eaab4afd2d540c18f57aacfcc6c64736f6c634300081200336101406040523480156200001257600080fd5b5060405162001ea138038062001ea1833981016040819052620000359162000493565b826200005a604080518082019091526006815265302e302e313160d01b602082015290565b60016000819055825160209384012082519284019290922060e08390526101008190524660a0818152604080517f8b73c3c69bb8fe3d512ecc4cf759cc79239f7b179b0ffacaa9a75d522b39400f818901819052818301979097526060810194909452608080850193909352308483018190528151808603909301835260c09485019091528151919096012090529290925261012052620000fc848262000610565b50815161ffff8111156200016b5760405162461bcd60e51b815260206004820152602b60248201527f4d794d756c74695369673a2063616e6e6f7420616464206f776e65722061626f60448201526a766520325e3136202d203160a81b60648201526084015b60405180910390fd5b60005b81811015620001ad57620001a4848281518110620001905762000190620006dc565b6020026020010151620001e560201b60201c565b6001016200016e565b5082516002805461ffff909216600160701b0261ffff60701b19909216919091179055620001db8262000274565b50505050620006f2565b6001600160a01b03811660009081526003602052604090205460ff1615620002505760405162461bcd60e51b815260206004820181905260248201527f4d794d756c74695369673a206f776e657220616c726561647920657869737473604482015260640162000162565b6001600160a01b03166000908152600360205260409020805460ff19166001179055565b60008161ffff1611620002df5760405162461bcd60e51b815260206004820152602c60248201527f4d794d756c74695369673a207468726573686f6c64206d75737420626520677260448201526b06561746572207468616e20360a41b606482015260840162000162565b60025461ffff600160701b90910481169082161115620003685760405162461bcd60e51b815260206004820152603f60248201527f4d794d756c74695369673a207468726573686f6c64206d757374206265206c6560448201527f7373207468616e206f7220657175616c20746f206f776e657220636f756e7400606482015260840162000162565b6002805461ffff9092166c010000000000000000000000000261ffff60601b19909216919091179055565b634e487b7160e01b600052604160045260246000fd5b604051601f8201601f191681016001600160401b0381118282101715620003d457620003d462000393565b604052919050565b600082601f830112620003ee57600080fd5b815160206001600160401b038211156200040c576200040c62000393565b8160051b6200041d828201620003a9565b92835284810182019282810190878511156200043857600080fd5b83870192505b84831015620004705782516001600160a01b0381168114620004605760008081fd5b825291830191908301906200043e565b979650505050505050565b805161ffff811681146200048e57600080fd5b919050565b600080600060608486031215620004a957600080fd5b83516001600160401b0380821115620004c157600080fd5b818601915086601f830112620004d657600080fd5b815181811115620004eb57620004eb62000393565b602062000501601f8301601f19168201620003a9565b82815289828487010111156200051657600080fd5b60005b838110156200053657858101830151828201840152820162000519565b5060009281018201929092528701519095509150808211156200055857600080fd5b506200056786828701620003dc565b92505062000578604085016200047b565b90509250925092565b600181811c908216806200059657607f821691505b602082108103620005b757634e487b7160e01b600052602260045260246000fd5b50919050565b601f8211156200060b57600081815260208120601f850160051c81016020861015620005e65750805b601f850160051c820191505b818110156200060757828155600101620005f2565b5050505b505050565b81516001600160401b038111156200062c576200062c62000393565b62000644816200063d845462000581565b84620005bd565b602080601f8311600181146200067c5760008415620006635750858301515b600019600386901b1c1916600185901b17855562000607565b600085815260208120601f198616915b82811015620006ad578886015182559484019460019091019084016200068c565b5085821015620006cc5787850151600019600388901b60f8161c191681555b5050505050600190811b01905550565b634e487b7160e01b600052603260045260246000fd5b60805160a05160c05160e051610100516101205161175f620007426000396000610f9a01526000610fe901526000610fc401526000610f1d01526000610f4701526000610f71015261175f6000f3fe6080604052600436106100c65760003560e01c80637065cb481161007f578063b849925011610059578063b84992501461024e578063b9a708001461026e578063e20056e614610281578063f0daceac146102a157600080fd5b80637065cb48146101e6578063affed0e014610206578063b574ba861461022e57600080fd5b806306fdde03146100d25780630db02622146100fd578063173825d91461012c5780632f54bf6e1461014e57806342cde4e81461019757806354fd4d50146101b757600080fd5b366100cd57005b600080fd5b3480156100de57600080fd5b506100e76102b4565b6040516100f49190611193565b60405180910390f35b34801561010957600080fd5b50600254600160701b900461ffff165b60405161ffff90911681526020016100f4565b34801561013857600080fd5b5061014c6101473660046111c9565b610346565b005b34801561015a57600080fd5b506101876101693660046111c9565b6001600160a01b031660009081526003602052604090205460ff1690565b60405190151581526020016100f4565b3480156101a357600080fd5b50600254600160601b900461ffff16610119565b3480156101c357600080fd5b50604080518082019091526006815265302e302e313160d01b60208201526100e7565b3480156101f257600080fd5b5061014c6102013660046111c9565b610444565b34801561021257600080fd5b506002546040516001600160601b0390911681526020016100f4565b34801561023a57600080fd5b5061014c6102493660046111e4565b6104e0565b34801561025a57600080fd5b506101876102693660046112bf565b610508565b61018761027c3660046112bf565b61066a565b34801561028d57600080fd5b5061014c61029c366004611347565b6108bf565b6101876102af366004611489565b6108ec565b6060600180546102c390611592565b80601f01602080910402602001604051908101604052809291908181526020018280546102ef90611592565b801561033c5780601f106103115761010080835404028352916020019161033c565b820191906000526020600020905b81548152906001019060200180831161031f57829003601f168201915b5050505050905090565b33301461036e5760405162461bcd60e51b8152600401610365906115cc565b60405180910390fd5b60025461ffff600160601b82048116600160701b90920416116103eb5760405162461bcd60e51b815260206004820152602f60248201527f4d794d756c74695369673a2063616e6e6f742072656d6f7665206f776e65722060448201526e18995b1bddc81d1a1c995cda1bdb19608a1b6064820152608401610365565b6001600160a01b0381166000908152600360205260409020805460ff1916905560028054600160701b900461ffff1690600e61042683611637565b91906101000a81548161ffff021916908361ffff1602179055505050565b3330146104635760405162461bcd60e51b8152600401610365906115cc565b60025461ffff600160701b9091048116106104d45760405162461bcd60e51b815260206004820152602b60248201527f4d794d756c74695369673a2063616e6e6f7420616464206f776e65722061626f60448201526a766520325e3136202d203160a81b6064820152608401610365565b6104dd816109ba565b50565b3330146104ff5760405162461bcd60e51b8152600401610365906115cc565b6104dd81610a47565b600254600090600160601b900461ffff16610524816041611655565b61ffff168351101561053a576000915050610661565b6000805b8261ffff168161ffff161015610659578651602080890191909120600254604080517f42b6a910722fe0bb1f5f1c9e9bb93ac603940a0d8b64406bbf37307e7a4f6c4c948101949094526001600160a01b038d1690840152606083018b9052608083019190915260a082018890526001600160601b031660c08201526105e8906105e19060e0015b60405160208183030381529060405280519060200120610b59565b8683610bad565b6001600160a01b03811660009081526003602052604090205490925060ff16158061064057506002546001600160601b031667ffffffffffffffff60601b606084901b160160009081526004602052604090205460ff165b156106515760009350505050610661565b60010161053e565b506001925050505b95945050505050565b6000610674610c2f565b6106818686868686610c88565b6106cd5760405162461bcd60e51b815260206004820152601e60248201527f4d794d756c74695369673a20696e76616c6964207369676e61747572657300006044820152606401610365565b600280546001600160601b03169060006106e68361167b565b91906101000a8154816001600160601b0302191690836001600160601b031602179055505060005a9050600080865160208801898b89f19150835a61072b90836116a1565b106107785760405162461bcd60e51b815260206004820152601a60248201527f4d794d756c74695369673a206e6f7420656e6f756768206761730000000000006044820152606401610365565b81156107d95760025460405187916001600160a01b038a169133917fa3892e576025a09c244bf3831f1061b0fc657032178d85f48f1bc20c16c8effc916107cc918b918b916001600160601b0316906116b4565b60405180910390a4610830565b60025460405187916001600160a01b038a169133917f5a7ba054cf1cd70a4c0b73f114e33cf02e0ed0d5588caaa764cda47b728966a191610827918b918b916001600160601b0316906116b4565b60405180910390a45b6002546bfffffffffffffffffffffc186001600160601b0390911611156108b45760025460019061086e906001600160601b0316600160601b6116e6565b61087891906116e6565b6cffffffffffffffffffffffffff167f4f464fb2cead651d13579db94eddf92d1842f753f89c47c704292d2b7d17591760405160405180910390a25b506106616001600055565b3330146108de5760405162461bcd60e51b8152600401610365906115cc565b6108e88282610d71565b5050565b600033301461090d5760405162461bcd60e51b8152600401610365906115cc565b845160005b818110156109b057600087828151811061092e5761092e611713565b60200260200101519050600087838151811061094c5761094c611713565b60200260200101519050600087848151811061096a5761096a611713565b60200260200101519050600087858151811061098857610988611713565b60200260200101519050600080835160208501868886f1965084600101945050505050610912565b5050949350505050565b6001600160a01b03811660009081526003602052604090205460ff1615610a235760405162461bcd60e51b815260206004820181905260248201527f4d794d756c74695369673a206f776e657220616c7265616479206578697374736044820152606401610365565b6001600160a01b03166000908152600360205260409020805460ff19166001179055565b60008161ffff1611610ab05760405162461bcd60e51b815260206004820152602c60248201527f4d794d756c74695369673a207468726573686f6c64206d75737420626520677260448201526b06561746572207468616e20360a41b6064820152608401610365565b60025461ffff600160701b90910481169082161115610b375760405162461bcd60e51b815260206004820152603f60248201527f4d794d756c74695369673a207468726573686f6c64206d757374206265206c6560448201527f7373207468616e206f7220657175616c20746f206f776e657220636f756e74006064820152608401610365565b6002805461ffff909216600160601b0261ffff60601b19909216919091179055565b6000610ba7610b66610f10565b8360405161190160f01b6020820152602281018390526042810182905260009060620160405160208183030381529060405280519060200120905092915050565b92915050565b6020604182810284018281015160408083015192909301518351600080825295810180865289905260ff909116938101849052606081018290526080810183905290919060019060a0016020604051602081039080840390855afa158015610c19573d6000803e3d6000fd5b5050604051601f19015198975050505050505050565b600260005403610c815760405162461bcd60e51b815260206004820152601f60248201527f5265656e7472616e637947756172643a207265656e7472616e742063616c6c006044820152606401610365565b6002600055565b600254600090600160601b900461ffff16610ca4816041611655565b61ffff1683511015610cba576000915050610661565b6002548551602080880191909120604080517f42b6a910722fe0bb1f5f1c9e9bb93ac603940a0d8b64406bbf37307e7a4f6c4c938101939093526001600160a01b038b169083015260608201899052608082015260a081018690526001600160601b0390911660c0820181905290600090610d379060e0016105c6565b905060005b8361ffff168161ffff161015610d6157610d5882878584611037565b50600101610d3c565b5060019998505050505050505050565b6001600160a01b03821660009081526003602052604090205460ff16610de85760405162461bcd60e51b815260206004820152602660248201527f4d794d756c74695369673a206f6c64206f776e6572206d75737420626520616e6044820152651037bbb732b960d11b6064820152608401610365565b6001600160a01b03811660009081526003602052604090205460ff1615610e645760405162461bcd60e51b815260206004820152602a60248201527f4d794d756c74695369673a206e6577206f776e6572206d757374206e6f742062604482015269329030b71037bbb732b960b11b6064820152608401610365565b6001600160a01b038116610ed55760405162461bcd60e51b815260206004820152603260248201527f4d794d756c74695369673a206e6577206f776e6572206d757374206e6f7420626044820152716520746865207a65726f206164647265737360701b6064820152608401610365565b6001600160a01b03918216600090815260036020526040808220805460ff199081169091559290931681529190912080549091166001179055565b6000306001600160a01b037f000000000000000000000000000000000000000000000000000000000000000016148015610f6957507f000000000000000000000000000000000000000000000000000000000000000046145b15610f9357507f000000000000000000000000000000000000000000000000000000000000000090565b50604080517f00000000000000000000000000000000000000000000000000000000000000006020808301919091527f0000000000000000000000000000000000000000000000000000000000000000828401527f000000000000000000000000000000000000000000000000000000000000000060608301524660808301523060a0808401919091528351808403909101815260c0909201909252805191012090565b6000611044858584610bad565b6001600160a01b0381166000908152600360205260409020549091506001600160601b03841667ffffffffffffffff60601b606084901b16019060ff166110cd5760405162461bcd60e51b815260206004820152601960248201527f4d794d756c74695369673a20696e76616c6964206f776e6572000000000000006044820152606401610365565b60008181526004602052604090205460ff161561112c5760405162461bcd60e51b815260206004820181905260248201527f4d794d756c74695369673a206f776e657220616c7265616479207369676e65646044820152606401610365565b6000908152600460205260409020805460ff19166001179055949350505050565b6000815180845260005b8181101561117357602081850181015186830182015201611157565b506000602082860101526020601f19601f83011685010191505092915050565b6020815260006111a6602083018461114d565b9392505050565b80356001600160a01b03811681146111c457600080fd5b919050565b6000602082840312156111db57600080fd5b6111a6826111ad565b6000602082840312156111f657600080fd5b813561ffff811681146111a657600080fd5b634e487b7160e01b600052604160045260246000fd5b604051601f8201601f1916810167ffffffffffffffff8111828210171561124757611247611208565b604052919050565b600082601f83011261126057600080fd5b813567ffffffffffffffff81111561127a5761127a611208565b61128d601f8201601f191660200161121e565b8181528460208386010111156112a257600080fd5b816020850160208301376000918101602001919091529392505050565b600080600080600060a086880312156112d757600080fd5b6112e0866111ad565b945060208601359350604086013567ffffffffffffffff8082111561130457600080fd5b61131089838a0161124f565b945060608801359350608088013591508082111561132d57600080fd5b5061133a8882890161124f565b9150509295509295909350565b6000806040838503121561135a57600080fd5b611363836111ad565b9150611371602084016111ad565b90509250929050565b600067ffffffffffffffff82111561139457611394611208565b5060051b60200190565b600082601f8301126113af57600080fd5b813560206113c46113bf8361137a565b61121e565b82815260059290921b840181019181810190868411156113e357600080fd5b8286015b848110156113fe57803583529183019183016113e7565b509695505050505050565b600082601f83011261141a57600080fd5b8135602061142a6113bf8361137a565b82815260059290921b8401810191818101908684111561144957600080fd5b8286015b848110156113fe57803567ffffffffffffffff81111561146d5760008081fd5b61147b8986838b010161124f565b84525091830191830161144d565b6000806000806080858703121561149f57600080fd5b843567ffffffffffffffff808211156114b757600080fd5b818701915087601f8301126114cb57600080fd5b813560206114db6113bf8361137a565b82815260059290921b8401810191818101908b8411156114fa57600080fd5b948201945b8386101561151f57611510866111ad565b825294820194908201906114ff565b9850508801359250508082111561153557600080fd5b6115418883890161139e565b9450604087013591508082111561155757600080fd5b61156388838901611409565b9350606087013591508082111561157957600080fd5b506115868782880161139e565b91505092959194509250565b600181811c908216806115a657607f821691505b6020821081036115c657634e487b7160e01b600052602260045260246000fd5b50919050565b60208082526035908201527f4d794d756c74695369673a206f6e6c79207468697320636f6e7472616374206360408201527430b71031b0b636103a3434b990333ab731ba34b7b760591b606082015260800190565b634e487b7160e01b600052601160045260246000fd5b600061ffff82168061164b5761164b611621565b6000190192915050565b61ffff81811683821602808216919082811461167357611673611621565b505092915050565b60006001600160601b0380831681810361169757611697611621565b6001019392505050565b81810381811115610ba757610ba7611621565b6060815260006116c7606083018661114d565b90508360208301526001600160601b0383166040830152949350505050565b6cffffffffffffffffffffffffff82811682821603908082111561170c5761170c611621565b5092915050565b634e487b7160e01b600052603260045260246000fdfea26469706673582212208ee04e3f07b6035a2b854170fba6030d1ca2740b4233d667604b05483cf2441564736f6c63430008120033a2646970667358221220e04b53de93e4f94ce9d95c3bd6160ddc2dbbd103e53f87592af84369ad23792f64736f6c63430008120033",
	"deployedBytecode": "0x60806040526004361061004e5760003560e01c80633659cfe6146100655780634f1ef286146100855780635c60da1b146100ae5780638f283970146100db578063f851a440146100fb5761005d565b3661005d5761005b610110565b005b61005b610110565b34801561007157600080fd5b5061005b61008036600461051d565b6101c8565b610098610093366004610538565b61020e565b6040516100a591906105bb565b60405180910390f35b3480156100ba57600080fd5b506100c361033e565b6040516001600160a01b0390911681526020016100a5565b3480156100e757600080fd5b5061005b6100f636600461051d565b6103a9565b34801561010757600080fd5b506100c36103e4565b600061013a7f360894a13ba1a3210667c828492db98dca3e2076cc3735a920a3ca505d382bbc5490565b90506001600160a01b0381166101a55760405162461bcd60e51b815260206004820152602560248201527f50726f78793a20696d706c656d656e746174696f6e206e6f7420696e697469616044820152641b1a5e995960da1b60648201526084015b60405180910390fd5b3660008037600080366000845af43d6000803e806101c2573d6000fd5b503d6000f35b600080516020610621833981519152546001600160a01b0316336001600160a01b031614806101f5575033155b156102065761020381610432565b50565b610203610110565b60606102266000805160206106218339815191525490565b6001600160a01b0316336001600160a01b03161480610243575033155b1561032f5761025184610432565b600080856001600160a01b0316858560405161026e929190610610565b600060405180830381855af49150503d80600081146102a9576040519150601f19603f3d011682016040523d82523d6000602084013e6102ae565b606091505b5091509150816103265760405162461bcd60e51b815260206004820152603960248201527f50726f78793a2064656c656761746563616c6c20746f206e657720696d706c6560448201527f6d656e746174696f6e20636f6e7472616374206661696c656400000000000000606482015260840161019c565b91506103379050565b610337610110565b9392505050565b60006103566000805160206106218339815191525490565b6001600160a01b0316336001600160a01b03161480610373575033155b1561039e57507f360894a13ba1a3210667c828492db98dca3e2076cc3735a920a3ca505d382bbc5490565b6103a6610110565b90565b600080516020610621833981519152546001600160a01b0316336001600160a01b031614806103d6575033155b15610206576102038161048d565b60006103fc6000805160206106218339815191525490565b6001600160a01b0316336001600160a01b03161480610419575033155b1561039e57506000805160206106218339815191525490565b7f360894a13ba1a3210667c828492db98dca3e2076cc3735a920a3ca505d382bbc8190556040516001600160a01b038216907fbc7cd75a20ee27fd9adebab32041f755214dbc6bffa90cc0225b39da2e5c2d3b90600090a250565b60006104a56000805160206106218339815191525490565b600080516020610621833981519152839055604080516001600160a01b038084168252851660208201529192507f7e644d79422f17c01e4894b5f4f588d331ebfa28653d42ae832dc59e38c9798f910160405180910390a15050565b80356001600160a01b038116811461051857600080fd5b919050565b60006020828403121561052f57600080fd5b61033782610501565b60008060006040848603121561054d57600080fd5b61055684610501565b9250602084013567ffffffffffffffff8082111561057357600080fd5b818601915086601f83011261058757600080fd5b81358181111561059657600080fd5b8760208285010111156105a857600080fd5b6020830194508093505050509250925092565b600060208083528351808285015260005b818110156105e8578581018301518582016040015282016105cc565b818111156105fa576000604083870101525b50601f01601f1916929092016040019392505050565b818382376000910190815291905056feb53127684a568b3173ae13b9f8a6016e243e63b6e8ee1178d6a717850b5d6103a164736f6c634300080f000a",
	"devdoc": {
		"kind": "dev",
		"methods": {
			"createMultiSig(string,address[],uint16)": {
				"params": {
					"contractName": "The name of your multisig contract",
					"owners": "The owners list",
					"threshold": "The amount of owners signature require to execute transactions"
				}
			},
			"createMyMultiSigExtended(string,address[],uint16,bool)": {
				"params": {
					"contractName": "The name of your multisig contract",
					"owners": "The owners list",
					"threshold": "The amount of owners signature require to execute transactions"
				}
			},
			"creationType(uint256)": {
				"params": {
					"index": "The index of the multisig"
				},
				"returns": {
					"_0": "The type of multisig contract as a MyMultiSigFactorableModels.CreationType."
				}
			},
			"multiSig(uint256)": {
				"params": {
					"index": "The index of the multisig"
				},
				"returns": {
					"_0": "The current amount value as a uint256."
				}
			},
			"multiSigByCreator(address,uint256)": {
				"params": {
					"creator": "The creator of the multisig contract",
					"index": "The index of the multisig"
				},
				"returns": {
					"_0": "The current amount value as a uint256."
				}
			},
			"multiSigCount()": {
				"returns": {
					"_0": "The current amount value as a uint256."
				}
			},
			"multiSigCreatorCount(address)": {
				"params": {
					"creator": "The creator of the multisig contract"
				},
				"returns": {
					"_0": "The current amount value as a uint256."
				}
			},
			"name()": {
				"returns": {
					"_0": "The name as a string memory."
				}
			},
			"version()": {
				"returns": {
					"_0": "The version as a string memory."
				}
			}
		},
		"version": 1
	},
	"userdoc": {
		"kind": "user",
		"methods": {
			"createMultiSig(string,address[],uint16)": {
				"notice": "Creates a new multisig contract"
			},
			"createMyMultiSigExtended(string,address[],uint16,bool)": {
				"notice": "Creates a new multisig contract with extended features"
			},
			"creationType(uint256)": {
				"notice": "Retrieves the type of multisig contract created via this Factory contract"
			},
			"multiSig(uint256)": {
				"notice": "Retrieves a multisig by it's index"
			},
			"multiSigByCreator(address,uint256)": {
				"notice": "Retrieves a multisig created by a specific creator by it's index"
			},
			"multiSigCount()": {
				"notice": "Retrieves the amount of multisig contract created via this Factory contract"
			},
			"multiSigCreatorCount(address)": {
				"notice": "Retrieves the amount of multisig contract created via this Factory contract by a specific creator"
			},
			"name()": {
				"notice": "Retrieves the contract name"
			},
			"version()": {
				"notice": "Retrieves the contract version"
			}
		},
		"version": 1
	},
	"storageLayout": {
		"storage": [
			{
				"astId": 11993,
				"contract": "contracts/MyMultiSigFactoryWithChugSplash.sol:MyMultiSigFactoryWithChugSplash",
				"label": "_multiSigCount",
				"offset": 0,
				"slot": "0",
				"type": "t_uint256"
			},
			{
				"astId": 11998,
				"contract": "contracts/MyMultiSigFactoryWithChugSplash.sol:MyMultiSigFactoryWithChugSplash",
				"label": "_multiSigs",
				"offset": 0,
				"slot": "1",
				"type": "t_mapping(t_uint256,t_contract(MyMultiSig)11716)"
			},
			{
				"astId": 12002,
				"contract": "contracts/MyMultiSigFactoryWithChugSplash.sol:MyMultiSigFactoryWithChugSplash",
				"label": "_multiSigIndex",
				"offset": 0,
				"slot": "2",
				"type": "t_mapping(t_address,t_uint256)"
			},
			{
				"astId": 12006,
				"contract": "contracts/MyMultiSigFactoryWithChugSplash.sol:MyMultiSigFactoryWithChugSplash",
				"label": "_multiSigCreatorCount",
				"offset": 0,
				"slot": "3",
				"type": "t_mapping(t_address,t_uint256)"
			},
			{
				"astId": 12012,
				"contract": "contracts/MyMultiSigFactoryWithChugSplash.sol:MyMultiSigFactoryWithChugSplash",
				"label": "_multiSigIndexByCreator",
				"offset": 0,
				"slot": "4",
				"type": "t_mapping(t_address,t_mapping(t_uint256,t_uint256))"
			},
			{
				"astId": 12017,
				"contract": "contracts/MyMultiSigFactoryWithChugSplash.sol:MyMultiSigFactoryWithChugSplash",
				"label": "_multiSigCreationType",
				"offset": 0,
				"slot": "5",
				"type": "t_mapping(t_uint256,t_enum(CreationType)12278)"
			}
		],
		"types": {
			"t_address": {
				"encoding": "inplace",
				"label": "address",
				"numberOfBytes": "20"
			},
			"t_contract(MyMultiSig)11716": {
				"encoding": "inplace",
				"label": "contract MyMultiSig",
				"numberOfBytes": "20"
			},
			"t_enum(CreationType)12278": {
				"encoding": "inplace",
				"label": "enum MyMultiSigFactorableModels.CreationType",
				"numberOfBytes": "1",
				"members": [
					"SIMPLE",
					"EXTENDED"
				]
			},
			"t_mapping(t_address,t_mapping(t_uint256,t_uint256))": {
				"encoding": "mapping",
				"key": "t_address",
				"label": "mapping(address => mapping(uint256 => uint256))",
				"numberOfBytes": "32",
				"value": "t_mapping(t_uint256,t_uint256)"
			},
			"t_mapping(t_address,t_uint256)": {
				"encoding": "mapping",
				"key": "t_address",
				"label": "mapping(address => uint256)",
				"numberOfBytes": "32",
				"value": "t_uint256"
			},
			"t_mapping(t_uint256,t_contract(MyMultiSig)11716)": {
				"encoding": "mapping",
				"key": "t_uint256",
				"label": "mapping(uint256 => contract MyMultiSig)",
				"numberOfBytes": "32",
				"value": "t_contract(MyMultiSig)11716"
			},
			"t_mapping(t_uint256,t_enum(CreationType)12278)": {
				"encoding": "mapping",
				"key": "t_uint256",
				"label": "mapping(uint256 => enum MyMultiSigFactorableModels.CreationType)",
				"numberOfBytes": "32",
				"value": "t_enum(CreationType)12278"
			},
			"t_mapping(t_uint256,t_uint256)": {
				"encoding": "mapping",
				"key": "t_uint256",
				"label": "mapping(uint256 => uint256)",
				"numberOfBytes": "32",
				"value": "t_uint256"
			},
			"t_uint256": {
				"encoding": "inplace",
				"label": "uint256",
				"numberOfBytes": "32"
			}
		}
	}
}